{
	"contracts/waterquality.sol": {
		"WaterQuality": {
			"abi": [
				{
					"anonymous": false,
					"inputs": [
						{
							"indexed": false,
							"internalType": "string",
							"name": "area",
							"type": "string"
						},
						{
							"indexed": false,
							"internalType": "uint256",
							"name": "solids",
							"type": "uint256"
						},
						{
							"indexed": false,
							"internalType": "uint256",
							"name": "hardness",
							"type": "uint256"
						},
						{
							"indexed": false,
							"internalType": "uint256",
							"name": "pH",
							"type": "uint256"
						},
						{
							"indexed": false,
							"internalType": "uint256",
							"name": "sulfate",
							"type": "uint256"
						},
						{
							"indexed": false,
							"internalType": "uint256",
							"name": "chloramines",
							"type": "uint256"
						},
						{
							"indexed": false,
							"internalType": "uint256",
							"name": "organicCarbon",
							"type": "uint256"
						},
						{
							"indexed": false,
							"internalType": "uint256",
							"name": "trihalomethanes",
							"type": "uint256"
						},
						{
							"indexed": false,
							"internalType": "uint256",
							"name": "conductivity",
							"type": "uint256"
						},
						{
							"indexed": false,
							"internalType": "int256",
							"name": "potability",
							"type": "int256"
						},
						{
							"indexed": false,
							"internalType": "string",
							"name": "additionalNotes",
							"type": "string"
						}
					],
					"name": "DataRecorded",
					"type": "event"
				},
				{
					"anonymous": false,
					"inputs": [
						{
							"indexed": true,
							"internalType": "address",
							"name": "sender",
							"type": "address"
						},
						{
							"indexed": false,
							"internalType": "uint256",
							"name": "amount",
							"type": "uint256"
						}
					],
					"name": "PaymentReceived",
					"type": "event"
				},
				{
					"stateMutability": "payable",
					"type": "fallback"
				},
				{
					"inputs": [
						{
							"internalType": "string",
							"name": "",
							"type": "string"
						},
						{
							"internalType": "uint256",
							"name": "",
							"type": "uint256"
						}
					],
					"name": "areaData",
					"outputs": [
						{
							"internalType": "string",
							"name": "area",
							"type": "string"
						},
						{
							"internalType": "uint256",
							"name": "solids",
							"type": "uint256"
						},
						{
							"internalType": "uint256",
							"name": "hardness",
							"type": "uint256"
						},
						{
							"internalType": "uint256",
							"name": "pH",
							"type": "uint256"
						},
						{
							"internalType": "uint256",
							"name": "sulfate",
							"type": "uint256"
						},
						{
							"internalType": "uint256",
							"name": "chloramines",
							"type": "uint256"
						},
						{
							"internalType": "uint256",
							"name": "organicCarbon",
							"type": "uint256"
						},
						{
							"internalType": "uint256",
							"name": "trihalomethanes",
							"type": "uint256"
						},
						{
							"internalType": "uint256",
							"name": "conductivity",
							"type": "uint256"
						},
						{
							"internalType": "int256",
							"name": "potability",
							"type": "int256"
						},
						{
							"internalType": "string",
							"name": "additionalNotes",
							"type": "string"
						}
					],
					"stateMutability": "view",
					"type": "function"
				},
				{
					"inputs": [
						{
							"internalType": "string",
							"name": "area",
							"type": "string"
						}
					],
					"name": "getDataByArea",
					"outputs": [
						{
							"components": [
								{
									"internalType": "string",
									"name": "area",
									"type": "string"
								},
								{
									"internalType": "uint256",
									"name": "solids",
									"type": "uint256"
								},
								{
									"internalType": "uint256",
									"name": "hardness",
									"type": "uint256"
								},
								{
									"internalType": "uint256",
									"name": "pH",
									"type": "uint256"
								},
								{
									"internalType": "uint256",
									"name": "sulfate",
									"type": "uint256"
								},
								{
									"internalType": "uint256",
									"name": "chloramines",
									"type": "uint256"
								},
								{
									"internalType": "uint256",
									"name": "organicCarbon",
									"type": "uint256"
								},
								{
									"internalType": "uint256",
									"name": "trihalomethanes",
									"type": "uint256"
								},
								{
									"internalType": "uint256",
									"name": "conductivity",
									"type": "uint256"
								},
								{
									"internalType": "int256",
									"name": "potability",
									"type": "int256"
								},
								{
									"internalType": "string",
									"name": "additionalNotes",
									"type": "string"
								}
							],
							"internalType": "struct WaterQuality.WaterQualityData[]",
							"name": "",
							"type": "tuple[]"
						}
					],
					"stateMutability": "view",
					"type": "function"
				},
				{
					"inputs": [
						{
							"internalType": "string",
							"name": "area",
							"type": "string"
						}
					],
					"name": "getLatestDataByArea",
					"outputs": [
						{
							"components": [
								{
									"internalType": "string",
									"name": "area",
									"type": "string"
								},
								{
									"internalType": "uint256",
									"name": "solids",
									"type": "uint256"
								},
								{
									"internalType": "uint256",
									"name": "hardness",
									"type": "uint256"
								},
								{
									"internalType": "uint256",
									"name": "pH",
									"type": "uint256"
								},
								{
									"internalType": "uint256",
									"name": "sulfate",
									"type": "uint256"
								},
								{
									"internalType": "uint256",
									"name": "chloramines",
									"type": "uint256"
								},
								{
									"internalType": "uint256",
									"name": "organicCarbon",
									"type": "uint256"
								},
								{
									"internalType": "uint256",
									"name": "trihalomethanes",
									"type": "uint256"
								},
								{
									"internalType": "uint256",
									"name": "conductivity",
									"type": "uint256"
								},
								{
									"internalType": "int256",
									"name": "potability",
									"type": "int256"
								},
								{
									"internalType": "string",
									"name": "additionalNotes",
									"type": "string"
								}
							],
							"internalType": "struct WaterQuality.WaterQualityData",
							"name": "",
							"type": "tuple"
						}
					],
					"stateMutability": "view",
					"type": "function"
				},
				{
					"inputs": [
						{
							"internalType": "string",
							"name": "area",
							"type": "string"
						},
						{
							"internalType": "uint256",
							"name": "solids",
							"type": "uint256"
						},
						{
							"internalType": "uint256",
							"name": "hardness",
							"type": "uint256"
						},
						{
							"internalType": "uint256",
							"name": "pH",
							"type": "uint256"
						},
						{
							"internalType": "uint256",
							"name": "sulfate",
							"type": "uint256"
						},
						{
							"internalType": "uint256",
							"name": "chloramines",
							"type": "uint256"
						},
						{
							"internalType": "uint256",
							"name": "organicCarbon",
							"type": "uint256"
						},
						{
							"internalType": "uint256",
							"name": "trihalomethanes",
							"type": "uint256"
						},
						{
							"internalType": "uint256",
							"name": "conductivity",
							"type": "uint256"
						},
						{
							"internalType": "int256",
							"name": "potability",
							"type": "int256"
						},
						{
							"internalType": "string",
							"name": "additionalNotes",
							"type": "string"
						}
					],
					"name": "recordData",
					"outputs": [],
					"stateMutability": "nonpayable",
					"type": "function"
				},
				{
					"inputs": [
						{
							"internalType": "string",
							"name": "area",
							"type": "string"
						},
						{
							"internalType": "uint256",
							"name": "solids",
							"type": "uint256"
						},
						{
							"internalType": "uint256",
							"name": "hardness",
							"type": "uint256"
						},
						{
							"internalType": "uint256",
							"name": "pH",
							"type": "uint256"
						},
						{
							"internalType": "uint256",
							"name": "sulfate",
							"type": "uint256"
						},
						{
							"internalType": "uint256",
							"name": "chloramines",
							"type": "uint256"
						},
						{
							"internalType": "uint256",
							"name": "organicCarbon",
							"type": "uint256"
						},
						{
							"internalType": "uint256",
							"name": "trihalomethanes",
							"type": "uint256"
						},
						{
							"internalType": "uint256",
							"name": "conductivity",
							"type": "uint256"
						},
						{
							"internalType": "int256",
							"name": "potability",
							"type": "int256"
						},
						{
							"internalType": "string",
							"name": "additionalNotes",
							"type": "string"
						}
					],
					"name": "recordDataWithPayment",
					"outputs": [],
					"stateMutability": "payable",
					"type": "function"
				},
				{
					"inputs": [],
					"name": "withdraw",
					"outputs": [],
					"stateMutability": "nonpayable",
					"type": "function"
				},
				{
					"stateMutability": "payable",
					"type": "receive"
				}
			],
			"devdoc": {
				"kind": "dev",
				"methods": {},
				"version": 1
			},
			"evm": {
				"assembly": "    /* \"contracts/waterquality.sol\":60:3824  contract WaterQuality {... */\n  mstore(0x40, 0x80)\n  callvalue\n  dup1\n  iszero\n  tag_1\n  jumpi\n  0x00\n  dup1\n  revert\ntag_1:\n  pop\n  dataSize(sub_0)\n  dup1\n  dataOffset(sub_0)\n  0x00\n  codecopy\n  0x00\n  return\nstop\n\nsub_0: assembly {\n        /* \"contracts/waterquality.sol\":60:3824  contract WaterQuality {... */\n      mstore(0x40, 0x80)\n      jumpi(tag_1, lt(calldatasize, 0x04))\n      shr(0xe0, calldataload(0x00))\n      dup1\n      0x0c5267aa\n      eq\n      tag_3\n      jumpi\n      dup1\n      0x3ccfd60b\n      eq\n      tag_4\n      jumpi\n      dup1\n      0x6e703374\n      eq\n      tag_5\n      jumpi\n      dup1\n      0x770ce963\n      eq\n      tag_6\n      jumpi\n      dup1\n      0xaff3b5d5\n      eq\n      tag_7\n      jumpi\n      dup1\n      0xdcaa2597\n      eq\n      tag_8\n      jumpi\n      jump(tag_2)\n    tag_1:\n      jumpi(tag_2, calldatasize)\n        /* \"contracts/waterquality.sol\":2870:2880  msg.sender */\n      caller\n        /* \"contracts/waterquality.sol\":2854:2892  PaymentReceived(msg.sender, msg.value) */\n      0xffffffffffffffffffffffffffffffffffffffff\n      and\n      0x6ef95f06320e7a25a04a175ca677b7052bdd97131872c2192525a629f51be770\n        /* \"contracts/waterquality.sol\":2882:2891  msg.value */\n      callvalue\n        /* \"contracts/waterquality.sol\":2854:2892  PaymentReceived(msg.sender, msg.value) */\n      mload(0x40)\n      tag_11\n      swap2\n      swap1\n      tag_12\n      jump\t// in\n    tag_11:\n      mload(0x40)\n      dup1\n      swap2\n      sub\n      swap1\n      log2\n        /* \"contracts/waterquality.sol\":60:3824  contract WaterQuality {... */\n      stop\n    tag_2:\n        /* \"contracts/waterquality.sol\":2968:2978  msg.sender */\n      caller\n        /* \"contracts/waterquality.sol\":2952:2990  PaymentReceived(msg.sender, msg.value) */\n      0xffffffffffffffffffffffffffffffffffffffff\n      and\n      0x6ef95f06320e7a25a04a175ca677b7052bdd97131872c2192525a629f51be770\n        /* \"contracts/waterquality.sol\":2980:2989  msg.value */\n      callvalue\n        /* \"contracts/waterquality.sol\":2952:2990  PaymentReceived(msg.sender, msg.value) */\n      mload(0x40)\n      tag_15\n      swap2\n      swap1\n      tag_12\n      jump\t// in\n    tag_15:\n      mload(0x40)\n      dup1\n      swap2\n      sub\n      swap1\n      log2\n        /* \"contracts/waterquality.sol\":60:3824  contract WaterQuality {... */\n      stop\n        /* \"contracts/waterquality.sol\":2560:2803  function getLatestDataByArea(string memory area) public view returns (WaterQualityData memory) {... */\n    tag_3:\n      callvalue\n      dup1\n      iszero\n      tag_16\n      jumpi\n      0x00\n      dup1\n      revert\n    tag_16:\n      pop\n      tag_17\n      0x04\n      dup1\n      calldatasize\n      sub\n      dup2\n      add\n      swap1\n      tag_18\n      swap2\n      swap1\n      tag_19\n      jump\t// in\n    tag_18:\n      tag_20\n      jump\t// in\n    tag_17:\n      mload(0x40)\n      tag_21\n      swap2\n      swap1\n      tag_22\n      jump\t// in\n    tag_21:\n      mload(0x40)\n      dup1\n      swap2\n      sub\n      swap1\n      return\n        /* \"contracts/waterquality.sol\":3006:3174  function withdraw() public {... */\n    tag_4:\n      callvalue\n      dup1\n      iszero\n      tag_23\n      jumpi\n      0x00\n      dup1\n      revert\n    tag_23:\n      pop\n      tag_24\n      tag_25\n      jump\t// in\n    tag_24:\n      stop\n        /* \"contracts/waterquality.sol\":3182:3821  function recordDataWithPayment(... */\n    tag_5:\n      tag_26\n      0x04\n      dup1\n      calldatasize\n      sub\n      dup2\n      add\n      swap1\n      tag_27\n      swap2\n      swap1\n      tag_28\n      jump\t// in\n    tag_27:\n      tag_29\n      jump\t// in\n    tag_26:\n      stop\n        /* \"contracts/waterquality.sol\":868:1379  function recordData(... */\n    tag_6:\n      callvalue\n      dup1\n      iszero\n      tag_30\n      jumpi\n      0x00\n      dup1\n      revert\n    tag_30:\n      pop\n      tag_31\n      0x04\n      dup1\n      calldatasize\n      sub\n      dup2\n      add\n      swap1\n      tag_32\n      swap2\n      swap1\n      tag_28\n      jump\t// in\n    tag_32:\n      tag_33\n      jump\t// in\n    tag_31:\n      stop\n        /* \"contracts/waterquality.sol\":504:557  mapping(string => WaterQualityData[]) public areaData */\n    tag_7:\n      callvalue\n      dup1\n      iszero\n      tag_34\n      jumpi\n      0x00\n      dup1\n      revert\n    tag_34:\n      pop\n      tag_35\n      0x04\n      dup1\n      calldatasize\n      sub\n      dup2\n      add\n      swap1\n      tag_36\n      swap2\n      swap1\n      tag_37\n      jump\t// in\n    tag_36:\n      tag_38\n      jump\t// in\n    tag_35:\n      mload(0x40)\n      tag_39\n      swap12\n      swap11\n      swap10\n      swap9\n      swap8\n      swap7\n      swap6\n      swap5\n      swap4\n      swap3\n      swap2\n      swap1\n      tag_40\n      jump\t// in\n    tag_39:\n      mload(0x40)\n      dup1\n      swap2\n      sub\n      swap1\n      return\n        /* \"contracts/waterquality.sol\":2421:2552  function getDataByArea(string memory area) public view returns (WaterQualityData[] memory) {... */\n    tag_8:\n      callvalue\n      dup1\n      iszero\n      tag_41\n      jumpi\n      0x00\n      dup1\n      revert\n    tag_41:\n      pop\n      tag_42\n      0x04\n      dup1\n      calldatasize\n      sub\n      dup2\n      add\n      swap1\n      tag_43\n      swap2\n      swap1\n      tag_19\n      jump\t// in\n    tag_43:\n      tag_44\n      jump\t// in\n    tag_42:\n      mload(0x40)\n      tag_45\n      swap2\n      swap1\n      tag_46\n      jump\t// in\n    tag_45:\n      mload(0x40)\n      dup1\n      swap2\n      sub\n      swap1\n      return\n        /* \"contracts/waterquality.sol\":2560:2803  function getLatestDataByArea(string memory area) public view returns (WaterQualityData memory) {... */\n    tag_20:\n        /* \"contracts/waterquality.sol\":2630:2653  WaterQualityData memory */\n      tag_47\n      tag_48\n      jump\t// in\n    tag_47:\n        /* \"contracts/waterquality.sol\":2698:2699  0 */\n      0x00\n        /* \"contracts/waterquality.sol\":2674:2682  areaData */\n      dup1\n        /* \"contracts/waterquality.sol\":2683:2687  area */\n      dup4\n        /* \"contracts/waterquality.sol\":2674:2688  areaData[area] */\n      mload(0x40)\n      tag_50\n      swap2\n      swap1\n      tag_51\n      jump\t// in\n    tag_50:\n      swap1\n      dup2\n      mstore\n      0x20\n      add\n      mload(0x40)\n      dup1\n      swap2\n      sub\n      swap1\n      keccak256\n        /* \"contracts/waterquality.sol\":2674:2695  areaData[area].length */\n      dup1\n      sload\n      swap1\n      pop\n        /* \"contracts/waterquality.sol\":2674:2699  areaData[area].length > 0 */\n      gt\n        /* \"contracts/waterquality.sol\":2666:2736  require(areaData[area].length > 0, \"No data available for this area!\") */\n      tag_52\n      jumpi\n      mload(0x40)\n      0x08c379a000000000000000000000000000000000000000000000000000000000\n      dup2\n      mstore\n      0x04\n      add\n      tag_53\n      swap1\n      tag_54\n      jump\t// in\n    tag_53:\n      mload(0x40)\n      dup1\n      swap2\n      sub\n      swap1\n      revert\n    tag_52:\n        /* \"contracts/waterquality.sol\":2754:2762  areaData */\n      0x00\n        /* \"contracts/waterquality.sol\":2763:2767  area */\n      dup3\n        /* \"contracts/waterquality.sol\":2754:2768  areaData[area] */\n      mload(0x40)\n      tag_55\n      swap2\n      swap1\n      tag_51\n      jump\t// in\n    tag_55:\n      swap1\n      dup2\n      mstore\n      0x20\n      add\n      mload(0x40)\n      dup1\n      swap2\n      sub\n      swap1\n      keccak256\n        /* \"contracts/waterquality.sol\":2793:2794  1 */\n      0x01\n        /* \"contracts/waterquality.sol\":2769:2777  areaData */\n      0x00\n        /* \"contracts/waterquality.sol\":2778:2782  area */\n      dup5\n        /* \"contracts/waterquality.sol\":2769:2783  areaData[area] */\n      mload(0x40)\n      tag_56\n      swap2\n      swap1\n      tag_51\n      jump\t// in\n    tag_56:\n      swap1\n      dup2\n      mstore\n      0x20\n      add\n      mload(0x40)\n      dup1\n      swap2\n      sub\n      swap1\n      keccak256\n        /* \"contracts/waterquality.sol\":2769:2790  areaData[area].length */\n      dup1\n      sload\n      swap1\n      pop\n        /* \"contracts/waterquality.sol\":2769:2794  areaData[area].length - 1 */\n      tag_57\n      swap2\n      swap1\n      tag_58\n      jump\t// in\n    tag_57:\n        /* \"contracts/waterquality.sol\":2754:2795  areaData[area][areaData[area].length - 1] */\n      dup2\n      sload\n      dup2\n      lt\n      tag_59\n      jumpi\n      tag_60\n      tag_61\n      jump\t// in\n    tag_60:\n    tag_59:\n      swap1\n      0x00\n      mstore\n      keccak256(0x00, 0x20)\n      swap1\n      0x0b\n      mul\n      add\n        /* \"contracts/waterquality.sol\":2747:2795  return areaData[area][areaData[area].length - 1] */\n      mload(0x40)\n      dup1\n      0x0160\n      add\n      0x40\n      mstore\n      swap1\n      dup2\n      0x00\n      dup3\n      add\n      dup1\n      sload\n      tag_63\n      swap1\n      tag_64\n      jump\t// in\n    tag_63:\n      dup1\n      0x1f\n      add\n      0x20\n      dup1\n      swap2\n      div\n      mul\n      0x20\n      add\n      mload(0x40)\n      swap1\n      dup2\n      add\n      0x40\n      mstore\n      dup1\n      swap3\n      swap2\n      swap1\n      dup2\n      dup2\n      mstore\n      0x20\n      add\n      dup3\n      dup1\n      sload\n      tag_65\n      swap1\n      tag_64\n      jump\t// in\n    tag_65:\n      dup1\n      iszero\n      tag_66\n      jumpi\n      dup1\n      0x1f\n      lt\n      tag_67\n      jumpi\n      0x0100\n      dup1\n      dup4\n      sload\n      div\n      mul\n      dup4\n      mstore\n      swap2\n      0x20\n      add\n      swap2\n      jump(tag_66)\n    tag_67:\n      dup3\n      add\n      swap2\n      swap1\n      0x00\n      mstore\n      keccak256(0x00, 0x20)\n      swap1\n    tag_68:\n      dup2\n      sload\n      dup2\n      mstore\n      swap1\n      0x01\n      add\n      swap1\n      0x20\n      add\n      dup1\n      dup4\n      gt\n      tag_68\n      jumpi\n      dup3\n      swap1\n      sub\n      0x1f\n      and\n      dup3\n      add\n      swap2\n    tag_66:\n      pop\n      pop\n      pop\n      pop\n      pop\n      dup2\n      mstore\n      0x20\n      add\n      0x01\n      dup3\n      add\n      sload\n      dup2\n      mstore\n      0x20\n      add\n      0x02\n      dup3\n      add\n      sload\n      dup2\n      mstore\n      0x20\n      add\n      0x03\n      dup3\n      add\n      sload\n      dup2\n      mstore\n      0x20\n      add\n      0x04\n      dup3\n      add\n      sload\n      dup2\n      mstore\n      0x20\n      add\n      0x05\n      dup3\n      add\n      sload\n      dup2\n      mstore\n      0x20\n      add\n      0x06\n      dup3\n      add\n      sload\n      dup2\n      mstore\n      0x20\n      add\n      0x07\n      dup3\n      add\n      sload\n      dup2\n      mstore\n      0x20\n      add\n      0x08\n      dup3\n      add\n      sload\n      dup2\n      mstore\n      0x20\n      add\n      0x09\n      dup3\n      add\n      sload\n      dup2\n      mstore\n      0x20\n      add\n      0x0a\n      dup3\n      add\n      dup1\n      sload\n      tag_69\n      swap1\n      tag_64\n      jump\t// in\n    tag_69:\n      dup1\n      0x1f\n      add\n      0x20\n      dup1\n      swap2\n      div\n      mul\n      0x20\n      add\n      mload(0x40)\n      swap1\n      dup2\n      add\n      0x40\n      mstore\n      dup1\n      swap3\n      swap2\n      swap1\n      dup2\n      dup2\n      mstore\n      0x20\n      add\n      dup3\n      dup1\n      sload\n      tag_70\n      swap1\n      tag_64\n      jump\t// in\n    tag_70:\n      dup1\n      iszero\n      tag_71\n      jumpi\n      dup1\n      0x1f\n      lt\n      tag_72\n      jumpi\n      0x0100\n      dup1\n      dup4\n      sload\n      div\n      mul\n      dup4\n      mstore\n      swap2\n      0x20\n      add\n      swap2\n      jump(tag_71)\n    tag_72:\n      dup3\n      add\n      swap2\n      swap1\n      0x00\n      mstore\n      keccak256(0x00, 0x20)\n      swap1\n    tag_73:\n      dup2\n      sload\n      dup2\n      mstore\n      swap1\n      0x01\n      add\n      swap1\n      0x20\n      add\n      dup1\n      dup4\n      gt\n      tag_73\n      jumpi\n      dup3\n      swap1\n      sub\n      0x1f\n      and\n      dup3\n      add\n      swap2\n    tag_71:\n      pop\n      pop\n      pop\n      pop\n      pop\n      dup2\n      mstore\n      pop\n      pop\n      swap1\n      pop\n        /* \"contracts/waterquality.sol\":2560:2803  function getLatestDataByArea(string memory area) public view returns (WaterQualityData memory) {... */\n      swap2\n      swap1\n      pop\n      jump\t// out\n        /* \"contracts/waterquality.sol\":3006:3174  function withdraw() public {... */\n    tag_25:\n        /* \"contracts/waterquality.sol\":3076:3077  0 */\n      0x00\n        /* \"contracts/waterquality.sol\":3052:3073  address(this).balance */\n      selfbalance\n        /* \"contracts/waterquality.sol\":3052:3077  address(this).balance > 0 */\n      gt\n        /* \"contracts/waterquality.sol\":3044:3104  require(address(this).balance > 0, \"No balance to withdraw\") */\n      tag_75\n      jumpi\n      mload(0x40)\n      0x08c379a000000000000000000000000000000000000000000000000000000000\n      dup2\n      mstore\n      0x04\n      add\n      tag_76\n      swap1\n      tag_77\n      jump\t// in\n    tag_76:\n      mload(0x40)\n      dup1\n      swap2\n      sub\n      swap1\n      revert\n    tag_75:\n        /* \"contracts/waterquality.sol\":3123:3133  msg.sender */\n      caller\n        /* \"contracts/waterquality.sol\":3115:3143  payable(msg.sender).transfer */\n      0xffffffffffffffffffffffffffffffffffffffff\n      and\n        /* \"contracts/waterquality.sol\":3115:3166  payable(msg.sender).transfer(address(this).balance) */\n      0x08fc\n        /* \"contracts/waterquality.sol\":3144:3165  address(this).balance */\n      selfbalance\n        /* \"contracts/waterquality.sol\":3115:3166  payable(msg.sender).transfer(address(this).balance) */\n      swap1\n      dup2\n      iszero\n      mul\n      swap1\n      mload(0x40)\n      0x00\n      mload(0x40)\n      dup1\n      dup4\n      sub\n      dup2\n      dup6\n      dup9\n      dup9\n      call\n      swap4\n      pop\n      pop\n      pop\n      pop\n      iszero\n      dup1\n      iszero\n      tag_79\n      jumpi\n      returndatasize\n      0x00\n      dup1\n      returndatacopy\n      revert(0x00, returndatasize)\n    tag_79:\n      pop\n        /* \"contracts/waterquality.sol\":3006:3174  function withdraw() public {... */\n      jump\t// out\n        /* \"contracts/waterquality.sol\":3182:3821  function recordDataWithPayment(... */\n    tag_29:\n        /* \"contracts/waterquality.sol\":3589:3590  0 */\n      0x00\n        /* \"contracts/waterquality.sol\":3577:3586  msg.value */\n      callvalue\n        /* \"contracts/waterquality.sol\":3577:3590  msg.value > 0 */\n      gt\n        /* \"contracts/waterquality.sol\":3569:3611  require(msg.value > 0, \"Payment required\") */\n      tag_81\n      jumpi\n      mload(0x40)\n      0x08c379a000000000000000000000000000000000000000000000000000000000\n      dup2\n      mstore\n      0x04\n      add\n      tag_82\n      swap1\n      tag_83\n      jump\t// in\n    tag_82:\n      mload(0x40)\n      dup1\n      swap2\n      sub\n      swap1\n      revert\n    tag_81:\n        /* \"contracts/waterquality.sol\":3624:3759  _storeData(area, solids, hardness, pH, sulfate, chloramines, organicCarbon, trihalomethanes, conductivity, potability, additionalNotes) */\n      tag_84\n        /* \"contracts/waterquality.sol\":3635:3639  area */\n      dup12\n        /* \"contracts/waterquality.sol\":3641:3647  solids */\n      dup12\n        /* \"contracts/waterquality.sol\":3649:3657  hardness */\n      dup12\n        /* \"contracts/waterquality.sol\":3659:3661  pH */\n      dup12\n        /* \"contracts/waterquality.sol\":3663:3670  sulfate */\n      dup12\n        /* \"contracts/waterquality.sol\":3672:3683  chloramines */\n      dup12\n        /* \"contracts/waterquality.sol\":3685:3698  organicCarbon */\n      dup12\n        /* \"contracts/waterquality.sol\":3700:3715  trihalomethanes */\n      dup12\n        /* \"contracts/waterquality.sol\":3717:3729  conductivity */\n      dup12\n        /* \"contracts/waterquality.sol\":3731:3741  potability */\n      dup12\n        /* \"contracts/waterquality.sol\":3743:3758  additionalNotes */\n      dup12\n        /* \"contracts/waterquality.sol\":3624:3634  _storeData */\n      tag_85\n        /* \"contracts/waterquality.sol\":3624:3759  _storeData(area, solids, hardness, pH, sulfate, chloramines, organicCarbon, trihalomethanes, conductivity, potability, additionalNotes) */\n      jump\t// in\n    tag_84:\n        /* \"contracts/waterquality.sol\":3791:3801  msg.sender */\n      caller\n        /* \"contracts/waterquality.sol\":3775:3813  PaymentReceived(msg.sender, msg.value) */\n      0xffffffffffffffffffffffffffffffffffffffff\n      and\n      0x6ef95f06320e7a25a04a175ca677b7052bdd97131872c2192525a629f51be770\n        /* \"contracts/waterquality.sol\":3803:3812  msg.value */\n      callvalue\n        /* \"contracts/waterquality.sol\":3775:3813  PaymentReceived(msg.sender, msg.value) */\n      mload(0x40)\n      tag_86\n      swap2\n      swap1\n      tag_12\n      jump\t// in\n    tag_86:\n      mload(0x40)\n      dup1\n      swap2\n      sub\n      swap1\n      log2\n        /* \"contracts/waterquality.sol\":3182:3821  function recordDataWithPayment(... */\n      pop\n      pop\n      pop\n      pop\n      pop\n      pop\n      pop\n      pop\n      pop\n      pop\n      pop\n      jump\t// out\n        /* \"contracts/waterquality.sol\":868:1379  function recordData(... */\n    tag_33:\n        /* \"contracts/waterquality.sol\":1236:1371  _storeData(area, solids, hardness, pH, sulfate, chloramines, organicCarbon, trihalomethanes, conductivity, potability, additionalNotes) */\n      tag_88\n        /* \"contracts/waterquality.sol\":1247:1251  area */\n      dup12\n        /* \"contracts/waterquality.sol\":1253:1259  solids */\n      dup12\n        /* \"contracts/waterquality.sol\":1261:1269  hardness */\n      dup12\n        /* \"contracts/waterquality.sol\":1271:1273  pH */\n      dup12\n        /* \"contracts/waterquality.sol\":1275:1282  sulfate */\n      dup12\n        /* \"contracts/waterquality.sol\":1284:1295  chloramines */\n      dup12\n        /* \"contracts/waterquality.sol\":1297:1310  organicCarbon */\n      dup12\n        /* \"contracts/waterquality.sol\":1312:1327  trihalomethanes */\n      dup12\n        /* \"contracts/waterquality.sol\":1329:1341  conductivity */\n      dup12\n        /* \"contracts/waterquality.sol\":1343:1353  potability */\n      dup12\n        /* \"contracts/waterquality.sol\":1355:1370  additionalNotes */\n      dup12\n        /* \"contracts/waterquality.sol\":1236:1246  _storeData */\n      tag_85\n        /* \"contracts/waterquality.sol\":1236:1371  _storeData(area, solids, hardness, pH, sulfate, chloramines, organicCarbon, trihalomethanes, conductivity, potability, additionalNotes) */\n      jump\t// in\n    tag_88:\n        /* \"contracts/waterquality.sol\":868:1379  function recordData(... */\n      pop\n      pop\n      pop\n      pop\n      pop\n      pop\n      pop\n      pop\n      pop\n      pop\n      pop\n      jump\t// out\n        /* \"contracts/waterquality.sol\":504:557  mapping(string => WaterQualityData[]) public areaData */\n    tag_38:\n      0x00\n      dup3\n      dup1\n      mload\n      0x20\n      dup2\n      add\n      dup3\n      add\n      dup1\n      mload\n      dup5\n      dup3\n      mstore\n      0x20\n      dup4\n      add\n      0x20\n      dup6\n      add\n      keccak256\n      dup2\n      dup4\n      mstore\n      dup1\n      swap6\n      pop\n      pop\n      pop\n      pop\n      pop\n      pop\n      dup2\n      dup2\n      sload\n      dup2\n      lt\n      tag_89\n      jumpi\n      0x00\n      dup1\n      revert\n    tag_89:\n      swap1\n      0x00\n      mstore\n      keccak256(0x00, 0x20)\n      swap1\n      0x0b\n      mul\n      add\n      0x00\n      swap2\n      pop\n      swap2\n      pop\n      pop\n      dup1\n      0x00\n      add\n      dup1\n      sload\n      tag_91\n      swap1\n      tag_64\n      jump\t// in\n    tag_91:\n      dup1\n      0x1f\n      add\n      0x20\n      dup1\n      swap2\n      div\n      mul\n      0x20\n      add\n      mload(0x40)\n      swap1\n      dup2\n      add\n      0x40\n      mstore\n      dup1\n      swap3\n      swap2\n      swap1\n      dup2\n      dup2\n      mstore\n      0x20\n      add\n      dup3\n      dup1\n      sload\n      tag_92\n      swap1\n      tag_64\n      jump\t// in\n    tag_92:\n      dup1\n      iszero\n      tag_93\n      jumpi\n      dup1\n      0x1f\n      lt\n      tag_94\n      jumpi\n      0x0100\n      dup1\n      dup4\n      sload\n      div\n      mul\n      dup4\n      mstore\n      swap2\n      0x20\n      add\n      swap2\n      jump(tag_93)\n    tag_94:\n      dup3\n      add\n      swap2\n      swap1\n      0x00\n      mstore\n      keccak256(0x00, 0x20)\n      swap1\n    tag_95:\n      dup2\n      sload\n      dup2\n      mstore\n      swap1\n      0x01\n      add\n      swap1\n      0x20\n      add\n      dup1\n      dup4\n      gt\n      tag_95\n      jumpi\n      dup3\n      swap1\n      sub\n      0x1f\n      and\n      dup3\n      add\n      swap2\n    tag_93:\n      pop\n      pop\n      pop\n      pop\n      pop\n      swap1\n      dup1\n      0x01\n      add\n      sload\n      swap1\n      dup1\n      0x02\n      add\n      sload\n      swap1\n      dup1\n      0x03\n      add\n      sload\n      swap1\n      dup1\n      0x04\n      add\n      sload\n      swap1\n      dup1\n      0x05\n      add\n      sload\n      swap1\n      dup1\n      0x06\n      add\n      sload\n      swap1\n      dup1\n      0x07\n      add\n      sload\n      swap1\n      dup1\n      0x08\n      add\n      sload\n      swap1\n      dup1\n      0x09\n      add\n      sload\n      swap1\n      dup1\n      0x0a\n      add\n      dup1\n      sload\n      tag_96\n      swap1\n      tag_64\n      jump\t// in\n    tag_96:\n      dup1\n      0x1f\n      add\n      0x20\n      dup1\n      swap2\n      div\n      mul\n      0x20\n      add\n      mload(0x40)\n      swap1\n      dup2\n      add\n      0x40\n      mstore\n      dup1\n      swap3\n      swap2\n      swap1\n      dup2\n      dup2\n      mstore\n      0x20\n      add\n      dup3\n      dup1\n      sload\n      tag_97\n      swap1\n      tag_64\n      jump\t// in\n    tag_97:\n      dup1\n      iszero\n      tag_98\n      jumpi\n      dup1\n      0x1f\n      lt\n      tag_99\n      jumpi\n      0x0100\n      dup1\n      dup4\n      sload\n      div\n      mul\n      dup4\n      mstore\n      swap2\n      0x20\n      add\n      swap2\n      jump(tag_98)\n    tag_99:\n      dup3\n      add\n      swap2\n      swap1\n      0x00\n      mstore\n      keccak256(0x00, 0x20)\n      swap1\n    tag_100:\n      dup2\n      sload\n      dup2\n      mstore\n      swap1\n      0x01\n      add\n      swap1\n      0x20\n      add\n      dup1\n      dup4\n      gt\n      tag_100\n      jumpi\n      dup3\n      swap1\n      sub\n      0x1f\n      and\n      dup3\n      add\n      swap2\n    tag_98:\n      pop\n      pop\n      pop\n      pop\n      pop\n      swap1\n      pop\n      dup12\n      jump\t// out\n        /* \"contracts/waterquality.sol\":2421:2552  function getDataByArea(string memory area) public view returns (WaterQualityData[] memory) {... */\n    tag_44:\n        /* \"contracts/waterquality.sol\":2485:2510  WaterQualityData[] memory */\n      0x60\n        /* \"contracts/waterquality.sol\":2530:2538  areaData */\n      0x00\n        /* \"contracts/waterquality.sol\":2539:2543  area */\n      dup3\n        /* \"contracts/waterquality.sol\":2530:2544  areaData[area] */\n      mload(0x40)\n      tag_102\n      swap2\n      swap1\n      tag_51\n      jump\t// in\n    tag_102:\n      swap1\n      dup2\n      mstore\n      0x20\n      add\n      mload(0x40)\n      dup1\n      swap2\n      sub\n      swap1\n      keccak256\n        /* \"contracts/waterquality.sol\":2523:2544  return areaData[area] */\n      dup1\n      sload\n      dup1\n      0x20\n      mul\n      0x20\n      add\n      mload(0x40)\n      swap1\n      dup2\n      add\n      0x40\n      mstore\n      dup1\n      swap3\n      swap2\n      swap1\n      dup2\n      dup2\n      mstore\n      0x20\n      add\n      0x00\n      swap1\n    tag_103:\n      dup3\n      dup3\n      lt\n      iszero\n      tag_104\n      jumpi\n      dup4\n      dup3\n      swap1\n      0x00\n      mstore\n      keccak256(0x00, 0x20)\n      swap1\n      0x0b\n      mul\n      add\n      mload(0x40)\n      dup1\n      0x0160\n      add\n      0x40\n      mstore\n      swap1\n      dup2\n      0x00\n      dup3\n      add\n      dup1\n      sload\n      tag_106\n      swap1\n      tag_64\n      jump\t// in\n    tag_106:\n      dup1\n      0x1f\n      add\n      0x20\n      dup1\n      swap2\n      div\n      mul\n      0x20\n      add\n      mload(0x40)\n      swap1\n      dup2\n      add\n      0x40\n      mstore\n      dup1\n      swap3\n      swap2\n      swap1\n      dup2\n      dup2\n      mstore\n      0x20\n      add\n      dup3\n      dup1\n      sload\n      tag_107\n      swap1\n      tag_64\n      jump\t// in\n    tag_107:\n      dup1\n      iszero\n      tag_108\n      jumpi\n      dup1\n      0x1f\n      lt\n      tag_109\n      jumpi\n      0x0100\n      dup1\n      dup4\n      sload\n      div\n      mul\n      dup4\n      mstore\n      swap2\n      0x20\n      add\n      swap2\n      jump(tag_108)\n    tag_109:\n      dup3\n      add\n      swap2\n      swap1\n      0x00\n      mstore\n      keccak256(0x00, 0x20)\n      swap1\n    tag_110:\n      dup2\n      sload\n      dup2\n      mstore\n      swap1\n      0x01\n      add\n      swap1\n      0x20\n      add\n      dup1\n      dup4\n      gt\n      tag_110\n      jumpi\n      dup3\n      swap1\n      sub\n      0x1f\n      and\n      dup3\n      add\n      swap2\n    tag_108:\n      pop\n      pop\n      pop\n      pop\n      pop\n      dup2\n      mstore\n      0x20\n      add\n      0x01\n      dup3\n      add\n      sload\n      dup2\n      mstore\n      0x20\n      add\n      0x02\n      dup3\n      add\n      sload\n      dup2\n      mstore\n      0x20\n      add\n      0x03\n      dup3\n      add\n      sload\n      dup2\n      mstore\n      0x20\n      add\n      0x04\n      dup3\n      add\n      sload\n      dup2\n      mstore\n      0x20\n      add\n      0x05\n      dup3\n      add\n      sload\n      dup2\n      mstore\n      0x20\n      add\n      0x06\n      dup3\n      add\n      sload\n      dup2\n      mstore\n      0x20\n      add\n      0x07\n      dup3\n      add\n      sload\n      dup2\n      mstore\n      0x20\n      add\n      0x08\n      dup3\n      add\n      sload\n      dup2\n      mstore\n      0x20\n      add\n      0x09\n      dup3\n      add\n      sload\n      dup2\n      mstore\n      0x20\n      add\n      0x0a\n      dup3\n      add\n      dup1\n      sload\n      tag_111\n      swap1\n      tag_64\n      jump\t// in\n    tag_111:\n      dup1\n      0x1f\n      add\n      0x20\n      dup1\n      swap2\n      div\n      mul\n      0x20\n      add\n      mload(0x40)\n      swap1\n      dup2\n      add\n      0x40\n      mstore\n      dup1\n      swap3\n      swap2\n      swap1\n      dup2\n      dup2\n      mstore\n      0x20\n      add\n      dup3\n      dup1\n      sload\n      tag_112\n      swap1\n      tag_64\n      jump\t// in\n    tag_112:\n      dup1\n      iszero\n      tag_113\n      jumpi\n      dup1\n      0x1f\n      lt\n      tag_114\n      jumpi\n      0x0100\n      dup1\n      dup4\n      sload\n      div\n      mul\n      dup4\n      mstore\n      swap2\n      0x20\n      add\n      swap2\n      jump(tag_113)\n    tag_114:\n      dup3\n      add\n      swap2\n      swap1\n      0x00\n      mstore\n      keccak256(0x00, 0x20)\n      swap1\n    tag_115:\n      dup2\n      sload\n      dup2\n      mstore\n      swap1\n      0x01\n      add\n      swap1\n      0x20\n      add\n      dup1\n      dup4\n      gt\n      tag_115\n      jumpi\n      dup3\n      swap1\n      sub\n      0x1f\n      and\n      dup3\n      add\n      swap2\n    tag_113:\n      pop\n      pop\n      pop\n      pop\n      pop\n      dup2\n      mstore\n      pop\n      pop\n      dup2\n      mstore\n      0x20\n      add\n      swap1\n      0x01\n      add\n      swap1\n      jump(tag_103)\n    tag_104:\n      pop\n      pop\n      pop\n      pop\n      swap1\n      pop\n        /* \"contracts/waterquality.sol\":2421:2552  function getDataByArea(string memory area) public view returns (WaterQualityData[] memory) {... */\n      swap2\n      swap1\n      pop\n      jump\t// out\n        /* \"contracts/waterquality.sol\":1387:2413  function _storeData(... */\n    tag_85:\n        /* \"contracts/waterquality.sol\":1757:1788  WaterQualityData memory newData */\n      0x00\n        /* \"contracts/waterquality.sol\":1791:2213  WaterQualityData({... */\n      mload(0x40)\n      dup1\n      0x0160\n      add\n      0x40\n      mstore\n      dup1\n        /* \"contracts/waterquality.sol\":1829:1833  area */\n      dup14\n        /* \"contracts/waterquality.sol\":1791:2213  WaterQualityData({... */\n      dup2\n      mstore\n      0x20\n      add\n        /* \"contracts/waterquality.sol\":1856:1862  solids */\n      dup13\n        /* \"contracts/waterquality.sol\":1791:2213  WaterQualityData({... */\n      dup2\n      mstore\n      0x20\n      add\n        /* \"contracts/waterquality.sol\":1887:1895  hardness */\n      dup12\n        /* \"contracts/waterquality.sol\":1791:2213  WaterQualityData({... */\n      dup2\n      mstore\n      0x20\n      add\n        /* \"contracts/waterquality.sol\":1914:1916  pH */\n      dup11\n        /* \"contracts/waterquality.sol\":1791:2213  WaterQualityData({... */\n      dup2\n      mstore\n      0x20\n      add\n        /* \"contracts/waterquality.sol\":1940:1947  sulfate */\n      dup10\n        /* \"contracts/waterquality.sol\":1791:2213  WaterQualityData({... */\n      dup2\n      mstore\n      0x20\n      add\n        /* \"contracts/waterquality.sol\":1975:1986  chloramines */\n      dup9\n        /* \"contracts/waterquality.sol\":1791:2213  WaterQualityData({... */\n      dup2\n      mstore\n      0x20\n      add\n        /* \"contracts/waterquality.sol\":2016:2029  organicCarbon */\n      dup8\n        /* \"contracts/waterquality.sol\":1791:2213  WaterQualityData({... */\n      dup2\n      mstore\n      0x20\n      add\n        /* \"contracts/waterquality.sol\":2061:2076  trihalomethanes */\n      dup7\n        /* \"contracts/waterquality.sol\":1791:2213  WaterQualityData({... */\n      dup2\n      mstore\n      0x20\n      add\n        /* \"contracts/waterquality.sol\":2105:2117  conductivity */\n      dup6\n        /* \"contracts/waterquality.sol\":1791:2213  WaterQualityData({... */\n      dup2\n      mstore\n      0x20\n      add\n        /* \"contracts/waterquality.sol\":2144:2154  potability */\n      dup5\n        /* \"contracts/waterquality.sol\":1791:2213  WaterQualityData({... */\n      dup2\n      mstore\n      0x20\n      add\n        /* \"contracts/waterquality.sol\":2186:2201  additionalNotes */\n      dup4\n        /* \"contracts/waterquality.sol\":1791:2213  WaterQualityData({... */\n      dup2\n      mstore\n      pop\n        /* \"contracts/waterquality.sol\":1757:2213  WaterQualityData memory newData = WaterQualityData({... */\n      swap1\n      pop\n        /* \"contracts/waterquality.sol\":2224:2232  areaData */\n      0x00\n        /* \"contracts/waterquality.sol\":2233:2237  area */\n      dup13\n        /* \"contracts/waterquality.sol\":2224:2238  areaData[area] */\n      mload(0x40)\n      tag_117\n      swap2\n      swap1\n      tag_51\n      jump\t// in\n    tag_117:\n      swap1\n      dup2\n      mstore\n      0x20\n      add\n      mload(0x40)\n      dup1\n      swap2\n      sub\n      swap1\n      keccak256\n        /* \"contracts/waterquality.sol\":2244:2251  newData */\n      dup2\n        /* \"contracts/waterquality.sol\":2224:2252  areaData[area].push(newData) */\n      swap1\n      dup1\n      0x01\n      dup2\n      sload\n      add\n      dup1\n      dup3\n      sstore\n      dup1\n      swap2\n      pop\n      pop\n      0x01\n      swap1\n      sub\n      swap1\n      0x00\n      mstore\n      keccak256(0x00, 0x20)\n      swap1\n      0x0b\n      mul\n      add\n      0x00\n      swap1\n      swap2\n      swap1\n      swap2\n      swap1\n      swap2\n      pop\n      0x00\n      dup3\n      add\n      mload\n      dup2\n      0x00\n      add\n      swap1\n      dup2\n      tag_119\n      swap2\n      swap1\n      tag_120\n      jump\t// in\n    tag_119:\n      pop\n      0x20\n      dup3\n      add\n      mload\n      dup2\n      0x01\n      add\n      sstore\n      0x40\n      dup3\n      add\n      mload\n      dup2\n      0x02\n      add\n      sstore\n      0x60\n      dup3\n      add\n      mload\n      dup2\n      0x03\n      add\n      sstore\n      0x80\n      dup3\n      add\n      mload\n      dup2\n      0x04\n      add\n      sstore\n      0xa0\n      dup3\n      add\n      mload\n      dup2\n      0x05\n      add\n      sstore\n      0xc0\n      dup3\n      add\n      mload\n      dup2\n      0x06\n      add\n      sstore\n      0xe0\n      dup3\n      add\n      mload\n      dup2\n      0x07\n      add\n      sstore\n      0x0100\n      dup3\n      add\n      mload\n      dup2\n      0x08\n      add\n      sstore\n      0x0120\n      dup3\n      add\n      mload\n      dup2\n      0x09\n      add\n      sstore\n      0x0140\n      dup3\n      add\n      mload\n      dup2\n      0x0a\n      add\n      swap1\n      dup2\n      tag_121\n      swap2\n      swap1\n      tag_120\n      jump\t// in\n    tag_121:\n      pop\n      pop\n      pop\n        /* \"contracts/waterquality.sol\":2268:2405  DataRecorded(area, solids, hardness, pH, sulfate, chloramines, organicCarbon, trihalomethanes, conductivity, potability, additionalNotes) */\n      0x301d7a373d9050944f8aefb1618f1de73dda6353a8fdf17798aaab5047270a95\n        /* \"contracts/waterquality.sol\":2281:2285  area */\n      dup13\n        /* \"contracts/waterquality.sol\":2287:2293  solids */\n      dup13\n        /* \"contracts/waterquality.sol\":2295:2303  hardness */\n      dup13\n        /* \"contracts/waterquality.sol\":2305:2307  pH */\n      dup13\n        /* \"contracts/waterquality.sol\":2309:2316  sulfate */\n      dup13\n        /* \"contracts/waterquality.sol\":2318:2329  chloramines */\n      dup13\n        /* \"contracts/waterquality.sol\":2331:2344  organicCarbon */\n      dup13\n        /* \"contracts/waterquality.sol\":2346:2361  trihalomethanes */\n      dup13\n        /* \"contracts/waterquality.sol\":2363:2375  conductivity */\n      dup13\n        /* \"contracts/waterquality.sol\":2377:2387  potability */\n      dup13\n        /* \"contracts/waterquality.sol\":2389:2404  additionalNotes */\n      dup13\n        /* \"contracts/waterquality.sol\":2268:2405  DataRecorded(area, solids, hardness, pH, sulfate, chloramines, organicCarbon, trihalomethanes, conductivity, potability, additionalNotes) */\n      mload(0x40)\n      tag_122\n      swap12\n      swap11\n      swap10\n      swap9\n      swap8\n      swap7\n      swap6\n      swap5\n      swap4\n      swap3\n      swap2\n      swap1\n      tag_40\n      jump\t// in\n    tag_122:\n      mload(0x40)\n      dup1\n      swap2\n      sub\n      swap1\n      log1\n        /* \"contracts/waterquality.sol\":1746:2413  {... */\n      pop\n        /* \"contracts/waterquality.sol\":1387:2413  function _storeData(... */\n      pop\n      pop\n      pop\n      pop\n      pop\n      pop\n      pop\n      pop\n      pop\n      pop\n      pop\n      jump\t// out\n    tag_48:\n      mload(0x40)\n      dup1\n      0x0160\n      add\n      0x40\n      mstore\n      dup1\n      0x60\n      dup2\n      mstore\n      0x20\n      add\n      0x00\n      dup2\n      mstore\n      0x20\n      add\n      0x00\n      dup2\n      mstore\n      0x20\n      add\n      0x00\n      dup2\n      mstore\n      0x20\n      add\n      0x00\n      dup2\n      mstore\n      0x20\n      add\n      0x00\n      dup2\n      mstore\n      0x20\n      add\n      0x00\n      dup2\n      mstore\n      0x20\n      add\n      0x00\n      dup2\n      mstore\n      0x20\n      add\n      0x00\n      dup2\n      mstore\n      0x20\n      add\n      0x00\n      dup2\n      mstore\n      0x20\n      add\n      0x60\n      dup2\n      mstore\n      pop\n      swap1\n      jump\t// out\n        /* \"#utility.yul\":7:84   */\n    tag_123:\n        /* \"#utility.yul\":44:51   */\n      0x00\n        /* \"#utility.yul\":73:78   */\n      dup2\n        /* \"#utility.yul\":62:78   */\n      swap1\n      pop\n        /* \"#utility.yul\":7:84   */\n      swap2\n      swap1\n      pop\n      jump\t// out\n        /* \"#utility.yul\":90:208   */\n    tag_124:\n        /* \"#utility.yul\":177:201   */\n      tag_188\n        /* \"#utility.yul\":195:200   */\n      dup2\n        /* \"#utility.yul\":177:201   */\n      tag_123\n      jump\t// in\n    tag_188:\n        /* \"#utility.yul\":172:175   */\n      dup3\n        /* \"#utility.yul\":165:202   */\n      mstore\n        /* \"#utility.yul\":90:208   */\n      pop\n      pop\n      jump\t// out\n        /* \"#utility.yul\":214:436   */\n    tag_12:\n        /* \"#utility.yul\":307:311   */\n      0x00\n        /* \"#utility.yul\":345:347   */\n      0x20\n        /* \"#utility.yul\":334:343   */\n      dup3\n        /* \"#utility.yul\":330:348   */\n      add\n        /* \"#utility.yul\":322:348   */\n      swap1\n      pop\n        /* \"#utility.yul\":358:429   */\n      tag_190\n        /* \"#utility.yul\":426:427   */\n      0x00\n        /* \"#utility.yul\":415:424   */\n      dup4\n        /* \"#utility.yul\":411:428   */\n      add\n        /* \"#utility.yul\":402:408   */\n      dup5\n        /* \"#utility.yul\":358:429   */\n      tag_124\n      jump\t// in\n    tag_190:\n        /* \"#utility.yul\":214:436   */\n      swap3\n      swap2\n      pop\n      pop\n      jump\t// out\n        /* \"#utility.yul\":442:517   */\n    tag_125:\n        /* \"#utility.yul\":475:481   */\n      0x00\n        /* \"#utility.yul\":508:510   */\n      0x40\n        /* \"#utility.yul\":502:511   */\n      mload\n        /* \"#utility.yul\":492:511   */\n      swap1\n      pop\n        /* \"#utility.yul\":442:517   */\n      swap1\n      jump\t// out\n        /* \"#utility.yul\":523:640   */\n    tag_126:\n        /* \"#utility.yul\":632:633   */\n      0x00\n        /* \"#utility.yul\":629:630   */\n      dup1\n        /* \"#utility.yul\":622:634   */\n      revert\n        /* \"#utility.yul\":646:763   */\n    tag_127:\n        /* \"#utility.yul\":755:756   */\n      0x00\n        /* \"#utility.yul\":752:753   */\n      dup1\n        /* \"#utility.yul\":745:757   */\n      revert\n        /* \"#utility.yul\":769:886   */\n    tag_128:\n        /* \"#utility.yul\":878:879   */\n      0x00\n        /* \"#utility.yul\":875:876   */\n      dup1\n        /* \"#utility.yul\":868:880   */\n      revert\n        /* \"#utility.yul\":892:1009   */\n    tag_129:\n        /* \"#utility.yul\":1001:1002   */\n      0x00\n        /* \"#utility.yul\":998:999   */\n      dup1\n        /* \"#utility.yul\":991:1003   */\n      revert\n        /* \"#utility.yul\":1015:1117   */\n    tag_130:\n        /* \"#utility.yul\":1056:1062   */\n      0x00\n        /* \"#utility.yul\":1107:1109   */\n      0x1f\n        /* \"#utility.yul\":1103:1110   */\n      not\n        /* \"#utility.yul\":1098:1100   */\n      0x1f\n        /* \"#utility.yul\":1091:1096   */\n      dup4\n        /* \"#utility.yul\":1087:1101   */\n      add\n        /* \"#utility.yul\":1083:1111   */\n      and\n        /* \"#utility.yul\":1073:1111   */\n      swap1\n      pop\n        /* \"#utility.yul\":1015:1117   */\n      swap2\n      swap1\n      pop\n      jump\t// out\n        /* \"#utility.yul\":1123:1303   */\n    tag_131:\n        /* \"#utility.yul\":1171:1248   */\n      0x4e487b7100000000000000000000000000000000000000000000000000000000\n        /* \"#utility.yul\":1168:1169   */\n      0x00\n        /* \"#utility.yul\":1161:1249   */\n      mstore\n        /* \"#utility.yul\":1268:1272   */\n      0x41\n        /* \"#utility.yul\":1265:1266   */\n      0x04\n        /* \"#utility.yul\":1258:1273   */\n      mstore\n        /* \"#utility.yul\":1292:1296   */\n      0x24\n        /* \"#utility.yul\":1289:1290   */\n      0x00\n        /* \"#utility.yul\":1282:1297   */\n      revert\n        /* \"#utility.yul\":1309:1590   */\n    tag_132:\n        /* \"#utility.yul\":1392:1419   */\n      tag_199\n        /* \"#utility.yul\":1414:1418   */\n      dup3\n        /* \"#utility.yul\":1392:1419   */\n      tag_130\n      jump\t// in\n    tag_199:\n        /* \"#utility.yul\":1384:1390   */\n      dup2\n        /* \"#utility.yul\":1380:1420   */\n      add\n        /* \"#utility.yul\":1522:1528   */\n      dup2\n        /* \"#utility.yul\":1510:1520   */\n      dup2\n        /* \"#utility.yul\":1507:1529   */\n      lt\n        /* \"#utility.yul\":1486:1504   */\n      0xffffffffffffffff\n        /* \"#utility.yul\":1474:1484   */\n      dup3\n        /* \"#utility.yul\":1471:1505   */\n      gt\n        /* \"#utility.yul\":1468:1530   */\n      or\n        /* \"#utility.yul\":1465:1553   */\n      iszero\n      tag_200\n      jumpi\n        /* \"#utility.yul\":1533:1551   */\n      tag_201\n      tag_131\n      jump\t// in\n    tag_201:\n        /* \"#utility.yul\":1465:1553   */\n    tag_200:\n        /* \"#utility.yul\":1573:1583   */\n      dup1\n        /* \"#utility.yul\":1569:1571   */\n      0x40\n        /* \"#utility.yul\":1562:1584   */\n      mstore\n        /* \"#utility.yul\":1352:1590   */\n      pop\n        /* \"#utility.yul\":1309:1590   */\n      pop\n      pop\n      jump\t// out\n        /* \"#utility.yul\":1596:1725   */\n    tag_133:\n        /* \"#utility.yul\":1630:1636   */\n      0x00\n        /* \"#utility.yul\":1657:1677   */\n      tag_203\n      tag_125\n      jump\t// in\n    tag_203:\n        /* \"#utility.yul\":1647:1677   */\n      swap1\n      pop\n        /* \"#utility.yul\":1686:1719   */\n      tag_204\n        /* \"#utility.yul\":1714:1718   */\n      dup3\n        /* \"#utility.yul\":1706:1712   */\n      dup3\n        /* \"#utility.yul\":1686:1719   */\n      tag_132\n      jump\t// in\n    tag_204:\n        /* \"#utility.yul\":1596:1725   */\n      swap2\n      swap1\n      pop\n      jump\t// out\n        /* \"#utility.yul\":1731:2039   */\n    tag_134:\n        /* \"#utility.yul\":1793:1797   */\n      0x00\n        /* \"#utility.yul\":1883:1901   */\n      0xffffffffffffffff\n        /* \"#utility.yul\":1875:1881   */\n      dup3\n        /* \"#utility.yul\":1872:1902   */\n      gt\n        /* \"#utility.yul\":1869:1925   */\n      iszero\n      tag_206\n      jumpi\n        /* \"#utility.yul\":1905:1923   */\n      tag_207\n      tag_131\n      jump\t// in\n    tag_207:\n        /* \"#utility.yul\":1869:1925   */\n    tag_206:\n        /* \"#utility.yul\":1943:1972   */\n      tag_208\n        /* \"#utility.yul\":1965:1971   */\n      dup3\n        /* \"#utility.yul\":1943:1972   */\n      tag_130\n      jump\t// in\n    tag_208:\n        /* \"#utility.yul\":1935:1972   */\n      swap1\n      pop\n        /* \"#utility.yul\":2027:2031   */\n      0x20\n        /* \"#utility.yul\":2021:2025   */\n      dup2\n        /* \"#utility.yul\":2017:2032   */\n      add\n        /* \"#utility.yul\":2009:2032   */\n      swap1\n      pop\n        /* \"#utility.yul\":1731:2039   */\n      swap2\n      swap1\n      pop\n      jump\t// out\n        /* \"#utility.yul\":2045:2193   */\n    tag_135:\n        /* \"#utility.yul\":2143:2149   */\n      dup3\n        /* \"#utility.yul\":2138:2141   */\n      dup2\n        /* \"#utility.yul\":2133:2136   */\n      dup4\n        /* \"#utility.yul\":2120:2150   */\n      calldatacopy\n        /* \"#utility.yul\":2184:2185   */\n      0x00\n        /* \"#utility.yul\":2175:2181   */\n      dup4\n        /* \"#utility.yul\":2170:2173   */\n      dup4\n        /* \"#utility.yul\":2166:2182   */\n      add\n        /* \"#utility.yul\":2159:2186   */\n      mstore\n        /* \"#utility.yul\":2045:2193   */\n      pop\n      pop\n      pop\n      jump\t// out\n        /* \"#utility.yul\":2199:2624   */\n    tag_136:\n        /* \"#utility.yul\":2277:2282   */\n      0x00\n        /* \"#utility.yul\":2302:2368   */\n      tag_211\n        /* \"#utility.yul\":2318:2367   */\n      tag_212\n        /* \"#utility.yul\":2360:2366   */\n      dup5\n        /* \"#utility.yul\":2318:2367   */\n      tag_134\n      jump\t// in\n    tag_212:\n        /* \"#utility.yul\":2302:2368   */\n      tag_133\n      jump\t// in\n    tag_211:\n        /* \"#utility.yul\":2293:2368   */\n      swap1\n      pop\n        /* \"#utility.yul\":2391:2397   */\n      dup3\n        /* \"#utility.yul\":2384:2389   */\n      dup2\n        /* \"#utility.yul\":2377:2398   */\n      mstore\n        /* \"#utility.yul\":2429:2433   */\n      0x20\n        /* \"#utility.yul\":2422:2427   */\n      dup2\n        /* \"#utility.yul\":2418:2434   */\n      add\n        /* \"#utility.yul\":2467:2470   */\n      dup5\n        /* \"#utility.yul\":2458:2464   */\n      dup5\n        /* \"#utility.yul\":2453:2456   */\n      dup5\n        /* \"#utility.yul\":2449:2465   */\n      add\n        /* \"#utility.yul\":2446:2471   */\n      gt\n        /* \"#utility.yul\":2443:2555   */\n      iszero\n      tag_213\n      jumpi\n        /* \"#utility.yul\":2474:2553   */\n      tag_214\n      tag_129\n      jump\t// in\n    tag_214:\n        /* \"#utility.yul\":2443:2555   */\n    tag_213:\n        /* \"#utility.yul\":2564:2618   */\n      tag_215\n        /* \"#utility.yul\":2611:2617   */\n      dup5\n        /* \"#utility.yul\":2606:2609   */\n      dup3\n        /* \"#utility.yul\":2601:2604   */\n      dup6\n        /* \"#utility.yul\":2564:2618   */\n      tag_135\n      jump\t// in\n    tag_215:\n        /* \"#utility.yul\":2283:2624   */\n      pop\n        /* \"#utility.yul\":2199:2624   */\n      swap4\n      swap3\n      pop\n      pop\n      pop\n      jump\t// out\n        /* \"#utility.yul\":2644:2984   */\n    tag_137:\n        /* \"#utility.yul\":2700:2705   */\n      0x00\n        /* \"#utility.yul\":2749:2752   */\n      dup3\n        /* \"#utility.yul\":2742:2746   */\n      0x1f\n        /* \"#utility.yul\":2734:2740   */\n      dup4\n        /* \"#utility.yul\":2730:2747   */\n      add\n        /* \"#utility.yul\":2726:2753   */\n      slt\n        /* \"#utility.yul\":2716:2838   */\n      tag_217\n      jumpi\n        /* \"#utility.yul\":2757:2836   */\n      tag_218\n      tag_128\n      jump\t// in\n    tag_218:\n        /* \"#utility.yul\":2716:2838   */\n    tag_217:\n        /* \"#utility.yul\":2874:2880   */\n      dup2\n        /* \"#utility.yul\":2861:2881   */\n      calldataload\n        /* \"#utility.yul\":2899:2978   */\n      tag_219\n        /* \"#utility.yul\":2974:2977   */\n      dup5\n        /* \"#utility.yul\":2966:2972   */\n      dup3\n        /* \"#utility.yul\":2959:2963   */\n      0x20\n        /* \"#utility.yul\":2951:2957   */\n      dup7\n        /* \"#utility.yul\":2947:2964   */\n      add\n        /* \"#utility.yul\":2899:2978   */\n      tag_136\n      jump\t// in\n    tag_219:\n        /* \"#utility.yul\":2890:2978   */\n      swap2\n      pop\n        /* \"#utility.yul\":2706:2984   */\n      pop\n        /* \"#utility.yul\":2644:2984   */\n      swap3\n      swap2\n      pop\n      pop\n      jump\t// out\n        /* \"#utility.yul\":2990:3499   */\n    tag_19:\n        /* \"#utility.yul\":3059:3065   */\n      0x00\n        /* \"#utility.yul\":3108:3110   */\n      0x20\n        /* \"#utility.yul\":3096:3105   */\n      dup3\n        /* \"#utility.yul\":3087:3094   */\n      dup5\n        /* \"#utility.yul\":3083:3106   */\n      sub\n        /* \"#utility.yul\":3079:3111   */\n      slt\n        /* \"#utility.yul\":3076:3195   */\n      iszero\n      tag_221\n      jumpi\n        /* \"#utility.yul\":3114:3193   */\n      tag_222\n      tag_126\n      jump\t// in\n    tag_222:\n        /* \"#utility.yul\":3076:3195   */\n    tag_221:\n        /* \"#utility.yul\":3262:3263   */\n      0x00\n        /* \"#utility.yul\":3251:3260   */\n      dup3\n        /* \"#utility.yul\":3247:3264   */\n      add\n        /* \"#utility.yul\":3234:3265   */\n      calldataload\n        /* \"#utility.yul\":3292:3310   */\n      0xffffffffffffffff\n        /* \"#utility.yul\":3284:3290   */\n      dup2\n        /* \"#utility.yul\":3281:3311   */\n      gt\n        /* \"#utility.yul\":3278:3395   */\n      iszero\n      tag_223\n      jumpi\n        /* \"#utility.yul\":3314:3393   */\n      tag_224\n      tag_127\n      jump\t// in\n    tag_224:\n        /* \"#utility.yul\":3278:3395   */\n    tag_223:\n        /* \"#utility.yul\":3419:3482   */\n      tag_225\n        /* \"#utility.yul\":3474:3481   */\n      dup5\n        /* \"#utility.yul\":3465:3471   */\n      dup3\n        /* \"#utility.yul\":3454:3463   */\n      dup6\n        /* \"#utility.yul\":3450:3472   */\n      add\n        /* \"#utility.yul\":3419:3482   */\n      tag_137\n      jump\t// in\n    tag_225:\n        /* \"#utility.yul\":3409:3482   */\n      swap2\n      pop\n        /* \"#utility.yul\":3205:3492   */\n      pop\n        /* \"#utility.yul\":2990:3499   */\n      swap3\n      swap2\n      pop\n      pop\n      jump\t// out\n        /* \"#utility.yul\":3505:3604   */\n    tag_138:\n        /* \"#utility.yul\":3557:3563   */\n      0x00\n        /* \"#utility.yul\":3591:3596   */\n      dup2\n        /* \"#utility.yul\":3585:3597   */\n      mload\n        /* \"#utility.yul\":3575:3597   */\n      swap1\n      pop\n        /* \"#utility.yul\":3505:3604   */\n      swap2\n      swap1\n      pop\n      jump\t// out\n        /* \"#utility.yul\":3610:3769   */\n    tag_139:\n        /* \"#utility.yul\":3684:3695   */\n      0x00\n        /* \"#utility.yul\":3718:3724   */\n      dup3\n        /* \"#utility.yul\":3713:3716   */\n      dup3\n        /* \"#utility.yul\":3706:3725   */\n      mstore\n        /* \"#utility.yul\":3758:3762   */\n      0x20\n        /* \"#utility.yul\":3753:3756   */\n      dup3\n        /* \"#utility.yul\":3749:3763   */\n      add\n        /* \"#utility.yul\":3734:3763   */\n      swap1\n      pop\n        /* \"#utility.yul\":3610:3769   */\n      swap3\n      swap2\n      pop\n      pop\n      jump\t// out\n        /* \"#utility.yul\":3775:3914   */\n    tag_140:\n        /* \"#utility.yul\":3864:3870   */\n      dup3\n        /* \"#utility.yul\":3859:3862   */\n      dup2\n        /* \"#utility.yul\":3854:3857   */\n      dup4\n        /* \"#utility.yul\":3848:3871   */\n      mcopy\n        /* \"#utility.yul\":3905:3906   */\n      0x00\n        /* \"#utility.yul\":3896:3902   */\n      dup4\n        /* \"#utility.yul\":3891:3894   */\n      dup4\n        /* \"#utility.yul\":3887:3903   */\n      add\n        /* \"#utility.yul\":3880:3907   */\n      mstore\n        /* \"#utility.yul\":3775:3914   */\n      pop\n      pop\n      pop\n      jump\t// out\n        /* \"#utility.yul\":3920:4277   */\n    tag_141:\n        /* \"#utility.yul\":3998:4001   */\n      0x00\n        /* \"#utility.yul\":4026:4065   */\n      tag_230\n        /* \"#utility.yul\":4059:4064   */\n      dup3\n        /* \"#utility.yul\":4026:4065   */\n      tag_138\n      jump\t// in\n    tag_230:\n        /* \"#utility.yul\":4081:4142   */\n      tag_231\n        /* \"#utility.yul\":4135:4141   */\n      dup2\n        /* \"#utility.yul\":4130:4133   */\n      dup6\n        /* \"#utility.yul\":4081:4142   */\n      tag_139\n      jump\t// in\n    tag_231:\n        /* \"#utility.yul\":4074:4142   */\n      swap4\n      pop\n        /* \"#utility.yul\":4151:4216   */\n      tag_232\n        /* \"#utility.yul\":4209:4215   */\n      dup2\n        /* \"#utility.yul\":4204:4207   */\n      dup6\n        /* \"#utility.yul\":4197:4201   */\n      0x20\n        /* \"#utility.yul\":4190:4195   */\n      dup7\n        /* \"#utility.yul\":4186:4202   */\n      add\n        /* \"#utility.yul\":4151:4216   */\n      tag_140\n      jump\t// in\n    tag_232:\n        /* \"#utility.yul\":4241:4270   */\n      tag_233\n        /* \"#utility.yul\":4263:4269   */\n      dup2\n        /* \"#utility.yul\":4241:4270   */\n      tag_130\n      jump\t// in\n    tag_233:\n        /* \"#utility.yul\":4236:4239   */\n      dup5\n        /* \"#utility.yul\":4232:4271   */\n      add\n        /* \"#utility.yul\":4225:4271   */\n      swap2\n      pop\n        /* \"#utility.yul\":4002:4277   */\n      pop\n        /* \"#utility.yul\":3920:4277   */\n      swap3\n      swap2\n      pop\n      pop\n      jump\t// out\n        /* \"#utility.yul\":4283:4391   */\n    tag_142:\n        /* \"#utility.yul\":4360:4384   */\n      tag_235\n        /* \"#utility.yul\":4378:4383   */\n      dup2\n        /* \"#utility.yul\":4360:4384   */\n      tag_123\n      jump\t// in\n    tag_235:\n        /* \"#utility.yul\":4355:4358   */\n      dup3\n        /* \"#utility.yul\":4348:4385   */\n      mstore\n        /* \"#utility.yul\":4283:4391   */\n      pop\n      pop\n      jump\t// out\n        /* \"#utility.yul\":4397:4473   */\n    tag_143:\n        /* \"#utility.yul\":4433:4440   */\n      0x00\n        /* \"#utility.yul\":4462:4467   */\n      dup2\n        /* \"#utility.yul\":4451:4467   */\n      swap1\n      pop\n        /* \"#utility.yul\":4397:4473   */\n      swap2\n      swap1\n      pop\n      jump\t// out\n        /* \"#utility.yul\":4479:4584   */\n    tag_144:\n        /* \"#utility.yul\":4554:4577   */\n      tag_238\n        /* \"#utility.yul\":4571:4576   */\n      dup2\n        /* \"#utility.yul\":4554:4577   */\n      tag_143\n      jump\t// in\n    tag_238:\n        /* \"#utility.yul\":4549:4552   */\n      dup3\n        /* \"#utility.yul\":4542:4578   */\n      mstore\n        /* \"#utility.yul\":4479:4584   */\n      pop\n      pop\n      jump\t// out\n        /* \"#utility.yul\":4674:7002   */\n    tag_145:\n        /* \"#utility.yul\":4807:4810   */\n      0x00\n        /* \"#utility.yul\":4843:4849   */\n      0x0160\n        /* \"#utility.yul\":4838:4841   */\n      dup4\n        /* \"#utility.yul\":4834:4850   */\n      add\n        /* \"#utility.yul\":4932:4936   */\n      0x00\n        /* \"#utility.yul\":4925:4930   */\n      dup4\n        /* \"#utility.yul\":4921:4937   */\n      add\n        /* \"#utility.yul\":4915:4938   */\n      mload\n        /* \"#utility.yul\":4985:4988   */\n      dup5\n        /* \"#utility.yul\":4979:4983   */\n      dup3\n        /* \"#utility.yul\":4975:4989   */\n      sub\n        /* \"#utility.yul\":4968:4972   */\n      0x00\n        /* \"#utility.yul\":4963:4966   */\n      dup7\n        /* \"#utility.yul\":4959:4973   */\n      add\n        /* \"#utility.yul\":4952:4990   */\n      mstore\n        /* \"#utility.yul\":5011:5084   */\n      tag_240\n        /* \"#utility.yul\":5079:5083   */\n      dup3\n        /* \"#utility.yul\":5065:5077   */\n      dup3\n        /* \"#utility.yul\":5011:5084   */\n      tag_141\n      jump\t// in\n    tag_240:\n        /* \"#utility.yul\":5003:5084   */\n      swap2\n      pop\n        /* \"#utility.yul\":4860:5095   */\n      pop\n        /* \"#utility.yul\":5179:5183   */\n      0x20\n        /* \"#utility.yul\":5172:5177   */\n      dup4\n        /* \"#utility.yul\":5168:5184   */\n      add\n        /* \"#utility.yul\":5162:5185   */\n      mload\n        /* \"#utility.yul\":5198:5261   */\n      tag_241\n        /* \"#utility.yul\":5255:5259   */\n      0x20\n        /* \"#utility.yul\":5250:5253   */\n      dup7\n        /* \"#utility.yul\":5246:5260   */\n      add\n        /* \"#utility.yul\":5232:5244   */\n      dup3\n        /* \"#utility.yul\":5198:5261   */\n      tag_142\n      jump\t// in\n    tag_241:\n        /* \"#utility.yul\":5105:5271   */\n      pop\n        /* \"#utility.yul\":5357:5361   */\n      0x40\n        /* \"#utility.yul\":5350:5355   */\n      dup4\n        /* \"#utility.yul\":5346:5362   */\n      add\n        /* \"#utility.yul\":5340:5363   */\n      mload\n        /* \"#utility.yul\":5376:5439   */\n      tag_242\n        /* \"#utility.yul\":5433:5437   */\n      0x40\n        /* \"#utility.yul\":5428:5431   */\n      dup7\n        /* \"#utility.yul\":5424:5438   */\n      add\n        /* \"#utility.yul\":5410:5422   */\n      dup3\n        /* \"#utility.yul\":5376:5439   */\n      tag_142\n      jump\t// in\n    tag_242:\n        /* \"#utility.yul\":5281:5449   */\n      pop\n        /* \"#utility.yul\":5529:5533   */\n      0x60\n        /* \"#utility.yul\":5522:5527   */\n      dup4\n        /* \"#utility.yul\":5518:5534   */\n      add\n        /* \"#utility.yul\":5512:5535   */\n      mload\n        /* \"#utility.yul\":5548:5611   */\n      tag_243\n        /* \"#utility.yul\":5605:5609   */\n      0x60\n        /* \"#utility.yul\":5600:5603   */\n      dup7\n        /* \"#utility.yul\":5596:5610   */\n      add\n        /* \"#utility.yul\":5582:5594   */\n      dup3\n        /* \"#utility.yul\":5548:5611   */\n      tag_142\n      jump\t// in\n    tag_243:\n        /* \"#utility.yul\":5459:5621   */\n      pop\n        /* \"#utility.yul\":5706:5710   */\n      0x80\n        /* \"#utility.yul\":5699:5704   */\n      dup4\n        /* \"#utility.yul\":5695:5711   */\n      add\n        /* \"#utility.yul\":5689:5712   */\n      mload\n        /* \"#utility.yul\":5725:5788   */\n      tag_244\n        /* \"#utility.yul\":5782:5786   */\n      0x80\n        /* \"#utility.yul\":5777:5780   */\n      dup7\n        /* \"#utility.yul\":5773:5787   */\n      add\n        /* \"#utility.yul\":5759:5771   */\n      dup3\n        /* \"#utility.yul\":5725:5788   */\n      tag_142\n      jump\t// in\n    tag_244:\n        /* \"#utility.yul\":5631:5798   */\n      pop\n        /* \"#utility.yul\":5887:5891   */\n      0xa0\n        /* \"#utility.yul\":5880:5885   */\n      dup4\n        /* \"#utility.yul\":5876:5892   */\n      add\n        /* \"#utility.yul\":5870:5893   */\n      mload\n        /* \"#utility.yul\":5906:5969   */\n      tag_245\n        /* \"#utility.yul\":5963:5967   */\n      0xa0\n        /* \"#utility.yul\":5958:5961   */\n      dup7\n        /* \"#utility.yul\":5954:5968   */\n      add\n        /* \"#utility.yul\":5940:5952   */\n      dup3\n        /* \"#utility.yul\":5906:5969   */\n      tag_142\n      jump\t// in\n    tag_245:\n        /* \"#utility.yul\":5808:5979   */\n      pop\n        /* \"#utility.yul\":6070:6074   */\n      0xc0\n        /* \"#utility.yul\":6063:6068   */\n      dup4\n        /* \"#utility.yul\":6059:6075   */\n      add\n        /* \"#utility.yul\":6053:6076   */\n      mload\n        /* \"#utility.yul\":6089:6152   */\n      tag_246\n        /* \"#utility.yul\":6146:6150   */\n      0xc0\n        /* \"#utility.yul\":6141:6144   */\n      dup7\n        /* \"#utility.yul\":6137:6151   */\n      add\n        /* \"#utility.yul\":6123:6135   */\n      dup3\n        /* \"#utility.yul\":6089:6152   */\n      tag_142\n      jump\t// in\n    tag_246:\n        /* \"#utility.yul\":5989:6162   */\n      pop\n        /* \"#utility.yul\":6255:6259   */\n      0xe0\n        /* \"#utility.yul\":6248:6253   */\n      dup4\n        /* \"#utility.yul\":6244:6260   */\n      add\n        /* \"#utility.yul\":6238:6261   */\n      mload\n        /* \"#utility.yul\":6274:6337   */\n      tag_247\n        /* \"#utility.yul\":6331:6335   */\n      0xe0\n        /* \"#utility.yul\":6326:6329   */\n      dup7\n        /* \"#utility.yul\":6322:6336   */\n      add\n        /* \"#utility.yul\":6308:6320   */\n      dup3\n        /* \"#utility.yul\":6274:6337   */\n      tag_142\n      jump\t// in\n    tag_247:\n        /* \"#utility.yul\":6172:6347   */\n      pop\n        /* \"#utility.yul\":6437:6443   */\n      0x0100\n        /* \"#utility.yul\":6430:6435   */\n      dup4\n        /* \"#utility.yul\":6426:6444   */\n      add\n        /* \"#utility.yul\":6420:6445   */\n      mload\n        /* \"#utility.yul\":6458:6523   */\n      tag_248\n        /* \"#utility.yul\":6515:6521   */\n      0x0100\n        /* \"#utility.yul\":6510:6513   */\n      dup7\n        /* \"#utility.yul\":6506:6522   */\n      add\n        /* \"#utility.yul\":6492:6504   */\n      dup3\n        /* \"#utility.yul\":6458:6523   */\n      tag_142\n      jump\t// in\n    tag_248:\n        /* \"#utility.yul\":6357:6533   */\n      pop\n        /* \"#utility.yul\":6621:6627   */\n      0x0120\n        /* \"#utility.yul\":6614:6619   */\n      dup4\n        /* \"#utility.yul\":6610:6628   */\n      add\n        /* \"#utility.yul\":6604:6629   */\n      mload\n        /* \"#utility.yul\":6642:6705   */\n      tag_249\n        /* \"#utility.yul\":6697:6703   */\n      0x0120\n        /* \"#utility.yul\":6692:6695   */\n      dup7\n        /* \"#utility.yul\":6688:6704   */\n      add\n        /* \"#utility.yul\":6674:6686   */\n      dup3\n        /* \"#utility.yul\":6642:6705   */\n      tag_144\n      jump\t// in\n    tag_249:\n        /* \"#utility.yul\":6543:6715   */\n      pop\n        /* \"#utility.yul\":6808:6814   */\n      0x0140\n        /* \"#utility.yul\":6801:6806   */\n      dup4\n        /* \"#utility.yul\":6797:6815   */\n      add\n        /* \"#utility.yul\":6791:6816   */\n      mload\n        /* \"#utility.yul\":6865:6868   */\n      dup5\n        /* \"#utility.yul\":6859:6863   */\n      dup3\n        /* \"#utility.yul\":6855:6869   */\n      sub\n        /* \"#utility.yul\":6846:6852   */\n      0x0140\n        /* \"#utility.yul\":6841:6844   */\n      dup7\n        /* \"#utility.yul\":6837:6853   */\n      add\n        /* \"#utility.yul\":6830:6870   */\n      mstore\n        /* \"#utility.yul\":6891:6964   */\n      tag_250\n        /* \"#utility.yul\":6959:6963   */\n      dup3\n        /* \"#utility.yul\":6945:6957   */\n      dup3\n        /* \"#utility.yul\":6891:6964   */\n      tag_141\n      jump\t// in\n    tag_250:\n        /* \"#utility.yul\":6883:6964   */\n      swap2\n      pop\n        /* \"#utility.yul\":6725:6975   */\n      pop\n        /* \"#utility.yul\":6992:6996   */\n      dup1\n        /* \"#utility.yul\":6985:6996   */\n      swap2\n      pop\n        /* \"#utility.yul\":4812:7002   */\n      pop\n        /* \"#utility.yul\":4674:7002   */\n      swap3\n      swap2\n      pop\n      pop\n      jump\t// out\n        /* \"#utility.yul\":7008:7409   */\n    tag_22:\n        /* \"#utility.yul\":7165:7169   */\n      0x00\n        /* \"#utility.yul\":7203:7205   */\n      0x20\n        /* \"#utility.yul\":7192:7201   */\n      dup3\n        /* \"#utility.yul\":7188:7206   */\n      add\n        /* \"#utility.yul\":7180:7206   */\n      swap1\n      pop\n        /* \"#utility.yul\":7252:7261   */\n      dup2\n        /* \"#utility.yul\":7246:7250   */\n      dup2\n        /* \"#utility.yul\":7242:7262   */\n      sub\n        /* \"#utility.yul\":7238:7239   */\n      0x00\n        /* \"#utility.yul\":7227:7236   */\n      dup4\n        /* \"#utility.yul\":7223:7240   */\n      add\n        /* \"#utility.yul\":7216:7263   */\n      mstore\n        /* \"#utility.yul\":7280:7402   */\n      tag_252\n        /* \"#utility.yul\":7397:7401   */\n      dup2\n        /* \"#utility.yul\":7388:7394   */\n      dup5\n        /* \"#utility.yul\":7280:7402   */\n      tag_145\n      jump\t// in\n    tag_252:\n        /* \"#utility.yul\":7272:7402   */\n      swap1\n      pop\n        /* \"#utility.yul\":7008:7409   */\n      swap3\n      swap2\n      pop\n      pop\n      jump\t// out\n        /* \"#utility.yul\":7415:7537   */\n    tag_146:\n        /* \"#utility.yul\":7488:7512   */\n      tag_254\n        /* \"#utility.yul\":7506:7511   */\n      dup2\n        /* \"#utility.yul\":7488:7512   */\n      tag_123\n      jump\t// in\n    tag_254:\n        /* \"#utility.yul\":7481:7486   */\n      dup2\n        /* \"#utility.yul\":7478:7513   */\n      eq\n        /* \"#utility.yul\":7468:7531   */\n      tag_255\n      jumpi\n        /* \"#utility.yul\":7527:7528   */\n      0x00\n        /* \"#utility.yul\":7524:7525   */\n      dup1\n        /* \"#utility.yul\":7517:7529   */\n      revert\n        /* \"#utility.yul\":7468:7531   */\n    tag_255:\n        /* \"#utility.yul\":7415:7537   */\n      pop\n      jump\t// out\n        /* \"#utility.yul\":7543:7682   */\n    tag_147:\n        /* \"#utility.yul\":7589:7594   */\n      0x00\n        /* \"#utility.yul\":7627:7633   */\n      dup2\n        /* \"#utility.yul\":7614:7634   */\n      calldataload\n        /* \"#utility.yul\":7605:7634   */\n      swap1\n      pop\n        /* \"#utility.yul\":7643:7676   */\n      tag_257\n        /* \"#utility.yul\":7670:7675   */\n      dup2\n        /* \"#utility.yul\":7643:7676   */\n      tag_146\n      jump\t// in\n    tag_257:\n        /* \"#utility.yul\":7543:7682   */\n      swap3\n      swap2\n      pop\n      pop\n      jump\t// out\n        /* \"#utility.yul\":7688:7808   */\n    tag_148:\n        /* \"#utility.yul\":7760:7783   */\n      tag_259\n        /* \"#utility.yul\":7777:7782   */\n      dup2\n        /* \"#utility.yul\":7760:7783   */\n      tag_143\n      jump\t// in\n    tag_259:\n        /* \"#utility.yul\":7753:7758   */\n      dup2\n        /* \"#utility.yul\":7750:7784   */\n      eq\n        /* \"#utility.yul\":7740:7802   */\n      tag_260\n      jumpi\n        /* \"#utility.yul\":7798:7799   */\n      0x00\n        /* \"#utility.yul\":7795:7796   */\n      dup1\n        /* \"#utility.yul\":7788:7800   */\n      revert\n        /* \"#utility.yul\":7740:7802   */\n    tag_260:\n        /* \"#utility.yul\":7688:7808   */\n      pop\n      jump\t// out\n        /* \"#utility.yul\":7814:7951   */\n    tag_149:\n        /* \"#utility.yul\":7859:7864   */\n      0x00\n        /* \"#utility.yul\":7897:7903   */\n      dup2\n        /* \"#utility.yul\":7884:7904   */\n      calldataload\n        /* \"#utility.yul\":7875:7904   */\n      swap1\n      pop\n        /* \"#utility.yul\":7913:7945   */\n      tag_262\n        /* \"#utility.yul\":7939:7944   */\n      dup2\n        /* \"#utility.yul\":7913:7945   */\n      tag_148\n      jump\t// in\n    tag_262:\n        /* \"#utility.yul\":7814:7951   */\n      swap3\n      swap2\n      pop\n      pop\n      jump\t// out\n        /* \"#utility.yul\":7957:10104   */\n    tag_28:\n        /* \"#utility.yul\":8125:8131   */\n      0x00\n        /* \"#utility.yul\":8133:8139   */\n      dup1\n        /* \"#utility.yul\":8141:8147   */\n      0x00\n        /* \"#utility.yul\":8149:8155   */\n      dup1\n        /* \"#utility.yul\":8157:8163   */\n      0x00\n        /* \"#utility.yul\":8165:8171   */\n      dup1\n        /* \"#utility.yul\":8173:8179   */\n      0x00\n        /* \"#utility.yul\":8181:8187   */\n      dup1\n        /* \"#utility.yul\":8189:8195   */\n      0x00\n        /* \"#utility.yul\":8197:8203   */\n      dup1\n        /* \"#utility.yul\":8205:8212   */\n      0x00\n        /* \"#utility.yul\":8255:8258   */\n      0x0160\n        /* \"#utility.yul\":8243:8252   */\n      dup13\n        /* \"#utility.yul\":8234:8241   */\n      dup15\n        /* \"#utility.yul\":8230:8253   */\n      sub\n        /* \"#utility.yul\":8226:8259   */\n      slt\n        /* \"#utility.yul\":8223:8343   */\n      iszero\n      tag_264\n      jumpi\n        /* \"#utility.yul\":8262:8341   */\n      tag_265\n      tag_126\n      jump\t// in\n    tag_265:\n        /* \"#utility.yul\":8223:8343   */\n    tag_264:\n        /* \"#utility.yul\":8410:8411   */\n      0x00\n        /* \"#utility.yul\":8399:8408   */\n      dup13\n        /* \"#utility.yul\":8395:8412   */\n      add\n        /* \"#utility.yul\":8382:8413   */\n      calldataload\n        /* \"#utility.yul\":8440:8458   */\n      0xffffffffffffffff\n        /* \"#utility.yul\":8432:8438   */\n      dup2\n        /* \"#utility.yul\":8429:8459   */\n      gt\n        /* \"#utility.yul\":8426:8543   */\n      iszero\n      tag_266\n      jumpi\n        /* \"#utility.yul\":8462:8541   */\n      tag_267\n      tag_127\n      jump\t// in\n    tag_267:\n        /* \"#utility.yul\":8426:8543   */\n    tag_266:\n        /* \"#utility.yul\":8567:8630   */\n      tag_268\n        /* \"#utility.yul\":8622:8629   */\n      dup15\n        /* \"#utility.yul\":8613:8619   */\n      dup3\n        /* \"#utility.yul\":8602:8611   */\n      dup16\n        /* \"#utility.yul\":8598:8620   */\n      add\n        /* \"#utility.yul\":8567:8630   */\n      tag_137\n      jump\t// in\n    tag_268:\n        /* \"#utility.yul\":8557:8630   */\n      swap12\n      pop\n        /* \"#utility.yul\":8353:8640   */\n      pop\n        /* \"#utility.yul\":8679:8681   */\n      0x20\n        /* \"#utility.yul\":8705:8758   */\n      tag_269\n        /* \"#utility.yul\":8750:8757   */\n      dup15\n        /* \"#utility.yul\":8741:8747   */\n      dup3\n        /* \"#utility.yul\":8730:8739   */\n      dup16\n        /* \"#utility.yul\":8726:8748   */\n      add\n        /* \"#utility.yul\":8705:8758   */\n      tag_147\n      jump\t// in\n    tag_269:\n        /* \"#utility.yul\":8695:8758   */\n      swap11\n      pop\n        /* \"#utility.yul\":8650:8768   */\n      pop\n        /* \"#utility.yul\":8807:8809   */\n      0x40\n        /* \"#utility.yul\":8833:8886   */\n      tag_270\n        /* \"#utility.yul\":8878:8885   */\n      dup15\n        /* \"#utility.yul\":8869:8875   */\n      dup3\n        /* \"#utility.yul\":8858:8867   */\n      dup16\n        /* \"#utility.yul\":8854:8876   */\n      add\n        /* \"#utility.yul\":8833:8886   */\n      tag_147\n      jump\t// in\n    tag_270:\n        /* \"#utility.yul\":8823:8886   */\n      swap10\n      pop\n        /* \"#utility.yul\":8778:8896   */\n      pop\n        /* \"#utility.yul\":8935:8937   */\n      0x60\n        /* \"#utility.yul\":8961:9014   */\n      tag_271\n        /* \"#utility.yul\":9006:9013   */\n      dup15\n        /* \"#utility.yul\":8997:9003   */\n      dup3\n        /* \"#utility.yul\":8986:8995   */\n      dup16\n        /* \"#utility.yul\":8982:9004   */\n      add\n        /* \"#utility.yul\":8961:9014   */\n      tag_147\n      jump\t// in\n    tag_271:\n        /* \"#utility.yul\":8951:9014   */\n      swap9\n      pop\n        /* \"#utility.yul\":8906:9024   */\n      pop\n        /* \"#utility.yul\":9063:9066   */\n      0x80\n        /* \"#utility.yul\":9090:9143   */\n      tag_272\n        /* \"#utility.yul\":9135:9142   */\n      dup15\n        /* \"#utility.yul\":9126:9132   */\n      dup3\n        /* \"#utility.yul\":9115:9124   */\n      dup16\n        /* \"#utility.yul\":9111:9133   */\n      add\n        /* \"#utility.yul\":9090:9143   */\n      tag_147\n      jump\t// in\n    tag_272:\n        /* \"#utility.yul\":9080:9143   */\n      swap8\n      pop\n        /* \"#utility.yul\":9034:9153   */\n      pop\n        /* \"#utility.yul\":9192:9195   */\n      0xa0\n        /* \"#utility.yul\":9219:9272   */\n      tag_273\n        /* \"#utility.yul\":9264:9271   */\n      dup15\n        /* \"#utility.yul\":9255:9261   */\n      dup3\n        /* \"#utility.yul\":9244:9253   */\n      dup16\n        /* \"#utility.yul\":9240:9262   */\n      add\n        /* \"#utility.yul\":9219:9272   */\n      tag_147\n      jump\t// in\n    tag_273:\n        /* \"#utility.yul\":9209:9272   */\n      swap7\n      pop\n        /* \"#utility.yul\":9163:9282   */\n      pop\n        /* \"#utility.yul\":9321:9324   */\n      0xc0\n        /* \"#utility.yul\":9348:9401   */\n      tag_274\n        /* \"#utility.yul\":9393:9400   */\n      dup15\n        /* \"#utility.yul\":9384:9390   */\n      dup3\n        /* \"#utility.yul\":9373:9382   */\n      dup16\n        /* \"#utility.yul\":9369:9391   */\n      add\n        /* \"#utility.yul\":9348:9401   */\n      tag_147\n      jump\t// in\n    tag_274:\n        /* \"#utility.yul\":9338:9401   */\n      swap6\n      pop\n        /* \"#utility.yul\":9292:9411   */\n      pop\n        /* \"#utility.yul\":9450:9453   */\n      0xe0\n        /* \"#utility.yul\":9477:9530   */\n      tag_275\n        /* \"#utility.yul\":9522:9529   */\n      dup15\n        /* \"#utility.yul\":9513:9519   */\n      dup3\n        /* \"#utility.yul\":9502:9511   */\n      dup16\n        /* \"#utility.yul\":9498:9520   */\n      add\n        /* \"#utility.yul\":9477:9530   */\n      tag_147\n      jump\t// in\n    tag_275:\n        /* \"#utility.yul\":9467:9530   */\n      swap5\n      pop\n        /* \"#utility.yul\":9421:9540   */\n      pop\n        /* \"#utility.yul\":9579:9582   */\n      0x0100\n        /* \"#utility.yul\":9606:9659   */\n      tag_276\n        /* \"#utility.yul\":9651:9658   */\n      dup15\n        /* \"#utility.yul\":9642:9648   */\n      dup3\n        /* \"#utility.yul\":9631:9640   */\n      dup16\n        /* \"#utility.yul\":9627:9649   */\n      add\n        /* \"#utility.yul\":9606:9659   */\n      tag_147\n      jump\t// in\n    tag_276:\n        /* \"#utility.yul\":9596:9659   */\n      swap4\n      pop\n        /* \"#utility.yul\":9550:9669   */\n      pop\n        /* \"#utility.yul\":9708:9711   */\n      0x0120\n        /* \"#utility.yul\":9735:9787   */\n      tag_277\n        /* \"#utility.yul\":9779:9786   */\n      dup15\n        /* \"#utility.yul\":9770:9776   */\n      dup3\n        /* \"#utility.yul\":9759:9768   */\n      dup16\n        /* \"#utility.yul\":9755:9777   */\n      add\n        /* \"#utility.yul\":9735:9787   */\n      tag_149\n      jump\t// in\n    tag_277:\n        /* \"#utility.yul\":9725:9787   */\n      swap3\n      pop\n        /* \"#utility.yul\":9679:9797   */\n      pop\n        /* \"#utility.yul\":9864:9867   */\n      0x0140\n        /* \"#utility.yul\":9853:9862   */\n      dup13\n        /* \"#utility.yul\":9849:9868   */\n      add\n        /* \"#utility.yul\":9836:9869   */\n      calldataload\n        /* \"#utility.yul\":9896:9914   */\n      0xffffffffffffffff\n        /* \"#utility.yul\":9888:9894   */\n      dup2\n        /* \"#utility.yul\":9885:9915   */\n      gt\n        /* \"#utility.yul\":9882:9999   */\n      iszero\n      tag_278\n      jumpi\n        /* \"#utility.yul\":9918:9997   */\n      tag_279\n      tag_127\n      jump\t// in\n    tag_279:\n        /* \"#utility.yul\":9882:9999   */\n    tag_278:\n        /* \"#utility.yul\":10024:10087   */\n      tag_280\n        /* \"#utility.yul\":10079:10086   */\n      dup15\n        /* \"#utility.yul\":10070:10076   */\n      dup3\n        /* \"#utility.yul\":10059:10068   */\n      dup16\n        /* \"#utility.yul\":10055:10077   */\n      add\n        /* \"#utility.yul\":10024:10087   */\n      tag_137\n      jump\t// in\n    tag_280:\n        /* \"#utility.yul\":10013:10087   */\n      swap2\n      pop\n        /* \"#utility.yul\":9807:10097   */\n      pop\n        /* \"#utility.yul\":7957:10104   */\n      swap3\n      swap6\n      swap9\n      swap12\n      pop\n      swap3\n      swap6\n      swap9\n      swap12\n      swap1\n      swap4\n      swap7\n      swap10\n      pop\n      jump\t// out\n        /* \"#utility.yul\":10110:10764   */\n    tag_37:\n        /* \"#utility.yul\":10188:10194   */\n      0x00\n        /* \"#utility.yul\":10196:10202   */\n      dup1\n        /* \"#utility.yul\":10245:10247   */\n      0x40\n        /* \"#utility.yul\":10233:10242   */\n      dup4\n        /* \"#utility.yul\":10224:10231   */\n      dup6\n        /* \"#utility.yul\":10220:10243   */\n      sub\n        /* \"#utility.yul\":10216:10248   */\n      slt\n        /* \"#utility.yul\":10213:10332   */\n      iszero\n      tag_282\n      jumpi\n        /* \"#utility.yul\":10251:10330   */\n      tag_283\n      tag_126\n      jump\t// in\n    tag_283:\n        /* \"#utility.yul\":10213:10332   */\n    tag_282:\n        /* \"#utility.yul\":10399:10400   */\n      0x00\n        /* \"#utility.yul\":10388:10397   */\n      dup4\n        /* \"#utility.yul\":10384:10401   */\n      add\n        /* \"#utility.yul\":10371:10402   */\n      calldataload\n        /* \"#utility.yul\":10429:10447   */\n      0xffffffffffffffff\n        /* \"#utility.yul\":10421:10427   */\n      dup2\n        /* \"#utility.yul\":10418:10448   */\n      gt\n        /* \"#utility.yul\":10415:10532   */\n      iszero\n      tag_284\n      jumpi\n        /* \"#utility.yul\":10451:10530   */\n      tag_285\n      tag_127\n      jump\t// in\n    tag_285:\n        /* \"#utility.yul\":10415:10532   */\n    tag_284:\n        /* \"#utility.yul\":10556:10619   */\n      tag_286\n        /* \"#utility.yul\":10611:10618   */\n      dup6\n        /* \"#utility.yul\":10602:10608   */\n      dup3\n        /* \"#utility.yul\":10591:10600   */\n      dup7\n        /* \"#utility.yul\":10587:10609   */\n      add\n        /* \"#utility.yul\":10556:10619   */\n      tag_137\n      jump\t// in\n    tag_286:\n        /* \"#utility.yul\":10546:10619   */\n      swap3\n      pop\n        /* \"#utility.yul\":10342:10629   */\n      pop\n        /* \"#utility.yul\":10668:10670   */\n      0x20\n        /* \"#utility.yul\":10694:10747   */\n      tag_287\n        /* \"#utility.yul\":10739:10746   */\n      dup6\n        /* \"#utility.yul\":10730:10736   */\n      dup3\n        /* \"#utility.yul\":10719:10728   */\n      dup7\n        /* \"#utility.yul\":10715:10737   */\n      add\n        /* \"#utility.yul\":10694:10747   */\n      tag_147\n      jump\t// in\n    tag_287:\n        /* \"#utility.yul\":10684:10747   */\n      swap2\n      pop\n        /* \"#utility.yul\":10639:10757   */\n      pop\n        /* \"#utility.yul\":10110:10764   */\n      swap3\n      pop\n      swap3\n      swap1\n      pop\n      jump\t// out\n        /* \"#utility.yul\":10770:10939   */\n    tag_150:\n        /* \"#utility.yul\":10854:10865   */\n      0x00\n        /* \"#utility.yul\":10888:10894   */\n      dup3\n        /* \"#utility.yul\":10883:10886   */\n      dup3\n        /* \"#utility.yul\":10876:10895   */\n      mstore\n        /* \"#utility.yul\":10928:10932   */\n      0x20\n        /* \"#utility.yul\":10923:10926   */\n      dup3\n        /* \"#utility.yul\":10919:10933   */\n      add\n        /* \"#utility.yul\":10904:10933   */\n      swap1\n      pop\n        /* \"#utility.yul\":10770:10939   */\n      swap3\n      swap2\n      pop\n      pop\n      jump\t// out\n        /* \"#utility.yul\":10945:11322   */\n    tag_151:\n        /* \"#utility.yul\":11033:11036   */\n      0x00\n        /* \"#utility.yul\":11061:11100   */\n      tag_290\n        /* \"#utility.yul\":11094:11099   */\n      dup3\n        /* \"#utility.yul\":11061:11100   */\n      tag_138\n      jump\t// in\n    tag_290:\n        /* \"#utility.yul\":11116:11187   */\n      tag_291\n        /* \"#utility.yul\":11180:11186   */\n      dup2\n        /* \"#utility.yul\":11175:11178   */\n      dup6\n        /* \"#utility.yul\":11116:11187   */\n      tag_150\n      jump\t// in\n    tag_291:\n        /* \"#utility.yul\":11109:11187   */\n      swap4\n      pop\n        /* \"#utility.yul\":11196:11261   */\n      tag_292\n        /* \"#utility.yul\":11254:11260   */\n      dup2\n        /* \"#utility.yul\":11249:11252   */\n      dup6\n        /* \"#utility.yul\":11242:11246   */\n      0x20\n        /* \"#utility.yul\":11235:11240   */\n      dup7\n        /* \"#utility.yul\":11231:11247   */\n      add\n        /* \"#utility.yul\":11196:11261   */\n      tag_140\n      jump\t// in\n    tag_292:\n        /* \"#utility.yul\":11286:11315   */\n      tag_293\n        /* \"#utility.yul\":11308:11314   */\n      dup2\n        /* \"#utility.yul\":11286:11315   */\n      tag_130\n      jump\t// in\n    tag_293:\n        /* \"#utility.yul\":11281:11284   */\n      dup5\n        /* \"#utility.yul\":11277:11316   */\n      add\n        /* \"#utility.yul\":11270:11316   */\n      swap2\n      pop\n        /* \"#utility.yul\":11037:11322   */\n      pop\n        /* \"#utility.yul\":10945:11322   */\n      swap3\n      swap2\n      pop\n      pop\n      jump\t// out\n        /* \"#utility.yul\":11328:11443   */\n    tag_152:\n        /* \"#utility.yul\":11413:11436   */\n      tag_295\n        /* \"#utility.yul\":11430:11435   */\n      dup2\n        /* \"#utility.yul\":11413:11436   */\n      tag_143\n      jump\t// in\n    tag_295:\n        /* \"#utility.yul\":11408:11411   */\n      dup3\n        /* \"#utility.yul\":11401:11437   */\n      mstore\n        /* \"#utility.yul\":11328:11443   */\n      pop\n      pop\n      jump\t// out\n        /* \"#utility.yul\":11449:12959   */\n    tag_40:\n        /* \"#utility.yul\":11861:11865   */\n      0x00\n        /* \"#utility.yul\":11899:11902   */\n      0x0160\n        /* \"#utility.yul\":11888:11897   */\n      dup3\n        /* \"#utility.yul\":11884:11903   */\n      add\n        /* \"#utility.yul\":11876:11903   */\n      swap1\n      pop\n        /* \"#utility.yul\":11949:11958   */\n      dup2\n        /* \"#utility.yul\":11943:11947   */\n      dup2\n        /* \"#utility.yul\":11939:11959   */\n      sub\n        /* \"#utility.yul\":11935:11936   */\n      0x00\n        /* \"#utility.yul\":11924:11933   */\n      dup4\n        /* \"#utility.yul\":11920:11937   */\n      add\n        /* \"#utility.yul\":11913:11960   */\n      mstore\n        /* \"#utility.yul\":11977:12055   */\n      tag_297\n        /* \"#utility.yul\":12050:12054   */\n      dup2\n        /* \"#utility.yul\":12041:12047   */\n      dup15\n        /* \"#utility.yul\":11977:12055   */\n      tag_151\n      jump\t// in\n    tag_297:\n        /* \"#utility.yul\":11969:12055   */\n      swap1\n      pop\n        /* \"#utility.yul\":12065:12137   */\n      tag_298\n        /* \"#utility.yul\":12133:12135   */\n      0x20\n        /* \"#utility.yul\":12122:12131   */\n      dup4\n        /* \"#utility.yul\":12118:12136   */\n      add\n        /* \"#utility.yul\":12109:12115   */\n      dup14\n        /* \"#utility.yul\":12065:12137   */\n      tag_124\n      jump\t// in\n    tag_298:\n        /* \"#utility.yul\":12147:12219   */\n      tag_299\n        /* \"#utility.yul\":12215:12217   */\n      0x40\n        /* \"#utility.yul\":12204:12213   */\n      dup4\n        /* \"#utility.yul\":12200:12218   */\n      add\n        /* \"#utility.yul\":12191:12197   */\n      dup13\n        /* \"#utility.yul\":12147:12219   */\n      tag_124\n      jump\t// in\n    tag_299:\n        /* \"#utility.yul\":12229:12301   */\n      tag_300\n        /* \"#utility.yul\":12297:12299   */\n      0x60\n        /* \"#utility.yul\":12286:12295   */\n      dup4\n        /* \"#utility.yul\":12282:12300   */\n      add\n        /* \"#utility.yul\":12273:12279   */\n      dup12\n        /* \"#utility.yul\":12229:12301   */\n      tag_124\n      jump\t// in\n    tag_300:\n        /* \"#utility.yul\":12311:12384   */\n      tag_301\n        /* \"#utility.yul\":12379:12382   */\n      0x80\n        /* \"#utility.yul\":12368:12377   */\n      dup4\n        /* \"#utility.yul\":12364:12383   */\n      add\n        /* \"#utility.yul\":12355:12361   */\n      dup11\n        /* \"#utility.yul\":12311:12384   */\n      tag_124\n      jump\t// in\n    tag_301:\n        /* \"#utility.yul\":12394:12467   */\n      tag_302\n        /* \"#utility.yul\":12462:12465   */\n      0xa0\n        /* \"#utility.yul\":12451:12460   */\n      dup4\n        /* \"#utility.yul\":12447:12466   */\n      add\n        /* \"#utility.yul\":12438:12444   */\n      dup10\n        /* \"#utility.yul\":12394:12467   */\n      tag_124\n      jump\t// in\n    tag_302:\n        /* \"#utility.yul\":12477:12550   */\n      tag_303\n        /* \"#utility.yul\":12545:12548   */\n      0xc0\n        /* \"#utility.yul\":12534:12543   */\n      dup4\n        /* \"#utility.yul\":12530:12549   */\n      add\n        /* \"#utility.yul\":12521:12527   */\n      dup9\n        /* \"#utility.yul\":12477:12550   */\n      tag_124\n      jump\t// in\n    tag_303:\n        /* \"#utility.yul\":12560:12633   */\n      tag_304\n        /* \"#utility.yul\":12628:12631   */\n      0xe0\n        /* \"#utility.yul\":12617:12626   */\n      dup4\n        /* \"#utility.yul\":12613:12632   */\n      add\n        /* \"#utility.yul\":12604:12610   */\n      dup8\n        /* \"#utility.yul\":12560:12633   */\n      tag_124\n      jump\t// in\n    tag_304:\n        /* \"#utility.yul\":12643:12716   */\n      tag_305\n        /* \"#utility.yul\":12711:12714   */\n      0x0100\n        /* \"#utility.yul\":12700:12709   */\n      dup4\n        /* \"#utility.yul\":12696:12715   */\n      add\n        /* \"#utility.yul\":12687:12693   */\n      dup7\n        /* \"#utility.yul\":12643:12716   */\n      tag_124\n      jump\t// in\n    tag_305:\n        /* \"#utility.yul\":12726:12797   */\n      tag_306\n        /* \"#utility.yul\":12792:12795   */\n      0x0120\n        /* \"#utility.yul\":12781:12790   */\n      dup4\n        /* \"#utility.yul\":12777:12796   */\n      add\n        /* \"#utility.yul\":12768:12774   */\n      dup6\n        /* \"#utility.yul\":12726:12797   */\n      tag_152\n      jump\t// in\n    tag_306:\n        /* \"#utility.yul\":12845:12854   */\n      dup2\n        /* \"#utility.yul\":12839:12843   */\n      dup2\n        /* \"#utility.yul\":12835:12855   */\n      sub\n        /* \"#utility.yul\":12829:12832   */\n      0x0140\n        /* \"#utility.yul\":12818:12827   */\n      dup4\n        /* \"#utility.yul\":12814:12833   */\n      add\n        /* \"#utility.yul\":12807:12856   */\n      mstore\n        /* \"#utility.yul\":12873:12952   */\n      tag_307\n        /* \"#utility.yul\":12947:12951   */\n      dup2\n        /* \"#utility.yul\":12937:12944   */\n      dup5\n        /* \"#utility.yul\":12873:12952   */\n      tag_151\n      jump\t// in\n    tag_307:\n        /* \"#utility.yul\":12865:12952   */\n      swap1\n      pop\n        /* \"#utility.yul\":11449:12959   */\n      swap13\n      swap12\n      pop\n      pop\n      pop\n      pop\n      pop\n      pop\n      pop\n      pop\n      pop\n      pop\n      pop\n      pop\n      jump\t// out\n        /* \"#utility.yul\":12965:13111   */\n    tag_153:\n        /* \"#utility.yul\":13064:13070   */\n      0x00\n        /* \"#utility.yul\":13098:13103   */\n      dup2\n        /* \"#utility.yul\":13092:13104   */\n      mload\n        /* \"#utility.yul\":13082:13104   */\n      swap1\n      pop\n        /* \"#utility.yul\":12965:13111   */\n      swap2\n      swap1\n      pop\n      jump\t// out\n        /* \"#utility.yul\":13117:13333   */\n    tag_154:\n        /* \"#utility.yul\":13248:13259   */\n      0x00\n        /* \"#utility.yul\":13282:13288   */\n      dup3\n        /* \"#utility.yul\":13277:13280   */\n      dup3\n        /* \"#utility.yul\":13270:13289   */\n      mstore\n        /* \"#utility.yul\":13322:13326   */\n      0x20\n        /* \"#utility.yul\":13317:13320   */\n      dup3\n        /* \"#utility.yul\":13313:13327   */\n      add\n        /* \"#utility.yul\":13298:13327   */\n      swap1\n      pop\n        /* \"#utility.yul\":13117:13333   */\n      swap3\n      swap2\n      pop\n      pop\n      jump\t// out\n        /* \"#utility.yul\":13339:13503   */\n    tag_155:\n        /* \"#utility.yul\":13438:13442   */\n      0x00\n        /* \"#utility.yul\":13461:13464   */\n      dup2\n        /* \"#utility.yul\":13453:13464   */\n      swap1\n      pop\n        /* \"#utility.yul\":13491:13495   */\n      0x20\n        /* \"#utility.yul\":13486:13489   */\n      dup3\n        /* \"#utility.yul\":13482:13496   */\n      add\n        /* \"#utility.yul\":13474:13496   */\n      swap1\n      pop\n        /* \"#utility.yul\":13339:13503   */\n      swap2\n      swap1\n      pop\n      jump\t// out\n        /* \"#utility.yul\":13593:15911   */\n    tag_156:\n        /* \"#utility.yul\":13716:13719   */\n      0x00\n        /* \"#utility.yul\":13752:13758   */\n      0x0160\n        /* \"#utility.yul\":13747:13750   */\n      dup4\n        /* \"#utility.yul\":13743:13759   */\n      add\n        /* \"#utility.yul\":13841:13845   */\n      0x00\n        /* \"#utility.yul\":13834:13839   */\n      dup4\n        /* \"#utility.yul\":13830:13846   */\n      add\n        /* \"#utility.yul\":13824:13847   */\n      mload\n        /* \"#utility.yul\":13894:13897   */\n      dup5\n        /* \"#utility.yul\":13888:13892   */\n      dup3\n        /* \"#utility.yul\":13884:13898   */\n      sub\n        /* \"#utility.yul\":13877:13881   */\n      0x00\n        /* \"#utility.yul\":13872:13875   */\n      dup7\n        /* \"#utility.yul\":13868:13882   */\n      add\n        /* \"#utility.yul\":13861:13899   */\n      mstore\n        /* \"#utility.yul\":13920:13993   */\n      tag_312\n        /* \"#utility.yul\":13988:13992   */\n      dup3\n        /* \"#utility.yul\":13974:13986   */\n      dup3\n        /* \"#utility.yul\":13920:13993   */\n      tag_141\n      jump\t// in\n    tag_312:\n        /* \"#utility.yul\":13912:13993   */\n      swap2\n      pop\n        /* \"#utility.yul\":13769:14004   */\n      pop\n        /* \"#utility.yul\":14088:14092   */\n      0x20\n        /* \"#utility.yul\":14081:14086   */\n      dup4\n        /* \"#utility.yul\":14077:14093   */\n      add\n        /* \"#utility.yul\":14071:14094   */\n      mload\n        /* \"#utility.yul\":14107:14170   */\n      tag_313\n        /* \"#utility.yul\":14164:14168   */\n      0x20\n        /* \"#utility.yul\":14159:14162   */\n      dup7\n        /* \"#utility.yul\":14155:14169   */\n      add\n        /* \"#utility.yul\":14141:14153   */\n      dup3\n        /* \"#utility.yul\":14107:14170   */\n      tag_142\n      jump\t// in\n    tag_313:\n        /* \"#utility.yul\":14014:14180   */\n      pop\n        /* \"#utility.yul\":14266:14270   */\n      0x40\n        /* \"#utility.yul\":14259:14264   */\n      dup4\n        /* \"#utility.yul\":14255:14271   */\n      add\n        /* \"#utility.yul\":14249:14272   */\n      mload\n        /* \"#utility.yul\":14285:14348   */\n      tag_314\n        /* \"#utility.yul\":14342:14346   */\n      0x40\n        /* \"#utility.yul\":14337:14340   */\n      dup7\n        /* \"#utility.yul\":14333:14347   */\n      add\n        /* \"#utility.yul\":14319:14331   */\n      dup3\n        /* \"#utility.yul\":14285:14348   */\n      tag_142\n      jump\t// in\n    tag_314:\n        /* \"#utility.yul\":14190:14358   */\n      pop\n        /* \"#utility.yul\":14438:14442   */\n      0x60\n        /* \"#utility.yul\":14431:14436   */\n      dup4\n        /* \"#utility.yul\":14427:14443   */\n      add\n        /* \"#utility.yul\":14421:14444   */\n      mload\n        /* \"#utility.yul\":14457:14520   */\n      tag_315\n        /* \"#utility.yul\":14514:14518   */\n      0x60\n        /* \"#utility.yul\":14509:14512   */\n      dup7\n        /* \"#utility.yul\":14505:14519   */\n      add\n        /* \"#utility.yul\":14491:14503   */\n      dup3\n        /* \"#utility.yul\":14457:14520   */\n      tag_142\n      jump\t// in\n    tag_315:\n        /* \"#utility.yul\":14368:14530   */\n      pop\n        /* \"#utility.yul\":14615:14619   */\n      0x80\n        /* \"#utility.yul\":14608:14613   */\n      dup4\n        /* \"#utility.yul\":14604:14620   */\n      add\n        /* \"#utility.yul\":14598:14621   */\n      mload\n        /* \"#utility.yul\":14634:14697   */\n      tag_316\n        /* \"#utility.yul\":14691:14695   */\n      0x80\n        /* \"#utility.yul\":14686:14689   */\n      dup7\n        /* \"#utility.yul\":14682:14696   */\n      add\n        /* \"#utility.yul\":14668:14680   */\n      dup3\n        /* \"#utility.yul\":14634:14697   */\n      tag_142\n      jump\t// in\n    tag_316:\n        /* \"#utility.yul\":14540:14707   */\n      pop\n        /* \"#utility.yul\":14796:14800   */\n      0xa0\n        /* \"#utility.yul\":14789:14794   */\n      dup4\n        /* \"#utility.yul\":14785:14801   */\n      add\n        /* \"#utility.yul\":14779:14802   */\n      mload\n        /* \"#utility.yul\":14815:14878   */\n      tag_317\n        /* \"#utility.yul\":14872:14876   */\n      0xa0\n        /* \"#utility.yul\":14867:14870   */\n      dup7\n        /* \"#utility.yul\":14863:14877   */\n      add\n        /* \"#utility.yul\":14849:14861   */\n      dup3\n        /* \"#utility.yul\":14815:14878   */\n      tag_142\n      jump\t// in\n    tag_317:\n        /* \"#utility.yul\":14717:14888   */\n      pop\n        /* \"#utility.yul\":14979:14983   */\n      0xc0\n        /* \"#utility.yul\":14972:14977   */\n      dup4\n        /* \"#utility.yul\":14968:14984   */\n      add\n        /* \"#utility.yul\":14962:14985   */\n      mload\n        /* \"#utility.yul\":14998:15061   */\n      tag_318\n        /* \"#utility.yul\":15055:15059   */\n      0xc0\n        /* \"#utility.yul\":15050:15053   */\n      dup7\n        /* \"#utility.yul\":15046:15060   */\n      add\n        /* \"#utility.yul\":15032:15044   */\n      dup3\n        /* \"#utility.yul\":14998:15061   */\n      tag_142\n      jump\t// in\n    tag_318:\n        /* \"#utility.yul\":14898:15071   */\n      pop\n        /* \"#utility.yul\":15164:15168   */\n      0xe0\n        /* \"#utility.yul\":15157:15162   */\n      dup4\n        /* \"#utility.yul\":15153:15169   */\n      add\n        /* \"#utility.yul\":15147:15170   */\n      mload\n        /* \"#utility.yul\":15183:15246   */\n      tag_319\n        /* \"#utility.yul\":15240:15244   */\n      0xe0\n        /* \"#utility.yul\":15235:15238   */\n      dup7\n        /* \"#utility.yul\":15231:15245   */\n      add\n        /* \"#utility.yul\":15217:15229   */\n      dup3\n        /* \"#utility.yul\":15183:15246   */\n      tag_142\n      jump\t// in\n    tag_319:\n        /* \"#utility.yul\":15081:15256   */\n      pop\n        /* \"#utility.yul\":15346:15352   */\n      0x0100\n        /* \"#utility.yul\":15339:15344   */\n      dup4\n        /* \"#utility.yul\":15335:15353   */\n      add\n        /* \"#utility.yul\":15329:15354   */\n      mload\n        /* \"#utility.yul\":15367:15432   */\n      tag_320\n        /* \"#utility.yul\":15424:15430   */\n      0x0100\n        /* \"#utility.yul\":15419:15422   */\n      dup7\n        /* \"#utility.yul\":15415:15431   */\n      add\n        /* \"#utility.yul\":15401:15413   */\n      dup3\n        /* \"#utility.yul\":15367:15432   */\n      tag_142\n      jump\t// in\n    tag_320:\n        /* \"#utility.yul\":15266:15442   */\n      pop\n        /* \"#utility.yul\":15530:15536   */\n      0x0120\n        /* \"#utility.yul\":15523:15528   */\n      dup4\n        /* \"#utility.yul\":15519:15537   */\n      add\n        /* \"#utility.yul\":15513:15538   */\n      mload\n        /* \"#utility.yul\":15551:15614   */\n      tag_321\n        /* \"#utility.yul\":15606:15612   */\n      0x0120\n        /* \"#utility.yul\":15601:15604   */\n      dup7\n        /* \"#utility.yul\":15597:15613   */\n      add\n        /* \"#utility.yul\":15583:15595   */\n      dup3\n        /* \"#utility.yul\":15551:15614   */\n      tag_144\n      jump\t// in\n    tag_321:\n        /* \"#utility.yul\":15452:15624   */\n      pop\n        /* \"#utility.yul\":15717:15723   */\n      0x0140\n        /* \"#utility.yul\":15710:15715   */\n      dup4\n        /* \"#utility.yul\":15706:15724   */\n      add\n        /* \"#utility.yul\":15700:15725   */\n      mload\n        /* \"#utility.yul\":15774:15777   */\n      dup5\n        /* \"#utility.yul\":15768:15772   */\n      dup3\n        /* \"#utility.yul\":15764:15778   */\n      sub\n        /* \"#utility.yul\":15755:15761   */\n      0x0140\n        /* \"#utility.yul\":15750:15753   */\n      dup7\n        /* \"#utility.yul\":15746:15762   */\n      add\n        /* \"#utility.yul\":15739:15779   */\n      mstore\n        /* \"#utility.yul\":15800:15873   */\n      tag_322\n        /* \"#utility.yul\":15868:15872   */\n      dup3\n        /* \"#utility.yul\":15854:15866   */\n      dup3\n        /* \"#utility.yul\":15800:15873   */\n      tag_141\n      jump\t// in\n    tag_322:\n        /* \"#utility.yul\":15792:15873   */\n      swap2\n      pop\n        /* \"#utility.yul\":15634:15884   */\n      pop\n        /* \"#utility.yul\":15901:15905   */\n      dup1\n        /* \"#utility.yul\":15894:15905   */\n      swap2\n      pop\n        /* \"#utility.yul\":13721:15911   */\n      pop\n        /* \"#utility.yul\":13593:15911   */\n      swap3\n      swap2\n      pop\n      pop\n      jump\t// out\n        /* \"#utility.yul\":15917:16201   */\n    tag_157:\n        /* \"#utility.yul\":16050:16060   */\n      0x00\n        /* \"#utility.yul\":16085:16195   */\n      tag_324\n        /* \"#utility.yul\":16191:16194   */\n      dup4\n        /* \"#utility.yul\":16183:16189   */\n      dup4\n        /* \"#utility.yul\":16085:16195   */\n      tag_156\n      jump\t// in\n    tag_324:\n        /* \"#utility.yul\":16071:16195   */\n      swap1\n      pop\n        /* \"#utility.yul\":15917:16201   */\n      swap3\n      swap2\n      pop\n      pop\n      jump\t// out\n        /* \"#utility.yul\":16207:16352   */\n    tag_158:\n        /* \"#utility.yul\":16309:16313   */\n      0x00\n        /* \"#utility.yul\":16341:16345   */\n      0x20\n        /* \"#utility.yul\":16336:16339   */\n      dup3\n        /* \"#utility.yul\":16332:16346   */\n      add\n        /* \"#utility.yul\":16324:16346   */\n      swap1\n      pop\n        /* \"#utility.yul\":16207:16352   */\n      swap2\n      swap1\n      pop\n      jump\t// out\n        /* \"#utility.yul\":16446:17613   */\n    tag_159:\n        /* \"#utility.yul\":16629:16632   */\n      0x00\n        /* \"#utility.yul\":16658:16744   */\n      tag_327\n        /* \"#utility.yul\":16738:16743   */\n      dup3\n        /* \"#utility.yul\":16658:16744   */\n      tag_153\n      jump\t// in\n    tag_327:\n        /* \"#utility.yul\":16760:16878   */\n      tag_328\n        /* \"#utility.yul\":16871:16877   */\n      dup2\n        /* \"#utility.yul\":16866:16869   */\n      dup6\n        /* \"#utility.yul\":16760:16878   */\n      tag_154\n      jump\t// in\n    tag_328:\n        /* \"#utility.yul\":16753:16878   */\n      swap4\n      pop\n        /* \"#utility.yul\":16904:16907   */\n      dup4\n        /* \"#utility.yul\":16949:16953   */\n      0x20\n        /* \"#utility.yul\":16941:16947   */\n      dup3\n        /* \"#utility.yul\":16937:16954   */\n      mul\n        /* \"#utility.yul\":16932:16935   */\n      dup6\n        /* \"#utility.yul\":16928:16955   */\n      add\n        /* \"#utility.yul\":16979:17067   */\n      tag_329\n        /* \"#utility.yul\":17061:17066   */\n      dup6\n        /* \"#utility.yul\":16979:17067   */\n      tag_155\n      jump\t// in\n    tag_329:\n        /* \"#utility.yul\":17090:17097   */\n      dup1\n        /* \"#utility.yul\":17121:17122   */\n      0x00\n        /* \"#utility.yul\":17106:17568   */\n    tag_330:\n        /* \"#utility.yul\":17131:17137   */\n      dup6\n        /* \"#utility.yul\":17128:17129   */\n      dup2\n        /* \"#utility.yul\":17125:17138   */\n      lt\n        /* \"#utility.yul\":17106:17568   */\n      iszero\n      tag_332\n      jumpi\n        /* \"#utility.yul\":17202:17211   */\n      dup5\n        /* \"#utility.yul\":17196:17200   */\n      dup5\n        /* \"#utility.yul\":17192:17212   */\n      sub\n        /* \"#utility.yul\":17187:17190   */\n      dup10\n        /* \"#utility.yul\":17180:17213   */\n      mstore\n        /* \"#utility.yul\":17253:17259   */\n      dup2\n        /* \"#utility.yul\":17247:17260   */\n      mload\n        /* \"#utility.yul\":17281:17409   */\n      tag_333\n        /* \"#utility.yul\":17404:17408   */\n      dup6\n        /* \"#utility.yul\":17389:17402   */\n      dup3\n        /* \"#utility.yul\":17281:17409   */\n      tag_157\n      jump\t// in\n    tag_333:\n        /* \"#utility.yul\":17273:17409   */\n      swap5\n      pop\n        /* \"#utility.yul\":17432:17524   */\n      tag_334\n        /* \"#utility.yul\":17517:17523   */\n      dup4\n        /* \"#utility.yul\":17432:17524   */\n      tag_158\n      jump\t// in\n    tag_334:\n        /* \"#utility.yul\":17422:17524   */\n      swap3\n      pop\n        /* \"#utility.yul\":17553:17557   */\n      0x20\n        /* \"#utility.yul\":17548:17551   */\n      dup11\n        /* \"#utility.yul\":17544:17558   */\n      add\n        /* \"#utility.yul\":17537:17558   */\n      swap10\n      pop\n        /* \"#utility.yul\":17166:17568   */\n      pop\n        /* \"#utility.yul\":17153:17154   */\n      0x01\n        /* \"#utility.yul\":17150:17151   */\n      dup2\n        /* \"#utility.yul\":17146:17155   */\n      add\n        /* \"#utility.yul\":17141:17155   */\n      swap1\n      pop\n        /* \"#utility.yul\":17106:17568   */\n      jump(tag_330)\n    tag_332:\n        /* \"#utility.yul\":17110:17124   */\n      pop\n        /* \"#utility.yul\":17584:17588   */\n      dup3\n        /* \"#utility.yul\":17577:17588   */\n      swap8\n      pop\n        /* \"#utility.yul\":17604:17607   */\n      dup8\n        /* \"#utility.yul\":17597:17607   */\n      swap6\n      pop\n        /* \"#utility.yul\":16634:17613   */\n      pop\n      pop\n      pop\n      pop\n      pop\n        /* \"#utility.yul\":16446:17613   */\n      swap3\n      swap2\n      pop\n      pop\n      jump\t// out\n        /* \"#utility.yul\":17619:18120   */\n    tag_46:\n        /* \"#utility.yul\":17826:17830   */\n      0x00\n        /* \"#utility.yul\":17864:17866   */\n      0x20\n        /* \"#utility.yul\":17853:17862   */\n      dup3\n        /* \"#utility.yul\":17849:17867   */\n      add\n        /* \"#utility.yul\":17841:17867   */\n      swap1\n      pop\n        /* \"#utility.yul\":17913:17922   */\n      dup2\n        /* \"#utility.yul\":17907:17911   */\n      dup2\n        /* \"#utility.yul\":17903:17923   */\n      sub\n        /* \"#utility.yul\":17899:17900   */\n      0x00\n        /* \"#utility.yul\":17888:17897   */\n      dup4\n        /* \"#utility.yul\":17884:17901   */\n      add\n        /* \"#utility.yul\":17877:17924   */\n      mstore\n        /* \"#utility.yul\":17941:18113   */\n      tag_336\n        /* \"#utility.yul\":18108:18112   */\n      dup2\n        /* \"#utility.yul\":18099:18105   */\n      dup5\n        /* \"#utility.yul\":17941:18113   */\n      tag_159\n      jump\t// in\n    tag_336:\n        /* \"#utility.yul\":17933:18113   */\n      swap1\n      pop\n        /* \"#utility.yul\":17619:18120   */\n      swap3\n      swap2\n      pop\n      pop\n      jump\t// out\n        /* \"#utility.yul\":18126:18274   */\n    tag_160:\n        /* \"#utility.yul\":18228:18239   */\n      0x00\n        /* \"#utility.yul\":18265:18268   */\n      dup2\n        /* \"#utility.yul\":18250:18268   */\n      swap1\n      pop\n        /* \"#utility.yul\":18126:18274   */\n      swap3\n      swap2\n      pop\n      pop\n      jump\t// out\n        /* \"#utility.yul\":18280:18670   */\n    tag_161:\n        /* \"#utility.yul\":18386:18389   */\n      0x00\n        /* \"#utility.yul\":18414:18453   */\n      tag_339\n        /* \"#utility.yul\":18447:18452   */\n      dup3\n        /* \"#utility.yul\":18414:18453   */\n      tag_138\n      jump\t// in\n    tag_339:\n        /* \"#utility.yul\":18469:18558   */\n      tag_340\n        /* \"#utility.yul\":18551:18557   */\n      dup2\n        /* \"#utility.yul\":18546:18549   */\n      dup6\n        /* \"#utility.yul\":18469:18558   */\n      tag_160\n      jump\t// in\n    tag_340:\n        /* \"#utility.yul\":18462:18558   */\n      swap4\n      pop\n        /* \"#utility.yul\":18567:18632   */\n      tag_341\n        /* \"#utility.yul\":18625:18631   */\n      dup2\n        /* \"#utility.yul\":18620:18623   */\n      dup6\n        /* \"#utility.yul\":18613:18617   */\n      0x20\n        /* \"#utility.yul\":18606:18611   */\n      dup7\n        /* \"#utility.yul\":18602:18618   */\n      add\n        /* \"#utility.yul\":18567:18632   */\n      tag_140\n      jump\t// in\n    tag_341:\n        /* \"#utility.yul\":18657:18663   */\n      dup1\n        /* \"#utility.yul\":18652:18655   */\n      dup5\n        /* \"#utility.yul\":18648:18664   */\n      add\n        /* \"#utility.yul\":18641:18664   */\n      swap2\n      pop\n        /* \"#utility.yul\":18390:18670   */\n      pop\n        /* \"#utility.yul\":18280:18670   */\n      swap3\n      swap2\n      pop\n      pop\n      jump\t// out\n        /* \"#utility.yul\":18676:18951   */\n    tag_51:\n        /* \"#utility.yul\":18808:18811   */\n      0x00\n        /* \"#utility.yul\":18830:18925   */\n      tag_343\n        /* \"#utility.yul\":18921:18924   */\n      dup3\n        /* \"#utility.yul\":18912:18918   */\n      dup5\n        /* \"#utility.yul\":18830:18925   */\n      tag_161\n      jump\t// in\n    tag_343:\n        /* \"#utility.yul\":18823:18925   */\n      swap2\n      pop\n        /* \"#utility.yul\":18942:18945   */\n      dup2\n        /* \"#utility.yul\":18935:18945   */\n      swap1\n      pop\n        /* \"#utility.yul\":18676:18951   */\n      swap3\n      swap2\n      pop\n      pop\n      jump\t// out\n        /* \"#utility.yul\":18957:19139   */\n    tag_162:\n        /* \"#utility.yul\":19097:19131   */\n      0x4e6f206461746120617661696c61626c6520666f722074686973206172656121\n        /* \"#utility.yul\":19093:19094   */\n      0x00\n        /* \"#utility.yul\":19085:19091   */\n      dup3\n        /* \"#utility.yul\":19081:19095   */\n      add\n        /* \"#utility.yul\":19074:19132   */\n      mstore\n        /* \"#utility.yul\":18957:19139   */\n      pop\n      jump\t// out\n        /* \"#utility.yul\":19145:19511   */\n    tag_163:\n        /* \"#utility.yul\":19287:19290   */\n      0x00\n        /* \"#utility.yul\":19308:19375   */\n      tag_346\n        /* \"#utility.yul\":19372:19374   */\n      0x20\n        /* \"#utility.yul\":19367:19370   */\n      dup4\n        /* \"#utility.yul\":19308:19375   */\n      tag_150\n      jump\t// in\n    tag_346:\n        /* \"#utility.yul\":19301:19375   */\n      swap2\n      pop\n        /* \"#utility.yul\":19384:19477   */\n      tag_347\n        /* \"#utility.yul\":19473:19476   */\n      dup3\n        /* \"#utility.yul\":19384:19477   */\n      tag_162\n      jump\t// in\n    tag_347:\n        /* \"#utility.yul\":19502:19504   */\n      0x20\n        /* \"#utility.yul\":19497:19500   */\n      dup3\n        /* \"#utility.yul\":19493:19505   */\n      add\n        /* \"#utility.yul\":19486:19505   */\n      swap1\n      pop\n        /* \"#utility.yul\":19145:19511   */\n      swap2\n      swap1\n      pop\n      jump\t// out\n        /* \"#utility.yul\":19517:19936   */\n    tag_54:\n        /* \"#utility.yul\":19683:19687   */\n      0x00\n        /* \"#utility.yul\":19721:19723   */\n      0x20\n        /* \"#utility.yul\":19710:19719   */\n      dup3\n        /* \"#utility.yul\":19706:19724   */\n      add\n        /* \"#utility.yul\":19698:19724   */\n      swap1\n      pop\n        /* \"#utility.yul\":19770:19779   */\n      dup2\n        /* \"#utility.yul\":19764:19768   */\n      dup2\n        /* \"#utility.yul\":19760:19780   */\n      sub\n        /* \"#utility.yul\":19756:19757   */\n      0x00\n        /* \"#utility.yul\":19745:19754   */\n      dup4\n        /* \"#utility.yul\":19741:19758   */\n      add\n        /* \"#utility.yul\":19734:19781   */\n      mstore\n        /* \"#utility.yul\":19798:19929   */\n      tag_349\n        /* \"#utility.yul\":19924:19928   */\n      dup2\n        /* \"#utility.yul\":19798:19929   */\n      tag_163\n      jump\t// in\n    tag_349:\n        /* \"#utility.yul\":19790:19929   */\n      swap1\n      pop\n        /* \"#utility.yul\":19517:19936   */\n      swap2\n      swap1\n      pop\n      jump\t// out\n        /* \"#utility.yul\":19942:20122   */\n    tag_164:\n        /* \"#utility.yul\":19990:20067   */\n      0x4e487b7100000000000000000000000000000000000000000000000000000000\n        /* \"#utility.yul\":19987:19988   */\n      0x00\n        /* \"#utility.yul\":19980:20068   */\n      mstore\n        /* \"#utility.yul\":20087:20091   */\n      0x11\n        /* \"#utility.yul\":20084:20085   */\n      0x04\n        /* \"#utility.yul\":20077:20092   */\n      mstore\n        /* \"#utility.yul\":20111:20115   */\n      0x24\n        /* \"#utility.yul\":20108:20109   */\n      0x00\n        /* \"#utility.yul\":20101:20116   */\n      revert\n        /* \"#utility.yul\":20128:20322   */\n    tag_58:\n        /* \"#utility.yul\":20168:20172   */\n      0x00\n        /* \"#utility.yul\":20188:20208   */\n      tag_352\n        /* \"#utility.yul\":20206:20207   */\n      dup3\n        /* \"#utility.yul\":20188:20208   */\n      tag_123\n      jump\t// in\n    tag_352:\n        /* \"#utility.yul\":20183:20208   */\n      swap2\n      pop\n        /* \"#utility.yul\":20222:20242   */\n      tag_353\n        /* \"#utility.yul\":20240:20241   */\n      dup4\n        /* \"#utility.yul\":20222:20242   */\n      tag_123\n      jump\t// in\n    tag_353:\n        /* \"#utility.yul\":20217:20242   */\n      swap3\n      pop\n        /* \"#utility.yul\":20266:20267   */\n      dup3\n        /* \"#utility.yul\":20263:20264   */\n      dup3\n        /* \"#utility.yul\":20259:20268   */\n      sub\n        /* \"#utility.yul\":20251:20268   */\n      swap1\n      pop\n        /* \"#utility.yul\":20290:20291   */\n      dup2\n        /* \"#utility.yul\":20284:20288   */\n      dup2\n        /* \"#utility.yul\":20281:20292   */\n      gt\n        /* \"#utility.yul\":20278:20315   */\n      iszero\n      tag_354\n      jumpi\n        /* \"#utility.yul\":20295:20313   */\n      tag_355\n      tag_164\n      jump\t// in\n    tag_355:\n        /* \"#utility.yul\":20278:20315   */\n    tag_354:\n        /* \"#utility.yul\":20128:20322   */\n      swap3\n      swap2\n      pop\n      pop\n      jump\t// out\n        /* \"#utility.yul\":20328:20508   */\n    tag_61:\n        /* \"#utility.yul\":20376:20453   */\n      0x4e487b7100000000000000000000000000000000000000000000000000000000\n        /* \"#utility.yul\":20373:20374   */\n      0x00\n        /* \"#utility.yul\":20366:20454   */\n      mstore\n        /* \"#utility.yul\":20473:20477   */\n      0x32\n        /* \"#utility.yul\":20470:20471   */\n      0x04\n        /* \"#utility.yul\":20463:20478   */\n      mstore\n        /* \"#utility.yul\":20497:20501   */\n      0x24\n        /* \"#utility.yul\":20494:20495   */\n      0x00\n        /* \"#utility.yul\":20487:20502   */\n      revert\n        /* \"#utility.yul\":20514:20694   */\n    tag_165:\n        /* \"#utility.yul\":20562:20639   */\n      0x4e487b7100000000000000000000000000000000000000000000000000000000\n        /* \"#utility.yul\":20559:20560   */\n      0x00\n        /* \"#utility.yul\":20552:20640   */\n      mstore\n        /* \"#utility.yul\":20659:20663   */\n      0x22\n        /* \"#utility.yul\":20656:20657   */\n      0x04\n        /* \"#utility.yul\":20649:20664   */\n      mstore\n        /* \"#utility.yul\":20683:20687   */\n      0x24\n        /* \"#utility.yul\":20680:20681   */\n      0x00\n        /* \"#utility.yul\":20673:20688   */\n      revert\n        /* \"#utility.yul\":20700:21020   */\n    tag_64:\n        /* \"#utility.yul\":20744:20750   */\n      0x00\n        /* \"#utility.yul\":20781:20782   */\n      0x02\n        /* \"#utility.yul\":20775:20779   */\n      dup3\n        /* \"#utility.yul\":20771:20783   */\n      div\n        /* \"#utility.yul\":20761:20783   */\n      swap1\n      pop\n        /* \"#utility.yul\":20828:20829   */\n      0x01\n        /* \"#utility.yul\":20822:20826   */\n      dup3\n        /* \"#utility.yul\":20818:20830   */\n      and\n        /* \"#utility.yul\":20849:20867   */\n      dup1\n        /* \"#utility.yul\":20839:20920   */\n      tag_359\n      jumpi\n        /* \"#utility.yul\":20905:20909   */\n      0x7f\n        /* \"#utility.yul\":20897:20903   */\n      dup3\n        /* \"#utility.yul\":20893:20910   */\n      and\n        /* \"#utility.yul\":20883:20910   */\n      swap2\n      pop\n        /* \"#utility.yul\":20839:20920   */\n    tag_359:\n        /* \"#utility.yul\":20967:20969   */\n      0x20\n        /* \"#utility.yul\":20959:20965   */\n      dup3\n        /* \"#utility.yul\":20956:20970   */\n      lt\n        /* \"#utility.yul\":20936:20954   */\n      dup2\n        /* \"#utility.yul\":20933:20971   */\n      sub\n        /* \"#utility.yul\":20930:21014   */\n      tag_360\n      jumpi\n        /* \"#utility.yul\":20986:21004   */\n      tag_361\n      tag_165\n      jump\t// in\n    tag_361:\n        /* \"#utility.yul\":20930:21014   */\n    tag_360:\n        /* \"#utility.yul\":20751:21020   */\n      pop\n        /* \"#utility.yul\":20700:21020   */\n      swap2\n      swap1\n      pop\n      jump\t// out\n        /* \"#utility.yul\":21026:21198   */\n    tag_166:\n        /* \"#utility.yul\":21166:21190   */\n      0x4e6f2062616c616e636520746f20776974686472617700000000000000000000\n        /* \"#utility.yul\":21162:21163   */\n      0x00\n        /* \"#utility.yul\":21154:21160   */\n      dup3\n        /* \"#utility.yul\":21150:21164   */\n      add\n        /* \"#utility.yul\":21143:21191   */\n      mstore\n        /* \"#utility.yul\":21026:21198   */\n      pop\n      jump\t// out\n        /* \"#utility.yul\":21204:21570   */\n    tag_167:\n        /* \"#utility.yul\":21346:21349   */\n      0x00\n        /* \"#utility.yul\":21367:21434   */\n      tag_364\n        /* \"#utility.yul\":21431:21433   */\n      0x16\n        /* \"#utility.yul\":21426:21429   */\n      dup4\n        /* \"#utility.yul\":21367:21434   */\n      tag_150\n      jump\t// in\n    tag_364:\n        /* \"#utility.yul\":21360:21434   */\n      swap2\n      pop\n        /* \"#utility.yul\":21443:21536   */\n      tag_365\n        /* \"#utility.yul\":21532:21535   */\n      dup3\n        /* \"#utility.yul\":21443:21536   */\n      tag_166\n      jump\t// in\n    tag_365:\n        /* \"#utility.yul\":21561:21563   */\n      0x20\n        /* \"#utility.yul\":21556:21559   */\n      dup3\n        /* \"#utility.yul\":21552:21564   */\n      add\n        /* \"#utility.yul\":21545:21564   */\n      swap1\n      pop\n        /* \"#utility.yul\":21204:21570   */\n      swap2\n      swap1\n      pop\n      jump\t// out\n        /* \"#utility.yul\":21576:21995   */\n    tag_77:\n        /* \"#utility.yul\":21742:21746   */\n      0x00\n        /* \"#utility.yul\":21780:21782   */\n      0x20\n        /* \"#utility.yul\":21769:21778   */\n      dup3\n        /* \"#utility.yul\":21765:21783   */\n      add\n        /* \"#utility.yul\":21757:21783   */\n      swap1\n      pop\n        /* \"#utility.yul\":21829:21838   */\n      dup2\n        /* \"#utility.yul\":21823:21827   */\n      dup2\n        /* \"#utility.yul\":21819:21839   */\n      sub\n        /* \"#utility.yul\":21815:21816   */\n      0x00\n        /* \"#utility.yul\":21804:21813   */\n      dup4\n        /* \"#utility.yul\":21800:21817   */\n      add\n        /* \"#utility.yul\":21793:21840   */\n      mstore\n        /* \"#utility.yul\":21857:21988   */\n      tag_367\n        /* \"#utility.yul\":21983:21987   */\n      dup2\n        /* \"#utility.yul\":21857:21988   */\n      tag_167\n      jump\t// in\n    tag_367:\n        /* \"#utility.yul\":21849:21988   */\n      swap1\n      pop\n        /* \"#utility.yul\":21576:21995   */\n      swap2\n      swap1\n      pop\n      jump\t// out\n        /* \"#utility.yul\":22001:22167   */\n    tag_168:\n        /* \"#utility.yul\":22141:22159   */\n      0x5061796d656e7420726571756972656400000000000000000000000000000000\n        /* \"#utility.yul\":22137:22138   */\n      0x00\n        /* \"#utility.yul\":22129:22135   */\n      dup3\n        /* \"#utility.yul\":22125:22139   */\n      add\n        /* \"#utility.yul\":22118:22160   */\n      mstore\n        /* \"#utility.yul\":22001:22167   */\n      pop\n      jump\t// out\n        /* \"#utility.yul\":22173:22539   */\n    tag_169:\n        /* \"#utility.yul\":22315:22318   */\n      0x00\n        /* \"#utility.yul\":22336:22403   */\n      tag_370\n        /* \"#utility.yul\":22400:22402   */\n      0x10\n        /* \"#utility.yul\":22395:22398   */\n      dup4\n        /* \"#utility.yul\":22336:22403   */\n      tag_150\n      jump\t// in\n    tag_370:\n        /* \"#utility.yul\":22329:22403   */\n      swap2\n      pop\n        /* \"#utility.yul\":22412:22505   */\n      tag_371\n        /* \"#utility.yul\":22501:22504   */\n      dup3\n        /* \"#utility.yul\":22412:22505   */\n      tag_168\n      jump\t// in\n    tag_371:\n        /* \"#utility.yul\":22530:22532   */\n      0x20\n        /* \"#utility.yul\":22525:22528   */\n      dup3\n        /* \"#utility.yul\":22521:22533   */\n      add\n        /* \"#utility.yul\":22514:22533   */\n      swap1\n      pop\n        /* \"#utility.yul\":22173:22539   */\n      swap2\n      swap1\n      pop\n      jump\t// out\n        /* \"#utility.yul\":22545:22964   */\n    tag_83:\n        /* \"#utility.yul\":22711:22715   */\n      0x00\n        /* \"#utility.yul\":22749:22751   */\n      0x20\n        /* \"#utility.yul\":22738:22747   */\n      dup3\n        /* \"#utility.yul\":22734:22752   */\n      add\n        /* \"#utility.yul\":22726:22752   */\n      swap1\n      pop\n        /* \"#utility.yul\":22798:22807   */\n      dup2\n        /* \"#utility.yul\":22792:22796   */\n      dup2\n        /* \"#utility.yul\":22788:22808   */\n      sub\n        /* \"#utility.yul\":22784:22785   */\n      0x00\n        /* \"#utility.yul\":22773:22782   */\n      dup4\n        /* \"#utility.yul\":22769:22786   */\n      add\n        /* \"#utility.yul\":22762:22809   */\n      mstore\n        /* \"#utility.yul\":22826:22957   */\n      tag_373\n        /* \"#utility.yul\":22952:22956   */\n      dup2\n        /* \"#utility.yul\":22826:22957   */\n      tag_169\n      jump\t// in\n    tag_373:\n        /* \"#utility.yul\":22818:22957   */\n      swap1\n      pop\n        /* \"#utility.yul\":22545:22964   */\n      swap2\n      swap1\n      pop\n      jump\t// out\n        /* \"#utility.yul\":22970:23111   */\n    tag_170:\n        /* \"#utility.yul\":23019:23023   */\n      0x00\n        /* \"#utility.yul\":23042:23045   */\n      dup2\n        /* \"#utility.yul\":23034:23045   */\n      swap1\n      pop\n        /* \"#utility.yul\":23065:23068   */\n      dup2\n        /* \"#utility.yul\":23062:23063   */\n      0x00\n        /* \"#utility.yul\":23055:23069   */\n      mstore\n        /* \"#utility.yul\":23099:23103   */\n      0x20\n        /* \"#utility.yul\":23096:23097   */\n      0x00\n        /* \"#utility.yul\":23086:23104   */\n      keccak256\n        /* \"#utility.yul\":23078:23104   */\n      swap1\n      pop\n        /* \"#utility.yul\":22970:23111   */\n      swap2\n      swap1\n      pop\n      jump\t// out\n        /* \"#utility.yul\":23117:23210   */\n    tag_171:\n        /* \"#utility.yul\":23154:23160   */\n      0x00\n        /* \"#utility.yul\":23201:23203   */\n      0x20\n        /* \"#utility.yul\":23196:23198   */\n      0x1f\n        /* \"#utility.yul\":23189:23194   */\n      dup4\n        /* \"#utility.yul\":23185:23199   */\n      add\n        /* \"#utility.yul\":23181:23204   */\n      div\n        /* \"#utility.yul\":23171:23204   */\n      swap1\n      pop\n        /* \"#utility.yul\":23117:23210   */\n      swap2\n      swap1\n      pop\n      jump\t// out\n        /* \"#utility.yul\":23216:23323   */\n    tag_172:\n        /* \"#utility.yul\":23260:23268   */\n      0x00\n        /* \"#utility.yul\":23310:23315   */\n      dup3\n        /* \"#utility.yul\":23304:23308   */\n      dup3\n        /* \"#utility.yul\":23300:23316   */\n      shl\n        /* \"#utility.yul\":23279:23316   */\n      swap1\n      pop\n        /* \"#utility.yul\":23216:23323   */\n      swap3\n      swap2\n      pop\n      pop\n      jump\t// out\n        /* \"#utility.yul\":23329:23722   */\n    tag_173:\n        /* \"#utility.yul\":23398:23404   */\n      0x00\n        /* \"#utility.yul\":23448:23449   */\n      0x08\n        /* \"#utility.yul\":23436:23446   */\n      dup4\n        /* \"#utility.yul\":23432:23450   */\n      mul\n        /* \"#utility.yul\":23471:23568   */\n      tag_378\n        /* \"#utility.yul\":23501:23567   */\n      0xffffffffffffffffffffffffffffffffffffffffffffffffffffffffffffffff\n        /* \"#utility.yul\":23490:23499   */\n      dup3\n        /* \"#utility.yul\":23471:23568   */\n      tag_172\n      jump\t// in\n    tag_378:\n        /* \"#utility.yul\":23589:23628   */\n      tag_379\n        /* \"#utility.yul\":23619:23627   */\n      dup7\n        /* \"#utility.yul\":23608:23617   */\n      dup4\n        /* \"#utility.yul\":23589:23628   */\n      tag_172\n      jump\t// in\n    tag_379:\n        /* \"#utility.yul\":23577:23628   */\n      swap6\n      pop\n        /* \"#utility.yul\":23661:23665   */\n      dup1\n        /* \"#utility.yul\":23657:23666   */\n      not\n        /* \"#utility.yul\":23650:23655   */\n      dup5\n        /* \"#utility.yul\":23646:23667   */\n      and\n        /* \"#utility.yul\":23637:23667   */\n      swap4\n      pop\n        /* \"#utility.yul\":23710:23714   */\n      dup1\n        /* \"#utility.yul\":23700:23708   */\n      dup7\n        /* \"#utility.yul\":23696:23715   */\n      and\n        /* \"#utility.yul\":23689:23694   */\n      dup5\n        /* \"#utility.yul\":23686:23716   */\n      or\n        /* \"#utility.yul\":23676:23716   */\n      swap3\n      pop\n        /* \"#utility.yul\":23405:23722   */\n      pop\n      pop\n        /* \"#utility.yul\":23329:23722   */\n      swap4\n      swap3\n      pop\n      pop\n      pop\n      jump\t// out\n        /* \"#utility.yul\":23728:23788   */\n    tag_174:\n        /* \"#utility.yul\":23756:23759   */\n      0x00\n        /* \"#utility.yul\":23777:23782   */\n      dup2\n        /* \"#utility.yul\":23770:23782   */\n      swap1\n      pop\n        /* \"#utility.yul\":23728:23788   */\n      swap2\n      swap1\n      pop\n      jump\t// out\n        /* \"#utility.yul\":23794:23936   */\n    tag_175:\n        /* \"#utility.yul\":23844:23853   */\n      0x00\n        /* \"#utility.yul\":23877:23930   */\n      tag_382\n        /* \"#utility.yul\":23895:23929   */\n      tag_383\n        /* \"#utility.yul\":23904:23928   */\n      tag_384\n        /* \"#utility.yul\":23922:23927   */\n      dup5\n        /* \"#utility.yul\":23904:23928   */\n      tag_123\n      jump\t// in\n    tag_384:\n        /* \"#utility.yul\":23895:23929   */\n      tag_174\n      jump\t// in\n    tag_383:\n        /* \"#utility.yul\":23877:23930   */\n      tag_123\n      jump\t// in\n    tag_382:\n        /* \"#utility.yul\":23864:23930   */\n      swap1\n      pop\n        /* \"#utility.yul\":23794:23936   */\n      swap2\n      swap1\n      pop\n      jump\t// out\n        /* \"#utility.yul\":23942:24017   */\n    tag_176:\n        /* \"#utility.yul\":23985:23988   */\n      0x00\n        /* \"#utility.yul\":24006:24011   */\n      dup2\n        /* \"#utility.yul\":23999:24011   */\n      swap1\n      pop\n        /* \"#utility.yul\":23942:24017   */\n      swap2\n      swap1\n      pop\n      jump\t// out\n        /* \"#utility.yul\":24023:24292   */\n    tag_177:\n        /* \"#utility.yul\":24133:24172   */\n      tag_387\n        /* \"#utility.yul\":24164:24171   */\n      dup4\n        /* \"#utility.yul\":24133:24172   */\n      tag_175\n      jump\t// in\n    tag_387:\n        /* \"#utility.yul\":24194:24285   */\n      tag_388\n        /* \"#utility.yul\":24243:24284   */\n      tag_389\n        /* \"#utility.yul\":24267:24283   */\n      dup3\n        /* \"#utility.yul\":24243:24284   */\n      tag_176\n      jump\t// in\n    tag_389:\n        /* \"#utility.yul\":24235:24241   */\n      dup5\n        /* \"#utility.yul\":24228:24232   */\n      dup5\n        /* \"#utility.yul\":24222:24233   */\n      sload\n        /* \"#utility.yul\":24194:24285   */\n      tag_173\n      jump\t// in\n    tag_388:\n        /* \"#utility.yul\":24188:24192   */\n      dup3\n        /* \"#utility.yul\":24181:24286   */\n      sstore\n        /* \"#utility.yul\":24099:24292   */\n      pop\n        /* \"#utility.yul\":24023:24292   */\n      pop\n      pop\n      pop\n      jump\t// out\n        /* \"#utility.yul\":24298:24371   */\n    tag_178:\n        /* \"#utility.yul\":24343:24346   */\n      0x00\n        /* \"#utility.yul\":24298:24371   */\n      swap1\n      jump\t// out\n        /* \"#utility.yul\":24377:24566   */\n    tag_179:\n        /* \"#utility.yul\":24454:24486   */\n      tag_392\n      tag_178\n      jump\t// in\n    tag_392:\n        /* \"#utility.yul\":24495:24560   */\n      tag_393\n        /* \"#utility.yul\":24553:24559   */\n      dup2\n        /* \"#utility.yul\":24545:24551   */\n      dup5\n        /* \"#utility.yul\":24539:24543   */\n      dup5\n        /* \"#utility.yul\":24495:24560   */\n      tag_177\n      jump\t// in\n    tag_393:\n        /* \"#utility.yul\":24430:24566   */\n      pop\n        /* \"#utility.yul\":24377:24566   */\n      pop\n      pop\n      jump\t// out\n        /* \"#utility.yul\":24572:24758   */\n    tag_180:\n        /* \"#utility.yul\":24632:24752   */\n    tag_395:\n        /* \"#utility.yul\":24649:24652   */\n      dup2\n        /* \"#utility.yul\":24642:24647   */\n      dup2\n        /* \"#utility.yul\":24639:24653   */\n      lt\n        /* \"#utility.yul\":24632:24752   */\n      iszero\n      tag_397\n      jumpi\n        /* \"#utility.yul\":24703:24742   */\n      tag_398\n        /* \"#utility.yul\":24740:24741   */\n      0x00\n        /* \"#utility.yul\":24733:24738   */\n      dup3\n        /* \"#utility.yul\":24703:24742   */\n      tag_179\n      jump\t// in\n    tag_398:\n        /* \"#utility.yul\":24676:24677   */\n      0x01\n        /* \"#utility.yul\":24669:24674   */\n      dup2\n        /* \"#utility.yul\":24665:24678   */\n      add\n        /* \"#utility.yul\":24656:24678   */\n      swap1\n      pop\n        /* \"#utility.yul\":24632:24752   */\n      jump(tag_395)\n    tag_397:\n        /* \"#utility.yul\":24572:24758   */\n      pop\n      pop\n      jump\t// out\n        /* \"#utility.yul\":24764:25307   */\n    tag_181:\n        /* \"#utility.yul\":24865:24867   */\n      0x1f\n        /* \"#utility.yul\":24860:24863   */\n      dup3\n        /* \"#utility.yul\":24857:24868   */\n      gt\n        /* \"#utility.yul\":24854:25300   */\n      iszero\n      tag_400\n      jumpi\n        /* \"#utility.yul\":24899:24937   */\n      tag_401\n        /* \"#utility.yul\":24931:24936   */\n      dup2\n        /* \"#utility.yul\":24899:24937   */\n      tag_170\n      jump\t// in\n    tag_401:\n        /* \"#utility.yul\":24983:25012   */\n      tag_402\n        /* \"#utility.yul\":25001:25011   */\n      dup5\n        /* \"#utility.yul\":24983:25012   */\n      tag_171\n      jump\t// in\n    tag_402:\n        /* \"#utility.yul\":24973:24981   */\n      dup2\n        /* \"#utility.yul\":24969:25013   */\n      add\n        /* \"#utility.yul\":25166:25168   */\n      0x20\n        /* \"#utility.yul\":25154:25164   */\n      dup6\n        /* \"#utility.yul\":25151:25169   */\n      lt\n        /* \"#utility.yul\":25148:25197   */\n      iszero\n      tag_403\n      jumpi\n        /* \"#utility.yul\":25187:25195   */\n      dup2\n        /* \"#utility.yul\":25172:25195   */\n      swap1\n      pop\n        /* \"#utility.yul\":25148:25197   */\n    tag_403:\n        /* \"#utility.yul\":25210:25290   */\n      tag_404\n        /* \"#utility.yul\":25266:25288   */\n      tag_405\n        /* \"#utility.yul\":25284:25287   */\n      dup6\n        /* \"#utility.yul\":25266:25288   */\n      tag_171\n      jump\t// in\n    tag_405:\n        /* \"#utility.yul\":25256:25264   */\n      dup4\n        /* \"#utility.yul\":25252:25289   */\n      add\n        /* \"#utility.yul\":25239:25250   */\n      dup3\n        /* \"#utility.yul\":25210:25290   */\n      tag_180\n      jump\t// in\n    tag_404:\n        /* \"#utility.yul\":24869:25300   */\n      pop\n      pop\n        /* \"#utility.yul\":24854:25300   */\n    tag_400:\n        /* \"#utility.yul\":24764:25307   */\n      pop\n      pop\n      pop\n      jump\t// out\n        /* \"#utility.yul\":25313:25430   */\n    tag_182:\n        /* \"#utility.yul\":25367:25375   */\n      0x00\n        /* \"#utility.yul\":25417:25422   */\n      dup3\n        /* \"#utility.yul\":25411:25415   */\n      dup3\n        /* \"#utility.yul\":25407:25423   */\n      shr\n        /* \"#utility.yul\":25386:25423   */\n      swap1\n      pop\n        /* \"#utility.yul\":25313:25430   */\n      swap3\n      swap2\n      pop\n      pop\n      jump\t// out\n        /* \"#utility.yul\":25436:25605   */\n    tag_183:\n        /* \"#utility.yul\":25480:25486   */\n      0x00\n        /* \"#utility.yul\":25513:25564   */\n      tag_408\n        /* \"#utility.yul\":25561:25562   */\n      0x00\n        /* \"#utility.yul\":25557:25563   */\n      not\n        /* \"#utility.yul\":25549:25554   */\n      dup5\n        /* \"#utility.yul\":25546:25547   */\n      0x08\n        /* \"#utility.yul\":25542:25555   */\n      mul\n        /* \"#utility.yul\":25513:25564   */\n      tag_182\n      jump\t// in\n    tag_408:\n        /* \"#utility.yul\":25509:25565   */\n      not\n        /* \"#utility.yul\":25594:25598   */\n      dup1\n        /* \"#utility.yul\":25588:25592   */\n      dup4\n        /* \"#utility.yul\":25584:25599   */\n      and\n        /* \"#utility.yul\":25574:25599   */\n      swap2\n      pop\n        /* \"#utility.yul\":25487:25605   */\n      pop\n        /* \"#utility.yul\":25436:25605   */\n      swap3\n      swap2\n      pop\n      pop\n      jump\t// out\n        /* \"#utility.yul\":25610:25905   */\n    tag_184:\n        /* \"#utility.yul\":25686:25690   */\n      0x00\n        /* \"#utility.yul\":25832:25861   */\n      tag_410\n        /* \"#utility.yul\":25857:25860   */\n      dup4\n        /* \"#utility.yul\":25851:25855   */\n      dup4\n        /* \"#utility.yul\":25832:25861   */\n      tag_183\n      jump\t// in\n    tag_410:\n        /* \"#utility.yul\":25824:25861   */\n      swap2\n      pop\n        /* \"#utility.yul\":25894:25897   */\n      dup3\n        /* \"#utility.yul\":25891:25892   */\n      0x02\n        /* \"#utility.yul\":25887:25898   */\n      mul\n        /* \"#utility.yul\":25881:25885   */\n      dup3\n        /* \"#utility.yul\":25878:25899   */\n      or\n        /* \"#utility.yul\":25870:25899   */\n      swap1\n      pop\n        /* \"#utility.yul\":25610:25905   */\n      swap3\n      swap2\n      pop\n      pop\n      jump\t// out\n        /* \"#utility.yul\":25910:27305   */\n    tag_120:\n        /* \"#utility.yul\":26027:26064   */\n      tag_412\n        /* \"#utility.yul\":26060:26063   */\n      dup3\n        /* \"#utility.yul\":26027:26064   */\n      tag_138\n      jump\t// in\n    tag_412:\n        /* \"#utility.yul\":26129:26147   */\n      0xffffffffffffffff\n        /* \"#utility.yul\":26121:26127   */\n      dup2\n        /* \"#utility.yul\":26118:26148   */\n      gt\n        /* \"#utility.yul\":26115:26171   */\n      iszero\n      tag_413\n      jumpi\n        /* \"#utility.yul\":26151:26169   */\n      tag_414\n      tag_131\n      jump\t// in\n    tag_414:\n        /* \"#utility.yul\":26115:26171   */\n    tag_413:\n        /* \"#utility.yul\":26195:26233   */\n      tag_415\n        /* \"#utility.yul\":26227:26231   */\n      dup3\n        /* \"#utility.yul\":26221:26232   */\n      sload\n        /* \"#utility.yul\":26195:26233   */\n      tag_64\n      jump\t// in\n    tag_415:\n        /* \"#utility.yul\":26280:26347   */\n      tag_416\n        /* \"#utility.yul\":26340:26346   */\n      dup3\n        /* \"#utility.yul\":26332:26338   */\n      dup3\n        /* \"#utility.yul\":26326:26330   */\n      dup6\n        /* \"#utility.yul\":26280:26347   */\n      tag_181\n      jump\t// in\n    tag_416:\n        /* \"#utility.yul\":26374:26375   */\n      0x00\n        /* \"#utility.yul\":26398:26402   */\n      0x20\n        /* \"#utility.yul\":26385:26402   */\n      swap1\n      pop\n        /* \"#utility.yul\":26430:26432   */\n      0x1f\n        /* \"#utility.yul\":26422:26428   */\n      dup4\n        /* \"#utility.yul\":26419:26433   */\n      gt\n        /* \"#utility.yul\":26447:26448   */\n      0x01\n        /* \"#utility.yul\":26442:27060   */\n      dup2\n      eq\n      tag_418\n      jumpi\n        /* \"#utility.yul\":27104:27105   */\n      0x00\n        /* \"#utility.yul\":27121:27127   */\n      dup5\n        /* \"#utility.yul\":27118:27195   */\n      iszero\n      tag_419\n      jumpi\n        /* \"#utility.yul\":27170:27179   */\n      dup3\n        /* \"#utility.yul\":27165:27168   */\n      dup8\n        /* \"#utility.yul\":27161:27180   */\n      add\n        /* \"#utility.yul\":27155:27181   */\n      mload\n        /* \"#utility.yul\":27146:27181   */\n      swap1\n      pop\n        /* \"#utility.yul\":27118:27195   */\n    tag_419:\n        /* \"#utility.yul\":27221:27288   */\n      tag_420\n        /* \"#utility.yul\":27281:27287   */\n      dup6\n        /* \"#utility.yul\":27274:27279   */\n      dup3\n        /* \"#utility.yul\":27221:27288   */\n      tag_184\n      jump\t// in\n    tag_420:\n        /* \"#utility.yul\":27215:27219   */\n      dup7\n        /* \"#utility.yul\":27208:27289   */\n      sstore\n        /* \"#utility.yul\":27077:27299   */\n      pop\n        /* \"#utility.yul\":26412:27299   */\n      jump(tag_417)\n        /* \"#utility.yul\":26442:27060   */\n    tag_418:\n        /* \"#utility.yul\":26494:26498   */\n      0x1f\n        /* \"#utility.yul\":26490:26499   */\n      not\n        /* \"#utility.yul\":26482:26488   */\n      dup5\n        /* \"#utility.yul\":26478:26500   */\n      and\n        /* \"#utility.yul\":26528:26565   */\n      tag_421\n        /* \"#utility.yul\":26560:26564   */\n      dup7\n        /* \"#utility.yul\":26528:26565   */\n      tag_170\n      jump\t// in\n    tag_421:\n        /* \"#utility.yul\":26587:26588   */\n      0x00\n        /* \"#utility.yul\":26601:26809   */\n    tag_422:\n        /* \"#utility.yul\":26615:26622   */\n      dup3\n        /* \"#utility.yul\":26612:26613   */\n      dup2\n        /* \"#utility.yul\":26609:26623   */\n      lt\n        /* \"#utility.yul\":26601:26809   */\n      iszero\n      tag_424\n      jumpi\n        /* \"#utility.yul\":26694:26703   */\n      dup5\n        /* \"#utility.yul\":26689:26692   */\n      dup10\n        /* \"#utility.yul\":26685:26704   */\n      add\n        /* \"#utility.yul\":26679:26705   */\n      mload\n        /* \"#utility.yul\":26671:26677   */\n      dup3\n        /* \"#utility.yul\":26664:26706   */\n      sstore\n        /* \"#utility.yul\":26745:26746   */\n      0x01\n        /* \"#utility.yul\":26737:26743   */\n      dup3\n        /* \"#utility.yul\":26733:26747   */\n      add\n        /* \"#utility.yul\":26723:26747   */\n      swap2\n      pop\n        /* \"#utility.yul\":26792:26794   */\n      0x20\n        /* \"#utility.yul\":26781:26790   */\n      dup6\n        /* \"#utility.yul\":26777:26795   */\n      add\n        /* \"#utility.yul\":26764:26795   */\n      swap5\n      pop\n        /* \"#utility.yul\":26638:26642   */\n      0x20\n        /* \"#utility.yul\":26635:26636   */\n      dup2\n        /* \"#utility.yul\":26631:26643   */\n      add\n        /* \"#utility.yul\":26626:26643   */\n      swap1\n      pop\n        /* \"#utility.yul\":26601:26809   */\n      jump(tag_422)\n    tag_424:\n        /* \"#utility.yul\":26837:26843   */\n      dup7\n        /* \"#utility.yul\":26828:26835   */\n      dup4\n        /* \"#utility.yul\":26825:26844   */\n      lt\n        /* \"#utility.yul\":26822:27001   */\n      iszero\n      tag_425\n      jumpi\n        /* \"#utility.yul\":26895:26904   */\n      dup5\n        /* \"#utility.yul\":26890:26893   */\n      dup10\n        /* \"#utility.yul\":26886:26905   */\n      add\n        /* \"#utility.yul\":26880:26906   */\n      mload\n        /* \"#utility.yul\":26938:26986   */\n      tag_426\n        /* \"#utility.yul\":26980:26984   */\n      0x1f\n        /* \"#utility.yul\":26972:26978   */\n      dup10\n        /* \"#utility.yul\":26968:26985   */\n      and\n        /* \"#utility.yul\":26957:26966   */\n      dup3\n        /* \"#utility.yul\":26938:26986   */\n      tag_183\n      jump\t// in\n    tag_426:\n        /* \"#utility.yul\":26930:26936   */\n      dup4\n        /* \"#utility.yul\":26923:26987   */\n      sstore\n        /* \"#utility.yul\":26845:27001   */\n      pop\n        /* \"#utility.yul\":26822:27001   */\n    tag_425:\n        /* \"#utility.yul\":27047:27048   */\n      0x01\n        /* \"#utility.yul\":27043:27044   */\n      0x02\n        /* \"#utility.yul\":27035:27041   */\n      dup9\n        /* \"#utility.yul\":27031:27045   */\n      mul\n        /* \"#utility.yul\":27027:27049   */\n      add\n        /* \"#utility.yul\":27021:27025   */\n      dup9\n        /* \"#utility.yul\":27014:27050   */\n      sstore\n        /* \"#utility.yul\":26449:27060   */\n      pop\n      pop\n      pop\n        /* \"#utility.yul\":26412:27299   */\n    tag_417:\n      pop\n        /* \"#utility.yul\":26002:27305   */\n      pop\n      pop\n      pop\n        /* \"#utility.yul\":25910:27305   */\n      pop\n      pop\n      jump\t// out\n\n    auxdata: 0xa2646970667358221220100fe084bd26e4772698db303ccafc7d80966445c03c7a5cdd0b1e4d9c3a7e0c64736f6c634300081a0033\n}\n",
				"bytecode": {
					"linkReferences": {},
					"object": "6080604052348015600e575f80fd5b506118388061001c5f395ff3fe608060405260043610610058575f3560e01c80630c5267aa146100fd5780633ccfd60b146101395780636e7033741461014f578063770ce9631461016b578063aff3b5d514610193578063dcaa2597146101d9576100ad565b366100ad573373ffffffffffffffffffffffffffffffffffffffff167f6ef95f06320e7a25a04a175ca677b7052bdd97131872c2192525a629f51be770346040516100a39190610b2e565b60405180910390a2005b3373ffffffffffffffffffffffffffffffffffffffff167f6ef95f06320e7a25a04a175ca677b7052bdd97131872c2192525a629f51be770346040516100f39190610b2e565b60405180910390a2005b348015610108575f80fd5b50610123600480360381019061011e9190610c94565b610215565b6040516101309190610e55565b60405180910390f35b348015610144575f80fd5b5061014d610472565b005b61016960048036038101906101649190610ec9565b6104fa565b005b348015610176575f80fd5b50610191600480360381019061018c9190610ec9565b6105aa565b005b34801561019e575f80fd5b506101b960048036038101906101b49190610fee565b6105ca565b6040516101d09b9a9998979695949392919061109f565b60405180910390f35b3480156101e4575f80fd5b506101ff60048036038101906101fa9190610c94565b61075d565b60405161020c9190611304565b60405180910390f35b61021d610ac5565b5f808360405161022d919061135e565b9081526020016040518091039020805490501161027f576040517f08c379a0000000000000000000000000000000000000000000000000000000008152600401610276906113be565b60405180910390fd5b5f8260405161028e919061135e565b908152602001604051809103902060015f846040516102ad919061135e565b9081526020016040518091039020805490506102c99190611409565b815481106102da576102d961143c565b5b905f5260205f2090600b0201604051806101600160405290815f8201805461030190611496565b80601f016020809104026020016040519081016040528092919081815260200182805461032d90611496565b80156103785780601f1061034f57610100808354040283529160200191610378565b820191905f5260205f20905b81548152906001019060200180831161035b57829003601f168201915b50505050508152602001600182015481526020016002820154815260200160038201548152602001600482015481526020016005820154815260200160068201548152602001600782015481526020016008820154815260200160098201548152602001600a820180546103eb90611496565b80601f016020809104026020016040519081016040528092919081815260200182805461041790611496565b80156104625780601f1061043957610100808354040283529160200191610462565b820191905f5260205f20905b81548152906001019060200180831161044557829003601f168201915b5050505050815250509050919050565b5f47116104b4576040517f08c379a00000000000000000000000000000000000000000000000000000000081526004016104ab90611510565b60405180910390fd5b3373ffffffffffffffffffffffffffffffffffffffff166108fc4790811502906040515f60405180830381858888f193505050501580156104f7573d5f803e3d5ffd5b50565b5f341161053c576040517f08c379a000000000000000000000000000000000000000000000000000000000815260040161053390611578565b60405180910390fd5b61054f8b8b8b8b8b8b8b8b8b8b8b610950565b3373ffffffffffffffffffffffffffffffffffffffff167f6ef95f06320e7a25a04a175ca677b7052bdd97131872c2192525a629f51be770346040516105959190610b2e565b60405180910390a25050505050505050505050565b6105bd8b8b8b8b8b8b8b8b8b8b8b610950565b5050505050505050505050565b5f8280516020810182018051848252602083016020850120818352809550505050505081815481106105fa575f80fd5b905f5260205f2090600b02015f9150915050805f01805461061a90611496565b80601f016020809104026020016040519081016040528092919081815260200182805461064690611496565b80156106915780601f1061066857610100808354040283529160200191610691565b820191905f5260205f20905b81548152906001019060200180831161067457829003601f168201915b50505050509080600101549080600201549080600301549080600401549080600501549080600601549080600701549080600801549080600901549080600a0180546106dc90611496565b80601f016020809104026020016040519081016040528092919081815260200182805461070890611496565b80156107535780601f1061072a57610100808354040283529160200191610753565b820191905f5260205f20905b81548152906001019060200180831161073657829003601f168201915b505050505090508b565b60605f8260405161076e919061135e565b9081526020016040518091039020805480602002602001604051908101604052809291908181526020015f905b82821015610945578382905f5260205f2090600b0201604051806101600160405290815f820180546107cc90611496565b80601f01602080910402602001604051908101604052809291908181526020018280546107f890611496565b80156108435780601f1061081a57610100808354040283529160200191610843565b820191905f5260205f20905b81548152906001019060200180831161082657829003601f168201915b50505050508152602001600182015481526020016002820154815260200160038201548152602001600482015481526020016005820154815260200160068201548152602001600782015481526020016008820154815260200160098201548152602001600a820180546108b690611496565b80601f01602080910402602001604051908101604052809291908181526020018280546108e290611496565b801561092d5780601f106109045761010080835404028352916020019161092d565b820191905f5260205f20905b81548152906001019060200180831161091057829003601f168201915b5050505050815250508152602001906001019061079b565b505050509050919050565b5f6040518061016001604052808d81526020018c81526020018b81526020018a81526020018981526020018881526020018781526020018681526020018581526020018481526020018381525090505f8c6040516109ae919061135e565b908152602001604051809103902081908060018154018082558091505060019003905f5260205f2090600b02015f909190919091505f820151815f0190816109f69190611733565b506020820151816001015560408201518160020155606082015181600301556080820151816004015560a0820151816005015560c0820151816006015560e082015181600701556101008201518160080155610120820151816009015561014082015181600a019081610a699190611733565b5050507f301d7a373d9050944f8aefb1618f1de73dda6353a8fdf17798aaab5047270a958c8c8c8c8c8c8c8c8c8c8c604051610aaf9b9a9998979695949392919061109f565b60405180910390a1505050505050505050505050565b604051806101600160405280606081526020015f81526020015f81526020015f81526020015f81526020015f81526020015f81526020015f81526020015f81526020015f8152602001606081525090565b5f819050919050565b610b2881610b16565b82525050565b5f602082019050610b415f830184610b1f565b92915050565b5f604051905090565b5f80fd5b5f80fd5b5f80fd5b5f80fd5b5f601f19601f8301169050919050565b7f4e487b71000000000000000000000000000000000000000000000000000000005f52604160045260245ffd5b610ba682610b60565b810181811067ffffffffffffffff82111715610bc557610bc4610b70565b5b80604052505050565b5f610bd7610b47565b9050610be38282610b9d565b919050565b5f67ffffffffffffffff821115610c0257610c01610b70565b5b610c0b82610b60565b9050602081019050919050565b828183375f83830152505050565b5f610c38610c3384610be8565b610bce565b905082815260208101848484011115610c5457610c53610b5c565b5b610c5f848285610c18565b509392505050565b5f82601f830112610c7b57610c7a610b58565b5b8135610c8b848260208601610c26565b91505092915050565b5f60208284031215610ca957610ca8610b50565b5b5f82013567ffffffffffffffff811115610cc657610cc5610b54565b5b610cd284828501610c67565b91505092915050565b5f81519050919050565b5f82825260208201905092915050565b8281835e5f83830152505050565b5f610d0d82610cdb565b610d178185610ce5565b9350610d27818560208601610cf5565b610d3081610b60565b840191505092915050565b610d4481610b16565b82525050565b5f819050919050565b610d5c81610d4a565b82525050565b5f61016083015f8301518482035f860152610d7d8282610d03565b9150506020830151610d926020860182610d3b565b506040830151610da56040860182610d3b565b506060830151610db86060860182610d3b565b506080830151610dcb6080860182610d3b565b5060a0830151610dde60a0860182610d3b565b5060c0830151610df160c0860182610d3b565b5060e0830151610e0460e0860182610d3b565b50610100830151610e19610100860182610d3b565b50610120830151610e2e610120860182610d53565b50610140830151848203610140860152610e488282610d03565b9150508091505092915050565b5f6020820190508181035f830152610e6d8184610d62565b905092915050565b610e7e81610b16565b8114610e88575f80fd5b50565b5f81359050610e9981610e75565b92915050565b610ea881610d4a565b8114610eb2575f80fd5b50565b5f81359050610ec381610e9f565b92915050565b5f805f805f805f805f805f6101608c8e031215610ee957610ee8610b50565b5b5f8c013567ffffffffffffffff811115610f0657610f05610b54565b5b610f128e828f01610c67565b9b50506020610f238e828f01610e8b565b9a50506040610f348e828f01610e8b565b9950506060610f458e828f01610e8b565b9850506080610f568e828f01610e8b565b97505060a0610f678e828f01610e8b565b96505060c0610f788e828f01610e8b565b95505060e0610f898e828f01610e8b565b945050610100610f9b8e828f01610e8b565b935050610120610fad8e828f01610eb5565b9250506101408c013567ffffffffffffffff811115610fcf57610fce610b54565b5b610fdb8e828f01610c67565b9150509295989b509295989b9093969950565b5f806040838503121561100457611003610b50565b5b5f83013567ffffffffffffffff81111561102157611020610b54565b5b61102d85828601610c67565b925050602061103e85828601610e8b565b9150509250929050565b5f82825260208201905092915050565b5f61106282610cdb565b61106c8185611048565b935061107c818560208601610cf5565b61108581610b60565b840191505092915050565b61109981610d4a565b82525050565b5f610160820190508181035f8301526110b8818e611058565b90506110c7602083018d610b1f565b6110d4604083018c610b1f565b6110e1606083018b610b1f565b6110ee608083018a610b1f565b6110fb60a0830189610b1f565b61110860c0830188610b1f565b61111560e0830187610b1f565b611123610100830186610b1f565b611131610120830185611090565b8181036101408301526111448184611058565b90509c9b505050505050505050505050565b5f81519050919050565b5f82825260208201905092915050565b5f819050602082019050919050565b5f61016083015f8301518482035f86015261119a8282610d03565b91505060208301516111af6020860182610d3b565b5060408301516111c26040860182610d3b565b5060608301516111d56060860182610d3b565b5060808301516111e86080860182610d3b565b5060a08301516111fb60a0860182610d3b565b5060c083015161120e60c0860182610d3b565b5060e083015161122160e0860182610d3b565b50610100830151611236610100860182610d3b565b5061012083015161124b610120860182610d53565b506101408301518482036101408601526112658282610d03565b9150508091505092915050565b5f61127d838361117f565b905092915050565b5f602082019050919050565b5f61129b82611156565b6112a58185611160565b9350836020820285016112b785611170565b805f5b858110156112f257848403895281516112d38582611272565b94506112de83611285565b925060208a019950506001810190506112ba565b50829750879550505050505092915050565b5f6020820190508181035f83015261131c8184611291565b905092915050565b5f81905092915050565b5f61133882610cdb565b6113428185611324565b9350611352818560208601610cf5565b80840191505092915050565b5f611369828461132e565b915081905092915050565b7f4e6f206461746120617661696c61626c6520666f7220746869732061726561215f82015250565b5f6113a8602083611048565b91506113b382611374565b602082019050919050565b5f6020820190508181035f8301526113d58161139c565b9050919050565b7f4e487b71000000000000000000000000000000000000000000000000000000005f52601160045260245ffd5b5f61141382610b16565b915061141e83610b16565b9250828203905081811115611436576114356113dc565b5b92915050565b7f4e487b71000000000000000000000000000000000000000000000000000000005f52603260045260245ffd5b7f4e487b71000000000000000000000000000000000000000000000000000000005f52602260045260245ffd5b5f60028204905060018216806114ad57607f821691505b6020821081036114c0576114bf611469565b5b50919050565b7f4e6f2062616c616e636520746f207769746864726177000000000000000000005f82015250565b5f6114fa601683611048565b9150611505826114c6565b602082019050919050565b5f6020820190508181035f830152611527816114ee565b9050919050565b7f5061796d656e74207265717569726564000000000000000000000000000000005f82015250565b5f611562601083611048565b915061156d8261152e565b602082019050919050565b5f6020820190508181035f83015261158f81611556565b9050919050565b5f819050815f5260205f209050919050565b5f6020601f8301049050919050565b5f82821b905092915050565b5f600883026115f27fffffffffffffffffffffffffffffffffffffffffffffffffffffffffffffffff826115b7565b6115fc86836115b7565b95508019841693508086168417925050509392505050565b5f819050919050565b5f61163761163261162d84610b16565b611614565b610b16565b9050919050565b5f819050919050565b6116508361161d565b61166461165c8261163e565b8484546115c3565b825550505050565b5f90565b61167861166c565b611683818484611647565b505050565b5b818110156116a65761169b5f82611670565b600181019050611689565b5050565b601f8211156116eb576116bc81611596565b6116c5846115a8565b810160208510156116d4578190505b6116e86116e0856115a8565b830182611688565b50505b505050565b5f82821c905092915050565b5f61170b5f19846008026116f0565b1980831691505092915050565b5f61172383836116fc565b9150826002028217905092915050565b61173c82610cdb565b67ffffffffffffffff81111561175557611754610b70565b5b61175f8254611496565b61176a8282856116aa565b5f60209050601f83116001811461179b575f8415611789578287015190505b6117938582611718565b8655506117fa565b601f1984166117a986611596565b5f5b828110156117d0578489015182556001820191506020850194506020810190506117ab565b868310156117ed57848901516117e9601f8916826116fc565b8355505b6001600288020188555050505b50505050505056fea2646970667358221220100fe084bd26e4772698db303ccafc7d80966445c03c7a5cdd0b1e4d9c3a7e0c64736f6c634300081a0033",
					"opcodes": "PUSH1 0x80 PUSH1 0x40 MSTORE CALLVALUE DUP1 ISZERO PUSH1 0xE JUMPI PUSH0 DUP1 REVERT JUMPDEST POP PUSH2 0x1838 DUP1 PUSH2 0x1C PUSH0 CODECOPY PUSH0 RETURN INVALID PUSH1 0x80 PUSH1 0x40 MSTORE PUSH1 0x4 CALLDATASIZE LT PUSH2 0x58 JUMPI PUSH0 CALLDATALOAD PUSH1 0xE0 SHR DUP1 PUSH4 0xC5267AA EQ PUSH2 0xFD JUMPI DUP1 PUSH4 0x3CCFD60B EQ PUSH2 0x139 JUMPI DUP1 PUSH4 0x6E703374 EQ PUSH2 0x14F JUMPI DUP1 PUSH4 0x770CE963 EQ PUSH2 0x16B JUMPI DUP1 PUSH4 0xAFF3B5D5 EQ PUSH2 0x193 JUMPI DUP1 PUSH4 0xDCAA2597 EQ PUSH2 0x1D9 JUMPI PUSH2 0xAD JUMP JUMPDEST CALLDATASIZE PUSH2 0xAD JUMPI CALLER PUSH20 0xFFFFFFFFFFFFFFFFFFFFFFFFFFFFFFFFFFFFFFFF AND PUSH32 0x6EF95F06320E7A25A04A175CA677B7052BDD97131872C2192525A629F51BE770 CALLVALUE PUSH1 0x40 MLOAD PUSH2 0xA3 SWAP2 SWAP1 PUSH2 0xB2E JUMP JUMPDEST PUSH1 0x40 MLOAD DUP1 SWAP2 SUB SWAP1 LOG2 STOP JUMPDEST CALLER PUSH20 0xFFFFFFFFFFFFFFFFFFFFFFFFFFFFFFFFFFFFFFFF AND PUSH32 0x6EF95F06320E7A25A04A175CA677B7052BDD97131872C2192525A629F51BE770 CALLVALUE PUSH1 0x40 MLOAD PUSH2 0xF3 SWAP2 SWAP1 PUSH2 0xB2E JUMP JUMPDEST PUSH1 0x40 MLOAD DUP1 SWAP2 SUB SWAP1 LOG2 STOP JUMPDEST CALLVALUE DUP1 ISZERO PUSH2 0x108 JUMPI PUSH0 DUP1 REVERT JUMPDEST POP PUSH2 0x123 PUSH1 0x4 DUP1 CALLDATASIZE SUB DUP2 ADD SWAP1 PUSH2 0x11E SWAP2 SWAP1 PUSH2 0xC94 JUMP JUMPDEST PUSH2 0x215 JUMP JUMPDEST PUSH1 0x40 MLOAD PUSH2 0x130 SWAP2 SWAP1 PUSH2 0xE55 JUMP JUMPDEST PUSH1 0x40 MLOAD DUP1 SWAP2 SUB SWAP1 RETURN JUMPDEST CALLVALUE DUP1 ISZERO PUSH2 0x144 JUMPI PUSH0 DUP1 REVERT JUMPDEST POP PUSH2 0x14D PUSH2 0x472 JUMP JUMPDEST STOP JUMPDEST PUSH2 0x169 PUSH1 0x4 DUP1 CALLDATASIZE SUB DUP2 ADD SWAP1 PUSH2 0x164 SWAP2 SWAP1 PUSH2 0xEC9 JUMP JUMPDEST PUSH2 0x4FA JUMP JUMPDEST STOP JUMPDEST CALLVALUE DUP1 ISZERO PUSH2 0x176 JUMPI PUSH0 DUP1 REVERT JUMPDEST POP PUSH2 0x191 PUSH1 0x4 DUP1 CALLDATASIZE SUB DUP2 ADD SWAP1 PUSH2 0x18C SWAP2 SWAP1 PUSH2 0xEC9 JUMP JUMPDEST PUSH2 0x5AA JUMP JUMPDEST STOP JUMPDEST CALLVALUE DUP1 ISZERO PUSH2 0x19E JUMPI PUSH0 DUP1 REVERT JUMPDEST POP PUSH2 0x1B9 PUSH1 0x4 DUP1 CALLDATASIZE SUB DUP2 ADD SWAP1 PUSH2 0x1B4 SWAP2 SWAP1 PUSH2 0xFEE JUMP JUMPDEST PUSH2 0x5CA JUMP JUMPDEST PUSH1 0x40 MLOAD PUSH2 0x1D0 SWAP12 SWAP11 SWAP10 SWAP9 SWAP8 SWAP7 SWAP6 SWAP5 SWAP4 SWAP3 SWAP2 SWAP1 PUSH2 0x109F JUMP JUMPDEST PUSH1 0x40 MLOAD DUP1 SWAP2 SUB SWAP1 RETURN JUMPDEST CALLVALUE DUP1 ISZERO PUSH2 0x1E4 JUMPI PUSH0 DUP1 REVERT JUMPDEST POP PUSH2 0x1FF PUSH1 0x4 DUP1 CALLDATASIZE SUB DUP2 ADD SWAP1 PUSH2 0x1FA SWAP2 SWAP1 PUSH2 0xC94 JUMP JUMPDEST PUSH2 0x75D JUMP JUMPDEST PUSH1 0x40 MLOAD PUSH2 0x20C SWAP2 SWAP1 PUSH2 0x1304 JUMP JUMPDEST PUSH1 0x40 MLOAD DUP1 SWAP2 SUB SWAP1 RETURN JUMPDEST PUSH2 0x21D PUSH2 0xAC5 JUMP JUMPDEST PUSH0 DUP1 DUP4 PUSH1 0x40 MLOAD PUSH2 0x22D SWAP2 SWAP1 PUSH2 0x135E JUMP JUMPDEST SWAP1 DUP2 MSTORE PUSH1 0x20 ADD PUSH1 0x40 MLOAD DUP1 SWAP2 SUB SWAP1 KECCAK256 DUP1 SLOAD SWAP1 POP GT PUSH2 0x27F JUMPI PUSH1 0x40 MLOAD PUSH32 0x8C379A000000000000000000000000000000000000000000000000000000000 DUP2 MSTORE PUSH1 0x4 ADD PUSH2 0x276 SWAP1 PUSH2 0x13BE JUMP JUMPDEST PUSH1 0x40 MLOAD DUP1 SWAP2 SUB SWAP1 REVERT JUMPDEST PUSH0 DUP3 PUSH1 0x40 MLOAD PUSH2 0x28E SWAP2 SWAP1 PUSH2 0x135E JUMP JUMPDEST SWAP1 DUP2 MSTORE PUSH1 0x20 ADD PUSH1 0x40 MLOAD DUP1 SWAP2 SUB SWAP1 KECCAK256 PUSH1 0x1 PUSH0 DUP5 PUSH1 0x40 MLOAD PUSH2 0x2AD SWAP2 SWAP1 PUSH2 0x135E JUMP JUMPDEST SWAP1 DUP2 MSTORE PUSH1 0x20 ADD PUSH1 0x40 MLOAD DUP1 SWAP2 SUB SWAP1 KECCAK256 DUP1 SLOAD SWAP1 POP PUSH2 0x2C9 SWAP2 SWAP1 PUSH2 0x1409 JUMP JUMPDEST DUP2 SLOAD DUP2 LT PUSH2 0x2DA JUMPI PUSH2 0x2D9 PUSH2 0x143C JUMP JUMPDEST JUMPDEST SWAP1 PUSH0 MSTORE PUSH1 0x20 PUSH0 KECCAK256 SWAP1 PUSH1 0xB MUL ADD PUSH1 0x40 MLOAD DUP1 PUSH2 0x160 ADD PUSH1 0x40 MSTORE SWAP1 DUP2 PUSH0 DUP3 ADD DUP1 SLOAD PUSH2 0x301 SWAP1 PUSH2 0x1496 JUMP JUMPDEST DUP1 PUSH1 0x1F ADD PUSH1 0x20 DUP1 SWAP2 DIV MUL PUSH1 0x20 ADD PUSH1 0x40 MLOAD SWAP1 DUP2 ADD PUSH1 0x40 MSTORE DUP1 SWAP3 SWAP2 SWAP1 DUP2 DUP2 MSTORE PUSH1 0x20 ADD DUP3 DUP1 SLOAD PUSH2 0x32D SWAP1 PUSH2 0x1496 JUMP JUMPDEST DUP1 ISZERO PUSH2 0x378 JUMPI DUP1 PUSH1 0x1F LT PUSH2 0x34F JUMPI PUSH2 0x100 DUP1 DUP4 SLOAD DIV MUL DUP4 MSTORE SWAP2 PUSH1 0x20 ADD SWAP2 PUSH2 0x378 JUMP JUMPDEST DUP3 ADD SWAP2 SWAP1 PUSH0 MSTORE PUSH1 0x20 PUSH0 KECCAK256 SWAP1 JUMPDEST DUP2 SLOAD DUP2 MSTORE SWAP1 PUSH1 0x1 ADD SWAP1 PUSH1 0x20 ADD DUP1 DUP4 GT PUSH2 0x35B JUMPI DUP3 SWAP1 SUB PUSH1 0x1F AND DUP3 ADD SWAP2 JUMPDEST POP POP POP POP POP DUP2 MSTORE PUSH1 0x20 ADD PUSH1 0x1 DUP3 ADD SLOAD DUP2 MSTORE PUSH1 0x20 ADD PUSH1 0x2 DUP3 ADD SLOAD DUP2 MSTORE PUSH1 0x20 ADD PUSH1 0x3 DUP3 ADD SLOAD DUP2 MSTORE PUSH1 0x20 ADD PUSH1 0x4 DUP3 ADD SLOAD DUP2 MSTORE PUSH1 0x20 ADD PUSH1 0x5 DUP3 ADD SLOAD DUP2 MSTORE PUSH1 0x20 ADD PUSH1 0x6 DUP3 ADD SLOAD DUP2 MSTORE PUSH1 0x20 ADD PUSH1 0x7 DUP3 ADD SLOAD DUP2 MSTORE PUSH1 0x20 ADD PUSH1 0x8 DUP3 ADD SLOAD DUP2 MSTORE PUSH1 0x20 ADD PUSH1 0x9 DUP3 ADD SLOAD DUP2 MSTORE PUSH1 0x20 ADD PUSH1 0xA DUP3 ADD DUP1 SLOAD PUSH2 0x3EB SWAP1 PUSH2 0x1496 JUMP JUMPDEST DUP1 PUSH1 0x1F ADD PUSH1 0x20 DUP1 SWAP2 DIV MUL PUSH1 0x20 ADD PUSH1 0x40 MLOAD SWAP1 DUP2 ADD PUSH1 0x40 MSTORE DUP1 SWAP3 SWAP2 SWAP1 DUP2 DUP2 MSTORE PUSH1 0x20 ADD DUP3 DUP1 SLOAD PUSH2 0x417 SWAP1 PUSH2 0x1496 JUMP JUMPDEST DUP1 ISZERO PUSH2 0x462 JUMPI DUP1 PUSH1 0x1F LT PUSH2 0x439 JUMPI PUSH2 0x100 DUP1 DUP4 SLOAD DIV MUL DUP4 MSTORE SWAP2 PUSH1 0x20 ADD SWAP2 PUSH2 0x462 JUMP JUMPDEST DUP3 ADD SWAP2 SWAP1 PUSH0 MSTORE PUSH1 0x20 PUSH0 KECCAK256 SWAP1 JUMPDEST DUP2 SLOAD DUP2 MSTORE SWAP1 PUSH1 0x1 ADD SWAP1 PUSH1 0x20 ADD DUP1 DUP4 GT PUSH2 0x445 JUMPI DUP3 SWAP1 SUB PUSH1 0x1F AND DUP3 ADD SWAP2 JUMPDEST POP POP POP POP POP DUP2 MSTORE POP POP SWAP1 POP SWAP2 SWAP1 POP JUMP JUMPDEST PUSH0 SELFBALANCE GT PUSH2 0x4B4 JUMPI PUSH1 0x40 MLOAD PUSH32 0x8C379A000000000000000000000000000000000000000000000000000000000 DUP2 MSTORE PUSH1 0x4 ADD PUSH2 0x4AB SWAP1 PUSH2 0x1510 JUMP JUMPDEST PUSH1 0x40 MLOAD DUP1 SWAP2 SUB SWAP1 REVERT JUMPDEST CALLER PUSH20 0xFFFFFFFFFFFFFFFFFFFFFFFFFFFFFFFFFFFFFFFF AND PUSH2 0x8FC SELFBALANCE SWAP1 DUP2 ISZERO MUL SWAP1 PUSH1 0x40 MLOAD PUSH0 PUSH1 0x40 MLOAD DUP1 DUP4 SUB DUP2 DUP6 DUP9 DUP9 CALL SWAP4 POP POP POP POP ISZERO DUP1 ISZERO PUSH2 0x4F7 JUMPI RETURNDATASIZE PUSH0 DUP1 RETURNDATACOPY RETURNDATASIZE PUSH0 REVERT JUMPDEST POP JUMP JUMPDEST PUSH0 CALLVALUE GT PUSH2 0x53C JUMPI PUSH1 0x40 MLOAD PUSH32 0x8C379A000000000000000000000000000000000000000000000000000000000 DUP2 MSTORE PUSH1 0x4 ADD PUSH2 0x533 SWAP1 PUSH2 0x1578 JUMP JUMPDEST PUSH1 0x40 MLOAD DUP1 SWAP2 SUB SWAP1 REVERT JUMPDEST PUSH2 0x54F DUP12 DUP12 DUP12 DUP12 DUP12 DUP12 DUP12 DUP12 DUP12 DUP12 DUP12 PUSH2 0x950 JUMP JUMPDEST CALLER PUSH20 0xFFFFFFFFFFFFFFFFFFFFFFFFFFFFFFFFFFFFFFFF AND PUSH32 0x6EF95F06320E7A25A04A175CA677B7052BDD97131872C2192525A629F51BE770 CALLVALUE PUSH1 0x40 MLOAD PUSH2 0x595 SWAP2 SWAP1 PUSH2 0xB2E JUMP JUMPDEST PUSH1 0x40 MLOAD DUP1 SWAP2 SUB SWAP1 LOG2 POP POP POP POP POP POP POP POP POP POP POP JUMP JUMPDEST PUSH2 0x5BD DUP12 DUP12 DUP12 DUP12 DUP12 DUP12 DUP12 DUP12 DUP12 DUP12 DUP12 PUSH2 0x950 JUMP JUMPDEST POP POP POP POP POP POP POP POP POP POP POP JUMP JUMPDEST PUSH0 DUP3 DUP1 MLOAD PUSH1 0x20 DUP2 ADD DUP3 ADD DUP1 MLOAD DUP5 DUP3 MSTORE PUSH1 0x20 DUP4 ADD PUSH1 0x20 DUP6 ADD KECCAK256 DUP2 DUP4 MSTORE DUP1 SWAP6 POP POP POP POP POP POP DUP2 DUP2 SLOAD DUP2 LT PUSH2 0x5FA JUMPI PUSH0 DUP1 REVERT JUMPDEST SWAP1 PUSH0 MSTORE PUSH1 0x20 PUSH0 KECCAK256 SWAP1 PUSH1 0xB MUL ADD PUSH0 SWAP2 POP SWAP2 POP POP DUP1 PUSH0 ADD DUP1 SLOAD PUSH2 0x61A SWAP1 PUSH2 0x1496 JUMP JUMPDEST DUP1 PUSH1 0x1F ADD PUSH1 0x20 DUP1 SWAP2 DIV MUL PUSH1 0x20 ADD PUSH1 0x40 MLOAD SWAP1 DUP2 ADD PUSH1 0x40 MSTORE DUP1 SWAP3 SWAP2 SWAP1 DUP2 DUP2 MSTORE PUSH1 0x20 ADD DUP3 DUP1 SLOAD PUSH2 0x646 SWAP1 PUSH2 0x1496 JUMP JUMPDEST DUP1 ISZERO PUSH2 0x691 JUMPI DUP1 PUSH1 0x1F LT PUSH2 0x668 JUMPI PUSH2 0x100 DUP1 DUP4 SLOAD DIV MUL DUP4 MSTORE SWAP2 PUSH1 0x20 ADD SWAP2 PUSH2 0x691 JUMP JUMPDEST DUP3 ADD SWAP2 SWAP1 PUSH0 MSTORE PUSH1 0x20 PUSH0 KECCAK256 SWAP1 JUMPDEST DUP2 SLOAD DUP2 MSTORE SWAP1 PUSH1 0x1 ADD SWAP1 PUSH1 0x20 ADD DUP1 DUP4 GT PUSH2 0x674 JUMPI DUP3 SWAP1 SUB PUSH1 0x1F AND DUP3 ADD SWAP2 JUMPDEST POP POP POP POP POP SWAP1 DUP1 PUSH1 0x1 ADD SLOAD SWAP1 DUP1 PUSH1 0x2 ADD SLOAD SWAP1 DUP1 PUSH1 0x3 ADD SLOAD SWAP1 DUP1 PUSH1 0x4 ADD SLOAD SWAP1 DUP1 PUSH1 0x5 ADD SLOAD SWAP1 DUP1 PUSH1 0x6 ADD SLOAD SWAP1 DUP1 PUSH1 0x7 ADD SLOAD SWAP1 DUP1 PUSH1 0x8 ADD SLOAD SWAP1 DUP1 PUSH1 0x9 ADD SLOAD SWAP1 DUP1 PUSH1 0xA ADD DUP1 SLOAD PUSH2 0x6DC SWAP1 PUSH2 0x1496 JUMP JUMPDEST DUP1 PUSH1 0x1F ADD PUSH1 0x20 DUP1 SWAP2 DIV MUL PUSH1 0x20 ADD PUSH1 0x40 MLOAD SWAP1 DUP2 ADD PUSH1 0x40 MSTORE DUP1 SWAP3 SWAP2 SWAP1 DUP2 DUP2 MSTORE PUSH1 0x20 ADD DUP3 DUP1 SLOAD PUSH2 0x708 SWAP1 PUSH2 0x1496 JUMP JUMPDEST DUP1 ISZERO PUSH2 0x753 JUMPI DUP1 PUSH1 0x1F LT PUSH2 0x72A JUMPI PUSH2 0x100 DUP1 DUP4 SLOAD DIV MUL DUP4 MSTORE SWAP2 PUSH1 0x20 ADD SWAP2 PUSH2 0x753 JUMP JUMPDEST DUP3 ADD SWAP2 SWAP1 PUSH0 MSTORE PUSH1 0x20 PUSH0 KECCAK256 SWAP1 JUMPDEST DUP2 SLOAD DUP2 MSTORE SWAP1 PUSH1 0x1 ADD SWAP1 PUSH1 0x20 ADD DUP1 DUP4 GT PUSH2 0x736 JUMPI DUP3 SWAP1 SUB PUSH1 0x1F AND DUP3 ADD SWAP2 JUMPDEST POP POP POP POP POP SWAP1 POP DUP12 JUMP JUMPDEST PUSH1 0x60 PUSH0 DUP3 PUSH1 0x40 MLOAD PUSH2 0x76E SWAP2 SWAP1 PUSH2 0x135E JUMP JUMPDEST SWAP1 DUP2 MSTORE PUSH1 0x20 ADD PUSH1 0x40 MLOAD DUP1 SWAP2 SUB SWAP1 KECCAK256 DUP1 SLOAD DUP1 PUSH1 0x20 MUL PUSH1 0x20 ADD PUSH1 0x40 MLOAD SWAP1 DUP2 ADD PUSH1 0x40 MSTORE DUP1 SWAP3 SWAP2 SWAP1 DUP2 DUP2 MSTORE PUSH1 0x20 ADD PUSH0 SWAP1 JUMPDEST DUP3 DUP3 LT ISZERO PUSH2 0x945 JUMPI DUP4 DUP3 SWAP1 PUSH0 MSTORE PUSH1 0x20 PUSH0 KECCAK256 SWAP1 PUSH1 0xB MUL ADD PUSH1 0x40 MLOAD DUP1 PUSH2 0x160 ADD PUSH1 0x40 MSTORE SWAP1 DUP2 PUSH0 DUP3 ADD DUP1 SLOAD PUSH2 0x7CC SWAP1 PUSH2 0x1496 JUMP JUMPDEST DUP1 PUSH1 0x1F ADD PUSH1 0x20 DUP1 SWAP2 DIV MUL PUSH1 0x20 ADD PUSH1 0x40 MLOAD SWAP1 DUP2 ADD PUSH1 0x40 MSTORE DUP1 SWAP3 SWAP2 SWAP1 DUP2 DUP2 MSTORE PUSH1 0x20 ADD DUP3 DUP1 SLOAD PUSH2 0x7F8 SWAP1 PUSH2 0x1496 JUMP JUMPDEST DUP1 ISZERO PUSH2 0x843 JUMPI DUP1 PUSH1 0x1F LT PUSH2 0x81A JUMPI PUSH2 0x100 DUP1 DUP4 SLOAD DIV MUL DUP4 MSTORE SWAP2 PUSH1 0x20 ADD SWAP2 PUSH2 0x843 JUMP JUMPDEST DUP3 ADD SWAP2 SWAP1 PUSH0 MSTORE PUSH1 0x20 PUSH0 KECCAK256 SWAP1 JUMPDEST DUP2 SLOAD DUP2 MSTORE SWAP1 PUSH1 0x1 ADD SWAP1 PUSH1 0x20 ADD DUP1 DUP4 GT PUSH2 0x826 JUMPI DUP3 SWAP1 SUB PUSH1 0x1F AND DUP3 ADD SWAP2 JUMPDEST POP POP POP POP POP DUP2 MSTORE PUSH1 0x20 ADD PUSH1 0x1 DUP3 ADD SLOAD DUP2 MSTORE PUSH1 0x20 ADD PUSH1 0x2 DUP3 ADD SLOAD DUP2 MSTORE PUSH1 0x20 ADD PUSH1 0x3 DUP3 ADD SLOAD DUP2 MSTORE PUSH1 0x20 ADD PUSH1 0x4 DUP3 ADD SLOAD DUP2 MSTORE PUSH1 0x20 ADD PUSH1 0x5 DUP3 ADD SLOAD DUP2 MSTORE PUSH1 0x20 ADD PUSH1 0x6 DUP3 ADD SLOAD DUP2 MSTORE PUSH1 0x20 ADD PUSH1 0x7 DUP3 ADD SLOAD DUP2 MSTORE PUSH1 0x20 ADD PUSH1 0x8 DUP3 ADD SLOAD DUP2 MSTORE PUSH1 0x20 ADD PUSH1 0x9 DUP3 ADD SLOAD DUP2 MSTORE PUSH1 0x20 ADD PUSH1 0xA DUP3 ADD DUP1 SLOAD PUSH2 0x8B6 SWAP1 PUSH2 0x1496 JUMP JUMPDEST DUP1 PUSH1 0x1F ADD PUSH1 0x20 DUP1 SWAP2 DIV MUL PUSH1 0x20 ADD PUSH1 0x40 MLOAD SWAP1 DUP2 ADD PUSH1 0x40 MSTORE DUP1 SWAP3 SWAP2 SWAP1 DUP2 DUP2 MSTORE PUSH1 0x20 ADD DUP3 DUP1 SLOAD PUSH2 0x8E2 SWAP1 PUSH2 0x1496 JUMP JUMPDEST DUP1 ISZERO PUSH2 0x92D JUMPI DUP1 PUSH1 0x1F LT PUSH2 0x904 JUMPI PUSH2 0x100 DUP1 DUP4 SLOAD DIV MUL DUP4 MSTORE SWAP2 PUSH1 0x20 ADD SWAP2 PUSH2 0x92D JUMP JUMPDEST DUP3 ADD SWAP2 SWAP1 PUSH0 MSTORE PUSH1 0x20 PUSH0 KECCAK256 SWAP1 JUMPDEST DUP2 SLOAD DUP2 MSTORE SWAP1 PUSH1 0x1 ADD SWAP1 PUSH1 0x20 ADD DUP1 DUP4 GT PUSH2 0x910 JUMPI DUP3 SWAP1 SUB PUSH1 0x1F AND DUP3 ADD SWAP2 JUMPDEST POP POP POP POP POP DUP2 MSTORE POP POP DUP2 MSTORE PUSH1 0x20 ADD SWAP1 PUSH1 0x1 ADD SWAP1 PUSH2 0x79B JUMP JUMPDEST POP POP POP POP SWAP1 POP SWAP2 SWAP1 POP JUMP JUMPDEST PUSH0 PUSH1 0x40 MLOAD DUP1 PUSH2 0x160 ADD PUSH1 0x40 MSTORE DUP1 DUP14 DUP2 MSTORE PUSH1 0x20 ADD DUP13 DUP2 MSTORE PUSH1 0x20 ADD DUP12 DUP2 MSTORE PUSH1 0x20 ADD DUP11 DUP2 MSTORE PUSH1 0x20 ADD DUP10 DUP2 MSTORE PUSH1 0x20 ADD DUP9 DUP2 MSTORE PUSH1 0x20 ADD DUP8 DUP2 MSTORE PUSH1 0x20 ADD DUP7 DUP2 MSTORE PUSH1 0x20 ADD DUP6 DUP2 MSTORE PUSH1 0x20 ADD DUP5 DUP2 MSTORE PUSH1 0x20 ADD DUP4 DUP2 MSTORE POP SWAP1 POP PUSH0 DUP13 PUSH1 0x40 MLOAD PUSH2 0x9AE SWAP2 SWAP1 PUSH2 0x135E JUMP JUMPDEST SWAP1 DUP2 MSTORE PUSH1 0x20 ADD PUSH1 0x40 MLOAD DUP1 SWAP2 SUB SWAP1 KECCAK256 DUP2 SWAP1 DUP1 PUSH1 0x1 DUP2 SLOAD ADD DUP1 DUP3 SSTORE DUP1 SWAP2 POP POP PUSH1 0x1 SWAP1 SUB SWAP1 PUSH0 MSTORE PUSH1 0x20 PUSH0 KECCAK256 SWAP1 PUSH1 0xB MUL ADD PUSH0 SWAP1 SWAP2 SWAP1 SWAP2 SWAP1 SWAP2 POP PUSH0 DUP3 ADD MLOAD DUP2 PUSH0 ADD SWAP1 DUP2 PUSH2 0x9F6 SWAP2 SWAP1 PUSH2 0x1733 JUMP JUMPDEST POP PUSH1 0x20 DUP3 ADD MLOAD DUP2 PUSH1 0x1 ADD SSTORE PUSH1 0x40 DUP3 ADD MLOAD DUP2 PUSH1 0x2 ADD SSTORE PUSH1 0x60 DUP3 ADD MLOAD DUP2 PUSH1 0x3 ADD SSTORE PUSH1 0x80 DUP3 ADD MLOAD DUP2 PUSH1 0x4 ADD SSTORE PUSH1 0xA0 DUP3 ADD MLOAD DUP2 PUSH1 0x5 ADD SSTORE PUSH1 0xC0 DUP3 ADD MLOAD DUP2 PUSH1 0x6 ADD SSTORE PUSH1 0xE0 DUP3 ADD MLOAD DUP2 PUSH1 0x7 ADD SSTORE PUSH2 0x100 DUP3 ADD MLOAD DUP2 PUSH1 0x8 ADD SSTORE PUSH2 0x120 DUP3 ADD MLOAD DUP2 PUSH1 0x9 ADD SSTORE PUSH2 0x140 DUP3 ADD MLOAD DUP2 PUSH1 0xA ADD SWAP1 DUP2 PUSH2 0xA69 SWAP2 SWAP1 PUSH2 0x1733 JUMP JUMPDEST POP POP POP PUSH32 0x301D7A373D9050944F8AEFB1618F1DE73DDA6353A8FDF17798AAAB5047270A95 DUP13 DUP13 DUP13 DUP13 DUP13 DUP13 DUP13 DUP13 DUP13 DUP13 DUP13 PUSH1 0x40 MLOAD PUSH2 0xAAF SWAP12 SWAP11 SWAP10 SWAP9 SWAP8 SWAP7 SWAP6 SWAP5 SWAP4 SWAP3 SWAP2 SWAP1 PUSH2 0x109F JUMP JUMPDEST PUSH1 0x40 MLOAD DUP1 SWAP2 SUB SWAP1 LOG1 POP POP POP POP POP POP POP POP POP POP POP POP JUMP JUMPDEST PUSH1 0x40 MLOAD DUP1 PUSH2 0x160 ADD PUSH1 0x40 MSTORE DUP1 PUSH1 0x60 DUP2 MSTORE PUSH1 0x20 ADD PUSH0 DUP2 MSTORE PUSH1 0x20 ADD PUSH0 DUP2 MSTORE PUSH1 0x20 ADD PUSH0 DUP2 MSTORE PUSH1 0x20 ADD PUSH0 DUP2 MSTORE PUSH1 0x20 ADD PUSH0 DUP2 MSTORE PUSH1 0x20 ADD PUSH0 DUP2 MSTORE PUSH1 0x20 ADD PUSH0 DUP2 MSTORE PUSH1 0x20 ADD PUSH0 DUP2 MSTORE PUSH1 0x20 ADD PUSH0 DUP2 MSTORE PUSH1 0x20 ADD PUSH1 0x60 DUP2 MSTORE POP SWAP1 JUMP JUMPDEST PUSH0 DUP2 SWAP1 POP SWAP2 SWAP1 POP JUMP JUMPDEST PUSH2 0xB28 DUP2 PUSH2 0xB16 JUMP JUMPDEST DUP3 MSTORE POP POP JUMP JUMPDEST PUSH0 PUSH1 0x20 DUP3 ADD SWAP1 POP PUSH2 0xB41 PUSH0 DUP4 ADD DUP5 PUSH2 0xB1F JUMP JUMPDEST SWAP3 SWAP2 POP POP JUMP JUMPDEST PUSH0 PUSH1 0x40 MLOAD SWAP1 POP SWAP1 JUMP JUMPDEST PUSH0 DUP1 REVERT JUMPDEST PUSH0 DUP1 REVERT JUMPDEST PUSH0 DUP1 REVERT JUMPDEST PUSH0 DUP1 REVERT JUMPDEST PUSH0 PUSH1 0x1F NOT PUSH1 0x1F DUP4 ADD AND SWAP1 POP SWAP2 SWAP1 POP JUMP JUMPDEST PUSH32 0x4E487B7100000000000000000000000000000000000000000000000000000000 PUSH0 MSTORE PUSH1 0x41 PUSH1 0x4 MSTORE PUSH1 0x24 PUSH0 REVERT JUMPDEST PUSH2 0xBA6 DUP3 PUSH2 0xB60 JUMP JUMPDEST DUP2 ADD DUP2 DUP2 LT PUSH8 0xFFFFFFFFFFFFFFFF DUP3 GT OR ISZERO PUSH2 0xBC5 JUMPI PUSH2 0xBC4 PUSH2 0xB70 JUMP JUMPDEST JUMPDEST DUP1 PUSH1 0x40 MSTORE POP POP POP JUMP JUMPDEST PUSH0 PUSH2 0xBD7 PUSH2 0xB47 JUMP JUMPDEST SWAP1 POP PUSH2 0xBE3 DUP3 DUP3 PUSH2 0xB9D JUMP JUMPDEST SWAP2 SWAP1 POP JUMP JUMPDEST PUSH0 PUSH8 0xFFFFFFFFFFFFFFFF DUP3 GT ISZERO PUSH2 0xC02 JUMPI PUSH2 0xC01 PUSH2 0xB70 JUMP JUMPDEST JUMPDEST PUSH2 0xC0B DUP3 PUSH2 0xB60 JUMP JUMPDEST SWAP1 POP PUSH1 0x20 DUP2 ADD SWAP1 POP SWAP2 SWAP1 POP JUMP JUMPDEST DUP3 DUP2 DUP4 CALLDATACOPY PUSH0 DUP4 DUP4 ADD MSTORE POP POP POP JUMP JUMPDEST PUSH0 PUSH2 0xC38 PUSH2 0xC33 DUP5 PUSH2 0xBE8 JUMP JUMPDEST PUSH2 0xBCE JUMP JUMPDEST SWAP1 POP DUP3 DUP2 MSTORE PUSH1 0x20 DUP2 ADD DUP5 DUP5 DUP5 ADD GT ISZERO PUSH2 0xC54 JUMPI PUSH2 0xC53 PUSH2 0xB5C JUMP JUMPDEST JUMPDEST PUSH2 0xC5F DUP5 DUP3 DUP6 PUSH2 0xC18 JUMP JUMPDEST POP SWAP4 SWAP3 POP POP POP JUMP JUMPDEST PUSH0 DUP3 PUSH1 0x1F DUP4 ADD SLT PUSH2 0xC7B JUMPI PUSH2 0xC7A PUSH2 0xB58 JUMP JUMPDEST JUMPDEST DUP2 CALLDATALOAD PUSH2 0xC8B DUP5 DUP3 PUSH1 0x20 DUP7 ADD PUSH2 0xC26 JUMP JUMPDEST SWAP2 POP POP SWAP3 SWAP2 POP POP JUMP JUMPDEST PUSH0 PUSH1 0x20 DUP3 DUP5 SUB SLT ISZERO PUSH2 0xCA9 JUMPI PUSH2 0xCA8 PUSH2 0xB50 JUMP JUMPDEST JUMPDEST PUSH0 DUP3 ADD CALLDATALOAD PUSH8 0xFFFFFFFFFFFFFFFF DUP2 GT ISZERO PUSH2 0xCC6 JUMPI PUSH2 0xCC5 PUSH2 0xB54 JUMP JUMPDEST JUMPDEST PUSH2 0xCD2 DUP5 DUP3 DUP6 ADD PUSH2 0xC67 JUMP JUMPDEST SWAP2 POP POP SWAP3 SWAP2 POP POP JUMP JUMPDEST PUSH0 DUP2 MLOAD SWAP1 POP SWAP2 SWAP1 POP JUMP JUMPDEST PUSH0 DUP3 DUP3 MSTORE PUSH1 0x20 DUP3 ADD SWAP1 POP SWAP3 SWAP2 POP POP JUMP JUMPDEST DUP3 DUP2 DUP4 MCOPY PUSH0 DUP4 DUP4 ADD MSTORE POP POP POP JUMP JUMPDEST PUSH0 PUSH2 0xD0D DUP3 PUSH2 0xCDB JUMP JUMPDEST PUSH2 0xD17 DUP2 DUP6 PUSH2 0xCE5 JUMP JUMPDEST SWAP4 POP PUSH2 0xD27 DUP2 DUP6 PUSH1 0x20 DUP7 ADD PUSH2 0xCF5 JUMP JUMPDEST PUSH2 0xD30 DUP2 PUSH2 0xB60 JUMP JUMPDEST DUP5 ADD SWAP2 POP POP SWAP3 SWAP2 POP POP JUMP JUMPDEST PUSH2 0xD44 DUP2 PUSH2 0xB16 JUMP JUMPDEST DUP3 MSTORE POP POP JUMP JUMPDEST PUSH0 DUP2 SWAP1 POP SWAP2 SWAP1 POP JUMP JUMPDEST PUSH2 0xD5C DUP2 PUSH2 0xD4A JUMP JUMPDEST DUP3 MSTORE POP POP JUMP JUMPDEST PUSH0 PUSH2 0x160 DUP4 ADD PUSH0 DUP4 ADD MLOAD DUP5 DUP3 SUB PUSH0 DUP7 ADD MSTORE PUSH2 0xD7D DUP3 DUP3 PUSH2 0xD03 JUMP JUMPDEST SWAP2 POP POP PUSH1 0x20 DUP4 ADD MLOAD PUSH2 0xD92 PUSH1 0x20 DUP7 ADD DUP3 PUSH2 0xD3B JUMP JUMPDEST POP PUSH1 0x40 DUP4 ADD MLOAD PUSH2 0xDA5 PUSH1 0x40 DUP7 ADD DUP3 PUSH2 0xD3B JUMP JUMPDEST POP PUSH1 0x60 DUP4 ADD MLOAD PUSH2 0xDB8 PUSH1 0x60 DUP7 ADD DUP3 PUSH2 0xD3B JUMP JUMPDEST POP PUSH1 0x80 DUP4 ADD MLOAD PUSH2 0xDCB PUSH1 0x80 DUP7 ADD DUP3 PUSH2 0xD3B JUMP JUMPDEST POP PUSH1 0xA0 DUP4 ADD MLOAD PUSH2 0xDDE PUSH1 0xA0 DUP7 ADD DUP3 PUSH2 0xD3B JUMP JUMPDEST POP PUSH1 0xC0 DUP4 ADD MLOAD PUSH2 0xDF1 PUSH1 0xC0 DUP7 ADD DUP3 PUSH2 0xD3B JUMP JUMPDEST POP PUSH1 0xE0 DUP4 ADD MLOAD PUSH2 0xE04 PUSH1 0xE0 DUP7 ADD DUP3 PUSH2 0xD3B JUMP JUMPDEST POP PUSH2 0x100 DUP4 ADD MLOAD PUSH2 0xE19 PUSH2 0x100 DUP7 ADD DUP3 PUSH2 0xD3B JUMP JUMPDEST POP PUSH2 0x120 DUP4 ADD MLOAD PUSH2 0xE2E PUSH2 0x120 DUP7 ADD DUP3 PUSH2 0xD53 JUMP JUMPDEST POP PUSH2 0x140 DUP4 ADD MLOAD DUP5 DUP3 SUB PUSH2 0x140 DUP7 ADD MSTORE PUSH2 0xE48 DUP3 DUP3 PUSH2 0xD03 JUMP JUMPDEST SWAP2 POP POP DUP1 SWAP2 POP POP SWAP3 SWAP2 POP POP JUMP JUMPDEST PUSH0 PUSH1 0x20 DUP3 ADD SWAP1 POP DUP2 DUP2 SUB PUSH0 DUP4 ADD MSTORE PUSH2 0xE6D DUP2 DUP5 PUSH2 0xD62 JUMP JUMPDEST SWAP1 POP SWAP3 SWAP2 POP POP JUMP JUMPDEST PUSH2 0xE7E DUP2 PUSH2 0xB16 JUMP JUMPDEST DUP2 EQ PUSH2 0xE88 JUMPI PUSH0 DUP1 REVERT JUMPDEST POP JUMP JUMPDEST PUSH0 DUP2 CALLDATALOAD SWAP1 POP PUSH2 0xE99 DUP2 PUSH2 0xE75 JUMP JUMPDEST SWAP3 SWAP2 POP POP JUMP JUMPDEST PUSH2 0xEA8 DUP2 PUSH2 0xD4A JUMP JUMPDEST DUP2 EQ PUSH2 0xEB2 JUMPI PUSH0 DUP1 REVERT JUMPDEST POP JUMP JUMPDEST PUSH0 DUP2 CALLDATALOAD SWAP1 POP PUSH2 0xEC3 DUP2 PUSH2 0xE9F JUMP JUMPDEST SWAP3 SWAP2 POP POP JUMP JUMPDEST PUSH0 DUP1 PUSH0 DUP1 PUSH0 DUP1 PUSH0 DUP1 PUSH0 DUP1 PUSH0 PUSH2 0x160 DUP13 DUP15 SUB SLT ISZERO PUSH2 0xEE9 JUMPI PUSH2 0xEE8 PUSH2 0xB50 JUMP JUMPDEST JUMPDEST PUSH0 DUP13 ADD CALLDATALOAD PUSH8 0xFFFFFFFFFFFFFFFF DUP2 GT ISZERO PUSH2 0xF06 JUMPI PUSH2 0xF05 PUSH2 0xB54 JUMP JUMPDEST JUMPDEST PUSH2 0xF12 DUP15 DUP3 DUP16 ADD PUSH2 0xC67 JUMP JUMPDEST SWAP12 POP POP PUSH1 0x20 PUSH2 0xF23 DUP15 DUP3 DUP16 ADD PUSH2 0xE8B JUMP JUMPDEST SWAP11 POP POP PUSH1 0x40 PUSH2 0xF34 DUP15 DUP3 DUP16 ADD PUSH2 0xE8B JUMP JUMPDEST SWAP10 POP POP PUSH1 0x60 PUSH2 0xF45 DUP15 DUP3 DUP16 ADD PUSH2 0xE8B JUMP JUMPDEST SWAP9 POP POP PUSH1 0x80 PUSH2 0xF56 DUP15 DUP3 DUP16 ADD PUSH2 0xE8B JUMP JUMPDEST SWAP8 POP POP PUSH1 0xA0 PUSH2 0xF67 DUP15 DUP3 DUP16 ADD PUSH2 0xE8B JUMP JUMPDEST SWAP7 POP POP PUSH1 0xC0 PUSH2 0xF78 DUP15 DUP3 DUP16 ADD PUSH2 0xE8B JUMP JUMPDEST SWAP6 POP POP PUSH1 0xE0 PUSH2 0xF89 DUP15 DUP3 DUP16 ADD PUSH2 0xE8B JUMP JUMPDEST SWAP5 POP POP PUSH2 0x100 PUSH2 0xF9B DUP15 DUP3 DUP16 ADD PUSH2 0xE8B JUMP JUMPDEST SWAP4 POP POP PUSH2 0x120 PUSH2 0xFAD DUP15 DUP3 DUP16 ADD PUSH2 0xEB5 JUMP JUMPDEST SWAP3 POP POP PUSH2 0x140 DUP13 ADD CALLDATALOAD PUSH8 0xFFFFFFFFFFFFFFFF DUP2 GT ISZERO PUSH2 0xFCF JUMPI PUSH2 0xFCE PUSH2 0xB54 JUMP JUMPDEST JUMPDEST PUSH2 0xFDB DUP15 DUP3 DUP16 ADD PUSH2 0xC67 JUMP JUMPDEST SWAP2 POP POP SWAP3 SWAP6 SWAP9 SWAP12 POP SWAP3 SWAP6 SWAP9 SWAP12 SWAP1 SWAP4 SWAP7 SWAP10 POP JUMP JUMPDEST PUSH0 DUP1 PUSH1 0x40 DUP4 DUP6 SUB SLT ISZERO PUSH2 0x1004 JUMPI PUSH2 0x1003 PUSH2 0xB50 JUMP JUMPDEST JUMPDEST PUSH0 DUP4 ADD CALLDATALOAD PUSH8 0xFFFFFFFFFFFFFFFF DUP2 GT ISZERO PUSH2 0x1021 JUMPI PUSH2 0x1020 PUSH2 0xB54 JUMP JUMPDEST JUMPDEST PUSH2 0x102D DUP6 DUP3 DUP7 ADD PUSH2 0xC67 JUMP JUMPDEST SWAP3 POP POP PUSH1 0x20 PUSH2 0x103E DUP6 DUP3 DUP7 ADD PUSH2 0xE8B JUMP JUMPDEST SWAP2 POP POP SWAP3 POP SWAP3 SWAP1 POP JUMP JUMPDEST PUSH0 DUP3 DUP3 MSTORE PUSH1 0x20 DUP3 ADD SWAP1 POP SWAP3 SWAP2 POP POP JUMP JUMPDEST PUSH0 PUSH2 0x1062 DUP3 PUSH2 0xCDB JUMP JUMPDEST PUSH2 0x106C DUP2 DUP6 PUSH2 0x1048 JUMP JUMPDEST SWAP4 POP PUSH2 0x107C DUP2 DUP6 PUSH1 0x20 DUP7 ADD PUSH2 0xCF5 JUMP JUMPDEST PUSH2 0x1085 DUP2 PUSH2 0xB60 JUMP JUMPDEST DUP5 ADD SWAP2 POP POP SWAP3 SWAP2 POP POP JUMP JUMPDEST PUSH2 0x1099 DUP2 PUSH2 0xD4A JUMP JUMPDEST DUP3 MSTORE POP POP JUMP JUMPDEST PUSH0 PUSH2 0x160 DUP3 ADD SWAP1 POP DUP2 DUP2 SUB PUSH0 DUP4 ADD MSTORE PUSH2 0x10B8 DUP2 DUP15 PUSH2 0x1058 JUMP JUMPDEST SWAP1 POP PUSH2 0x10C7 PUSH1 0x20 DUP4 ADD DUP14 PUSH2 0xB1F JUMP JUMPDEST PUSH2 0x10D4 PUSH1 0x40 DUP4 ADD DUP13 PUSH2 0xB1F JUMP JUMPDEST PUSH2 0x10E1 PUSH1 0x60 DUP4 ADD DUP12 PUSH2 0xB1F JUMP JUMPDEST PUSH2 0x10EE PUSH1 0x80 DUP4 ADD DUP11 PUSH2 0xB1F JUMP JUMPDEST PUSH2 0x10FB PUSH1 0xA0 DUP4 ADD DUP10 PUSH2 0xB1F JUMP JUMPDEST PUSH2 0x1108 PUSH1 0xC0 DUP4 ADD DUP9 PUSH2 0xB1F JUMP JUMPDEST PUSH2 0x1115 PUSH1 0xE0 DUP4 ADD DUP8 PUSH2 0xB1F JUMP JUMPDEST PUSH2 0x1123 PUSH2 0x100 DUP4 ADD DUP7 PUSH2 0xB1F JUMP JUMPDEST PUSH2 0x1131 PUSH2 0x120 DUP4 ADD DUP6 PUSH2 0x1090 JUMP JUMPDEST DUP2 DUP2 SUB PUSH2 0x140 DUP4 ADD MSTORE PUSH2 0x1144 DUP2 DUP5 PUSH2 0x1058 JUMP JUMPDEST SWAP1 POP SWAP13 SWAP12 POP POP POP POP POP POP POP POP POP POP POP POP JUMP JUMPDEST PUSH0 DUP2 MLOAD SWAP1 POP SWAP2 SWAP1 POP JUMP JUMPDEST PUSH0 DUP3 DUP3 MSTORE PUSH1 0x20 DUP3 ADD SWAP1 POP SWAP3 SWAP2 POP POP JUMP JUMPDEST PUSH0 DUP2 SWAP1 POP PUSH1 0x20 DUP3 ADD SWAP1 POP SWAP2 SWAP1 POP JUMP JUMPDEST PUSH0 PUSH2 0x160 DUP4 ADD PUSH0 DUP4 ADD MLOAD DUP5 DUP3 SUB PUSH0 DUP7 ADD MSTORE PUSH2 0x119A DUP3 DUP3 PUSH2 0xD03 JUMP JUMPDEST SWAP2 POP POP PUSH1 0x20 DUP4 ADD MLOAD PUSH2 0x11AF PUSH1 0x20 DUP7 ADD DUP3 PUSH2 0xD3B JUMP JUMPDEST POP PUSH1 0x40 DUP4 ADD MLOAD PUSH2 0x11C2 PUSH1 0x40 DUP7 ADD DUP3 PUSH2 0xD3B JUMP JUMPDEST POP PUSH1 0x60 DUP4 ADD MLOAD PUSH2 0x11D5 PUSH1 0x60 DUP7 ADD DUP3 PUSH2 0xD3B JUMP JUMPDEST POP PUSH1 0x80 DUP4 ADD MLOAD PUSH2 0x11E8 PUSH1 0x80 DUP7 ADD DUP3 PUSH2 0xD3B JUMP JUMPDEST POP PUSH1 0xA0 DUP4 ADD MLOAD PUSH2 0x11FB PUSH1 0xA0 DUP7 ADD DUP3 PUSH2 0xD3B JUMP JUMPDEST POP PUSH1 0xC0 DUP4 ADD MLOAD PUSH2 0x120E PUSH1 0xC0 DUP7 ADD DUP3 PUSH2 0xD3B JUMP JUMPDEST POP PUSH1 0xE0 DUP4 ADD MLOAD PUSH2 0x1221 PUSH1 0xE0 DUP7 ADD DUP3 PUSH2 0xD3B JUMP JUMPDEST POP PUSH2 0x100 DUP4 ADD MLOAD PUSH2 0x1236 PUSH2 0x100 DUP7 ADD DUP3 PUSH2 0xD3B JUMP JUMPDEST POP PUSH2 0x120 DUP4 ADD MLOAD PUSH2 0x124B PUSH2 0x120 DUP7 ADD DUP3 PUSH2 0xD53 JUMP JUMPDEST POP PUSH2 0x140 DUP4 ADD MLOAD DUP5 DUP3 SUB PUSH2 0x140 DUP7 ADD MSTORE PUSH2 0x1265 DUP3 DUP3 PUSH2 0xD03 JUMP JUMPDEST SWAP2 POP POP DUP1 SWAP2 POP POP SWAP3 SWAP2 POP POP JUMP JUMPDEST PUSH0 PUSH2 0x127D DUP4 DUP4 PUSH2 0x117F JUMP JUMPDEST SWAP1 POP SWAP3 SWAP2 POP POP JUMP JUMPDEST PUSH0 PUSH1 0x20 DUP3 ADD SWAP1 POP SWAP2 SWAP1 POP JUMP JUMPDEST PUSH0 PUSH2 0x129B DUP3 PUSH2 0x1156 JUMP JUMPDEST PUSH2 0x12A5 DUP2 DUP6 PUSH2 0x1160 JUMP JUMPDEST SWAP4 POP DUP4 PUSH1 0x20 DUP3 MUL DUP6 ADD PUSH2 0x12B7 DUP6 PUSH2 0x1170 JUMP JUMPDEST DUP1 PUSH0 JUMPDEST DUP6 DUP2 LT ISZERO PUSH2 0x12F2 JUMPI DUP5 DUP5 SUB DUP10 MSTORE DUP2 MLOAD PUSH2 0x12D3 DUP6 DUP3 PUSH2 0x1272 JUMP JUMPDEST SWAP5 POP PUSH2 0x12DE DUP4 PUSH2 0x1285 JUMP JUMPDEST SWAP3 POP PUSH1 0x20 DUP11 ADD SWAP10 POP POP PUSH1 0x1 DUP2 ADD SWAP1 POP PUSH2 0x12BA JUMP JUMPDEST POP DUP3 SWAP8 POP DUP8 SWAP6 POP POP POP POP POP POP SWAP3 SWAP2 POP POP JUMP JUMPDEST PUSH0 PUSH1 0x20 DUP3 ADD SWAP1 POP DUP2 DUP2 SUB PUSH0 DUP4 ADD MSTORE PUSH2 0x131C DUP2 DUP5 PUSH2 0x1291 JUMP JUMPDEST SWAP1 POP SWAP3 SWAP2 POP POP JUMP JUMPDEST PUSH0 DUP2 SWAP1 POP SWAP3 SWAP2 POP POP JUMP JUMPDEST PUSH0 PUSH2 0x1338 DUP3 PUSH2 0xCDB JUMP JUMPDEST PUSH2 0x1342 DUP2 DUP6 PUSH2 0x1324 JUMP JUMPDEST SWAP4 POP PUSH2 0x1352 DUP2 DUP6 PUSH1 0x20 DUP7 ADD PUSH2 0xCF5 JUMP JUMPDEST DUP1 DUP5 ADD SWAP2 POP POP SWAP3 SWAP2 POP POP JUMP JUMPDEST PUSH0 PUSH2 0x1369 DUP3 DUP5 PUSH2 0x132E JUMP JUMPDEST SWAP2 POP DUP2 SWAP1 POP SWAP3 SWAP2 POP POP JUMP JUMPDEST PUSH32 0x4E6F206461746120617661696C61626C6520666F722074686973206172656121 PUSH0 DUP3 ADD MSTORE POP JUMP JUMPDEST PUSH0 PUSH2 0x13A8 PUSH1 0x20 DUP4 PUSH2 0x1048 JUMP JUMPDEST SWAP2 POP PUSH2 0x13B3 DUP3 PUSH2 0x1374 JUMP JUMPDEST PUSH1 0x20 DUP3 ADD SWAP1 POP SWAP2 SWAP1 POP JUMP JUMPDEST PUSH0 PUSH1 0x20 DUP3 ADD SWAP1 POP DUP2 DUP2 SUB PUSH0 DUP4 ADD MSTORE PUSH2 0x13D5 DUP2 PUSH2 0x139C JUMP JUMPDEST SWAP1 POP SWAP2 SWAP1 POP JUMP JUMPDEST PUSH32 0x4E487B7100000000000000000000000000000000000000000000000000000000 PUSH0 MSTORE PUSH1 0x11 PUSH1 0x4 MSTORE PUSH1 0x24 PUSH0 REVERT JUMPDEST PUSH0 PUSH2 0x1413 DUP3 PUSH2 0xB16 JUMP JUMPDEST SWAP2 POP PUSH2 0x141E DUP4 PUSH2 0xB16 JUMP JUMPDEST SWAP3 POP DUP3 DUP3 SUB SWAP1 POP DUP2 DUP2 GT ISZERO PUSH2 0x1436 JUMPI PUSH2 0x1435 PUSH2 0x13DC JUMP JUMPDEST JUMPDEST SWAP3 SWAP2 POP POP JUMP JUMPDEST PUSH32 0x4E487B7100000000000000000000000000000000000000000000000000000000 PUSH0 MSTORE PUSH1 0x32 PUSH1 0x4 MSTORE PUSH1 0x24 PUSH0 REVERT JUMPDEST PUSH32 0x4E487B7100000000000000000000000000000000000000000000000000000000 PUSH0 MSTORE PUSH1 0x22 PUSH1 0x4 MSTORE PUSH1 0x24 PUSH0 REVERT JUMPDEST PUSH0 PUSH1 0x2 DUP3 DIV SWAP1 POP PUSH1 0x1 DUP3 AND DUP1 PUSH2 0x14AD JUMPI PUSH1 0x7F DUP3 AND SWAP2 POP JUMPDEST PUSH1 0x20 DUP3 LT DUP2 SUB PUSH2 0x14C0 JUMPI PUSH2 0x14BF PUSH2 0x1469 JUMP JUMPDEST JUMPDEST POP SWAP2 SWAP1 POP JUMP JUMPDEST PUSH32 0x4E6F2062616C616E636520746F20776974686472617700000000000000000000 PUSH0 DUP3 ADD MSTORE POP JUMP JUMPDEST PUSH0 PUSH2 0x14FA PUSH1 0x16 DUP4 PUSH2 0x1048 JUMP JUMPDEST SWAP2 POP PUSH2 0x1505 DUP3 PUSH2 0x14C6 JUMP JUMPDEST PUSH1 0x20 DUP3 ADD SWAP1 POP SWAP2 SWAP1 POP JUMP JUMPDEST PUSH0 PUSH1 0x20 DUP3 ADD SWAP1 POP DUP2 DUP2 SUB PUSH0 DUP4 ADD MSTORE PUSH2 0x1527 DUP2 PUSH2 0x14EE JUMP JUMPDEST SWAP1 POP SWAP2 SWAP1 POP JUMP JUMPDEST PUSH32 0x5061796D656E7420726571756972656400000000000000000000000000000000 PUSH0 DUP3 ADD MSTORE POP JUMP JUMPDEST PUSH0 PUSH2 0x1562 PUSH1 0x10 DUP4 PUSH2 0x1048 JUMP JUMPDEST SWAP2 POP PUSH2 0x156D DUP3 PUSH2 0x152E JUMP JUMPDEST PUSH1 0x20 DUP3 ADD SWAP1 POP SWAP2 SWAP1 POP JUMP JUMPDEST PUSH0 PUSH1 0x20 DUP3 ADD SWAP1 POP DUP2 DUP2 SUB PUSH0 DUP4 ADD MSTORE PUSH2 0x158F DUP2 PUSH2 0x1556 JUMP JUMPDEST SWAP1 POP SWAP2 SWAP1 POP JUMP JUMPDEST PUSH0 DUP2 SWAP1 POP DUP2 PUSH0 MSTORE PUSH1 0x20 PUSH0 KECCAK256 SWAP1 POP SWAP2 SWAP1 POP JUMP JUMPDEST PUSH0 PUSH1 0x20 PUSH1 0x1F DUP4 ADD DIV SWAP1 POP SWAP2 SWAP1 POP JUMP JUMPDEST PUSH0 DUP3 DUP3 SHL SWAP1 POP SWAP3 SWAP2 POP POP JUMP JUMPDEST PUSH0 PUSH1 0x8 DUP4 MUL PUSH2 0x15F2 PUSH32 0xFFFFFFFFFFFFFFFFFFFFFFFFFFFFFFFFFFFFFFFFFFFFFFFFFFFFFFFFFFFFFFFF DUP3 PUSH2 0x15B7 JUMP JUMPDEST PUSH2 0x15FC DUP7 DUP4 PUSH2 0x15B7 JUMP JUMPDEST SWAP6 POP DUP1 NOT DUP5 AND SWAP4 POP DUP1 DUP7 AND DUP5 OR SWAP3 POP POP POP SWAP4 SWAP3 POP POP POP JUMP JUMPDEST PUSH0 DUP2 SWAP1 POP SWAP2 SWAP1 POP JUMP JUMPDEST PUSH0 PUSH2 0x1637 PUSH2 0x1632 PUSH2 0x162D DUP5 PUSH2 0xB16 JUMP JUMPDEST PUSH2 0x1614 JUMP JUMPDEST PUSH2 0xB16 JUMP JUMPDEST SWAP1 POP SWAP2 SWAP1 POP JUMP JUMPDEST PUSH0 DUP2 SWAP1 POP SWAP2 SWAP1 POP JUMP JUMPDEST PUSH2 0x1650 DUP4 PUSH2 0x161D JUMP JUMPDEST PUSH2 0x1664 PUSH2 0x165C DUP3 PUSH2 0x163E JUMP JUMPDEST DUP5 DUP5 SLOAD PUSH2 0x15C3 JUMP JUMPDEST DUP3 SSTORE POP POP POP POP JUMP JUMPDEST PUSH0 SWAP1 JUMP JUMPDEST PUSH2 0x1678 PUSH2 0x166C JUMP JUMPDEST PUSH2 0x1683 DUP2 DUP5 DUP5 PUSH2 0x1647 JUMP JUMPDEST POP POP POP JUMP JUMPDEST JUMPDEST DUP2 DUP2 LT ISZERO PUSH2 0x16A6 JUMPI PUSH2 0x169B PUSH0 DUP3 PUSH2 0x1670 JUMP JUMPDEST PUSH1 0x1 DUP2 ADD SWAP1 POP PUSH2 0x1689 JUMP JUMPDEST POP POP JUMP JUMPDEST PUSH1 0x1F DUP3 GT ISZERO PUSH2 0x16EB JUMPI PUSH2 0x16BC DUP2 PUSH2 0x1596 JUMP JUMPDEST PUSH2 0x16C5 DUP5 PUSH2 0x15A8 JUMP JUMPDEST DUP2 ADD PUSH1 0x20 DUP6 LT ISZERO PUSH2 0x16D4 JUMPI DUP2 SWAP1 POP JUMPDEST PUSH2 0x16E8 PUSH2 0x16E0 DUP6 PUSH2 0x15A8 JUMP JUMPDEST DUP4 ADD DUP3 PUSH2 0x1688 JUMP JUMPDEST POP POP JUMPDEST POP POP POP JUMP JUMPDEST PUSH0 DUP3 DUP3 SHR SWAP1 POP SWAP3 SWAP2 POP POP JUMP JUMPDEST PUSH0 PUSH2 0x170B PUSH0 NOT DUP5 PUSH1 0x8 MUL PUSH2 0x16F0 JUMP JUMPDEST NOT DUP1 DUP4 AND SWAP2 POP POP SWAP3 SWAP2 POP POP JUMP JUMPDEST PUSH0 PUSH2 0x1723 DUP4 DUP4 PUSH2 0x16FC JUMP JUMPDEST SWAP2 POP DUP3 PUSH1 0x2 MUL DUP3 OR SWAP1 POP SWAP3 SWAP2 POP POP JUMP JUMPDEST PUSH2 0x173C DUP3 PUSH2 0xCDB JUMP JUMPDEST PUSH8 0xFFFFFFFFFFFFFFFF DUP2 GT ISZERO PUSH2 0x1755 JUMPI PUSH2 0x1754 PUSH2 0xB70 JUMP JUMPDEST JUMPDEST PUSH2 0x175F DUP3 SLOAD PUSH2 0x1496 JUMP JUMPDEST PUSH2 0x176A DUP3 DUP3 DUP6 PUSH2 0x16AA JUMP JUMPDEST PUSH0 PUSH1 0x20 SWAP1 POP PUSH1 0x1F DUP4 GT PUSH1 0x1 DUP2 EQ PUSH2 0x179B JUMPI PUSH0 DUP5 ISZERO PUSH2 0x1789 JUMPI DUP3 DUP8 ADD MLOAD SWAP1 POP JUMPDEST PUSH2 0x1793 DUP6 DUP3 PUSH2 0x1718 JUMP JUMPDEST DUP7 SSTORE POP PUSH2 0x17FA JUMP JUMPDEST PUSH1 0x1F NOT DUP5 AND PUSH2 0x17A9 DUP7 PUSH2 0x1596 JUMP JUMPDEST PUSH0 JUMPDEST DUP3 DUP2 LT ISZERO PUSH2 0x17D0 JUMPI DUP5 DUP10 ADD MLOAD DUP3 SSTORE PUSH1 0x1 DUP3 ADD SWAP2 POP PUSH1 0x20 DUP6 ADD SWAP5 POP PUSH1 0x20 DUP2 ADD SWAP1 POP PUSH2 0x17AB JUMP JUMPDEST DUP7 DUP4 LT ISZERO PUSH2 0x17ED JUMPI DUP5 DUP10 ADD MLOAD PUSH2 0x17E9 PUSH1 0x1F DUP10 AND DUP3 PUSH2 0x16FC JUMP JUMPDEST DUP4 SSTORE POP JUMPDEST PUSH1 0x1 PUSH1 0x2 DUP9 MUL ADD DUP9 SSTORE POP POP POP JUMPDEST POP POP POP POP POP POP JUMP INVALID LOG2 PUSH5 0x6970667358 0x22 SLT KECCAK256 LT 0xF 0xE0 DUP5 0xBD 0x26 0xE4 PUSH24 0x2698DB303CCAFC7D80966445C03C7A5CDD0B1E4D9C3A7E0C PUSH5 0x736F6C6343 STOP ADDMOD BYTE STOP CALLER "
				},
				"gasEstimates": {
					"creation": {
						"codeDepositCost": "1240000",
						"executionCost": "1286",
						"totalCost": "1241286"
					},
					"external": {
						"": "1764",
						"areaData(string,uint256)": "infinite",
						"getDataByArea(string)": "infinite",
						"getLatestDataByArea(string)": "infinite",
						"recordData(string,uint256,uint256,uint256,uint256,uint256,uint256,uint256,uint256,int256,string)": "infinite",
						"recordDataWithPayment(string,uint256,uint256,uint256,uint256,uint256,uint256,uint256,uint256,int256,string)": "infinite",
						"withdraw()": "infinite"
					},
					"internal": {
						"_storeData(string memory,uint256,uint256,uint256,uint256,uint256,uint256,uint256,uint256,int256,string memory)": "infinite"
					}
				},
				"methodIdentifiers": {
					"areaData(string,uint256)": "aff3b5d5",
					"getDataByArea(string)": "dcaa2597",
					"getLatestDataByArea(string)": "0c5267aa",
					"recordData(string,uint256,uint256,uint256,uint256,uint256,uint256,uint256,uint256,int256,string)": "770ce963",
					"recordDataWithPayment(string,uint256,uint256,uint256,uint256,uint256,uint256,uint256,uint256,int256,string)": "6e703374",
					"withdraw()": "3ccfd60b"
				}
			},
			"storageLayout": {
				"storage": [
					{
						"astId": 30,
						"contract": "contracts/waterquality.sol:WaterQuality",
						"label": "areaData",
						"offset": 0,
						"slot": "0",
						"type": "t_mapping(t_string_memory_ptr,t_array(t_struct(WaterQualityData)24_storage)dyn_storage)"
					}
				],
				"types": {
					"t_array(t_struct(WaterQualityData)24_storage)dyn_storage": {
						"base": "t_struct(WaterQualityData)24_storage",
						"encoding": "dynamic_array",
						"label": "struct WaterQuality.WaterQualityData[]",
						"numberOfBytes": "32"
					},
					"t_int256": {
						"encoding": "inplace",
						"label": "int256",
						"numberOfBytes": "32"
					},
					"t_mapping(t_string_memory_ptr,t_array(t_struct(WaterQualityData)24_storage)dyn_storage)": {
						"encoding": "mapping",
						"key": "t_string_memory_ptr",
						"label": "mapping(string => struct WaterQuality.WaterQualityData[])",
						"numberOfBytes": "32",
						"value": "t_array(t_struct(WaterQualityData)24_storage)dyn_storage"
					},
					"t_string_memory_ptr": {
						"encoding": "bytes",
						"label": "string",
						"numberOfBytes": "32"
					},
					"t_string_storage": {
						"encoding": "bytes",
						"label": "string",
						"numberOfBytes": "32"
					},
					"t_struct(WaterQualityData)24_storage": {
						"encoding": "inplace",
						"label": "struct WaterQuality.WaterQualityData",
						"members": [
							{
								"astId": 3,
								"contract": "contracts/waterquality.sol:WaterQuality",
								"label": "area",
								"offset": 0,
								"slot": "0",
								"type": "t_string_storage"
							},
							{
								"astId": 5,
								"contract": "contracts/waterquality.sol:WaterQuality",
								"label": "solids",
								"offset": 0,
								"slot": "1",
								"type": "t_uint256"
							},
							{
								"astId": 7,
								"contract": "contracts/waterquality.sol:WaterQuality",
								"label": "hardness",
								"offset": 0,
								"slot": "2",
								"type": "t_uint256"
							},
							{
								"astId": 9,
								"contract": "contracts/waterquality.sol:WaterQuality",
								"label": "pH",
								"offset": 0,
								"slot": "3",
								"type": "t_uint256"
							},
							{
								"astId": 11,
								"contract": "contracts/waterquality.sol:WaterQuality",
								"label": "sulfate",
								"offset": 0,
								"slot": "4",
								"type": "t_uint256"
							},
							{
								"astId": 13,
								"contract": "contracts/waterquality.sol:WaterQuality",
								"label": "chloramines",
								"offset": 0,
								"slot": "5",
								"type": "t_uint256"
							},
							{
								"astId": 15,
								"contract": "contracts/waterquality.sol:WaterQuality",
								"label": "organicCarbon",
								"offset": 0,
								"slot": "6",
								"type": "t_uint256"
							},
							{
								"astId": 17,
								"contract": "contracts/waterquality.sol:WaterQuality",
								"label": "trihalomethanes",
								"offset": 0,
								"slot": "7",
								"type": "t_uint256"
							},
							{
								"astId": 19,
								"contract": "contracts/waterquality.sol:WaterQuality",
								"label": "conductivity",
								"offset": 0,
								"slot": "8",
								"type": "t_uint256"
							},
							{
								"astId": 21,
								"contract": "contracts/waterquality.sol:WaterQuality",
								"label": "potability",
								"offset": 0,
								"slot": "9",
								"type": "t_int256"
							},
							{
								"astId": 23,
								"contract": "contracts/waterquality.sol:WaterQuality",
								"label": "additionalNotes",
								"offset": 0,
								"slot": "10",
								"type": "t_string_storage"
							}
						],
						"numberOfBytes": "352"
					},
					"t_uint256": {
						"encoding": "inplace",
						"label": "uint256",
						"numberOfBytes": "32"
					}
				}
			},
			"userdoc": {
				"kind": "user",
				"methods": {},
				"version": 1
			}
		}
	}
}